:020000040800F2
:1000000000200020E53200086D3000086F30000845
:1000100000000000000000000000000000000000E0
:100020000000000000000000000000007130000827
:100030000000000000000000733000087530000868
:100040003533000800000000353300083533000860
:1000500035330008353300083533000835330008E0
:100060000000000035330008353300083533000840
:100070003533000835330008353300080000000030
:100080003533000800000000000000003533000890
:100090000000000035330008353300083533000810
:1000A000353300083533000835330008492500088A
:0800B0003533000800000000D8
:1000B80010B5064C2378002B07D1054B002B02D036
:1000C800044800E000BF0123237010BD7000002029
:1000D80000000000644B0008044B10B5002B03D04F
:1000E8000349044800E000BF10BDC04600000000FE
:1000F80074000020644B000802B4714649084900A6
:10010800095C49008E4402BC7047C04603B471467E
:10011800490840004900095E49008E4403BC704705
:10012800002243088B4274D303098B425FD3030A2E
:100138008B4244D3030B8B4228D3030C8B420DD341
:10014800FF22090212BA030C8B4202D312120902CF
:1001580065D0030B8B4219D300E0090AC30B8B420D
:1001680001D3CB03C01A5241830B8B4201D38B03BB
:10017800C01A5241430B8B4201D34B03C01A524160
:10018800030B8B4201D30B03C01A5241C30A8B42A3
:1001980001D3CB02C01A5241830A8B4201D38B028E
:1001A800C01A5241430A8B4201D34B02C01A524132
:1001B800030A8B4201D30B02C01A5241CDD2C309A4
:1001C8008B4201D3CB01C01A524183098B4201D320
:1001D8008B01C01A524143098B4201D34B01C01A0B
:1001E800524103098B4201D30B01C01A5241C30883
:1001F8008B4201D3CB00C01A524183088B4201D3F2
:100208008B00C01A524143088B4201D34B00C01ADD
:100218005241411A00D20146524110467047FFE749
:1002280001B5002000F006F802BDC0460029F7D04D
:1002380076E770477047C0468446100062468C4691
:100248001900634600E0C0461FB501F02DF80028EC
:1002580001D40021C8421FBD10B500F07DFF404207
:10026800013010BD10B501F01FF8002801DB002097
:1002780010BD012010BDC04610B501F015F80028CA
:1002880001DD002010BD012010BDC04610B500F0F2
:10029800A5FF002801DC002010BD012010BDC046CC
:1002A80010B500F09BFF002801DA002010BD0120E6
:1002B80010BDC046002B11D1002A0FD1002900D152
:1002C800002802D00021C943080007B4024802A14F
:1002D8004018029003BDC0465DFFFFFF03B46846A7
:1002E80001B5029800F03AF8019B9E4602B00CBC9A
:1002F8007047C04670B500220C4B04000D00FFF794
:10030800CFFF002804D12000290001F02FFE70BD86
:10031800064B00222000290001F096FA01F026FE83
:1003280080231B069C466044F1E7C0460000E0417C
:1003380070B50600080001F04FFE0022064B01F0E0
:1003480017F80D000400300001F046FE2B002200D3
:1003580000F0D0F870BDC0460000F041F0B5574637
:100368004E464546DE46E0B504000D0092469946E5
:1003780083B08B4230D82DD04946504601F070FEEC
:1003880029000600200001F06BFE331A9846203B36
:100398009B4633D45A465346934042461F00534621
:1003A80093401E00AF423AD8AF4200D178E05B4696
:1003B800A41BBD41002B00DA75E000220023009247
:1003C800019301235A4693400193012342469340E7
:1003D800009328E08242CFD90022002300920193A3
:1003E8000C9B002B01D01C605D600098019903B044
:1003F800F0BCBB46B246A946A046F0BD4246202303
:100408009B1A5246DA40414613004A468A40170072
:1004180042461F43534693401E00AF42C4D90022B0
:100428000023009201934346002BD9D0FB077208A2
:100438001A4346467B080EE0AB4201D1A2420CD8D3
:10044800A41A9D41012024196D410021013E241860
:100458004D41002E06D0AB42EED9013E24196D4124
:10046800002EF8D1009801995B4600196941002BCC
:1004780024DB2B005A464446D3402A00E2401C00A5
:100488005B461500002B2ADB26009E403300260021
:100498004746BE403200801A9941009001919FE77B
:1004A800A342BCD883E74246202300219B1A00229E
:1004B800009101920122DA40019286E74246202308
:1004C8009B1A2A0046469A402300F34044461343A9
:1004D8002A00E2401C005B461500002BD4DA424695
:1004E8002F002023260097409B1ADE403B00334311
:1004F800CDE7C046F0B54F464646D6460D00040047
:10050800C0B51F0011002803620F400A10437A008B
:10051800520DE3003C039146640AFA0F4F0F6E0038
:1005280027439246B846760DED0FC900954200D193
:1005380099E04C46341BA446002C00DC7CE04A467B
:10054800002A00D1B8E0C54A964200D11CE18022B9
:100558003C0012041443A0466246382A00DD61E1DB
:100568001F2A00DDCCE164462022121B4446944039
:100578000F00A14664469140E7404C464A1E91410F
:100588003C43424621436446E240801A5C1AA34237
:100598009B415F42C71B3B0200D4D0E07F027F0A29
:1005A800002F00D1FFE0380001F03CFD01000839C0
:1005B800202322005B1A8F40DA408C401743B14257
:1005C80000DAFFE0891B4B1C1F2B00DDA8E020226E
:1005D8003900D21A200094409140D840621E9441BC
:1005E800DF40002601430C43630709D00F23234053
:1005F800042B05D0231DA342A44164423F191C00CB
:100608003B0200D49EE0954B01369E4200D1B7E0F4
:10061800934AE40817407B0771057F0223433F0B89
:100628004A0D12053A43ED072A4318001100E0BCB1
:10063800BA46B146A846F0BD002C4BD04C46A41B88
:10064800A446002E00D023E104001C4300D1AFE1F2
:100658006246541E012A00D115E2804DAC4500D1F6
:10066800C8E1A4461BE14A46B21A9446002A00DCB7
:10067800ACE04A46002A43D0784A964200D1AFE11E
:1006880080223C0012041443A0466246382A67DCE4
:100698001F2A00DC5FE14746203AD7406246202AFD
:1006A80005D064464022121B4446944021434A1E0A
:1006B80091410C003C4357E03A000A4300D105E160
:1006C8002200013A012C00D182E1644CA4455BD0A0
:1006D800944641E7634C771C274200D0C4E00400ED
:1006E8001C43002E00D069E1002C00D1BFE1444634
:1006F8000C4300D0D0E14207DB081343C00829E0CF
:100708003A000A4300D170E162466446013A012C7E
:1007180000D1E0E0514CA44500D161E19446B4E732
:100728003A001F39CA401100202B03D04022D31AA7
:100738009F403C43631E9C41002700260C436307EF
:1007480000D053E7B446E4087B072343F808434A3C
:1007580094451DD06246070352053F0B520D60E7D2
:1007680044460C43621E9441E4189C429B415F42FC
:100778003F183B02E3D5394B01369E4200D0B5E025
:100788003200002700234CE74207DB081343C00868
:100798001A00024300D1E1E180273F0307433F03EA
:1007A8002E4A3F0B3DE7200001F03CFC01001831C8
:1007B8001F2900DCFCE60838844027000024B142E9
:1007C80000DBFFE6264A761A17400DE7002A2FD0ED
:1007D8004A46921B9446002E00D1ADE01F4A91452F
:1007E80000D10FE18022120410436246382A00DD4E
:1007F8000FE11F2A00DD80E1644620221E00121B43
:100808006746040093409440FE405A1E9341F840C6
:1008180034431C43804464188C42BF417F424E4697
:100828004744A6E742460A4311004A1E9141ADE6F5
:100838000C4C721C224200D0A1E002001A43002E88
:1008480000D0FAE0002A00D145E13A000A4300D07E
:1008580046E14207DB081343C0087BE7FF070000B7
:10086800FFFF7FFFFE07000047465C1AC21BA3423A
:10087800BF417F42B94617004A46BF1A3A0200D51F
:100888008DE023003B4300D08AE60020002561E785
:10089800B44CA14500D1ADE0802424042043644633
:1008A800382C3DDC62461F2C00DDB7E020251E00F9
:1008B8002D1B0400AB40AC40D640D04042465D1EE4
:1008C800AB413443121A904623432CE04207DB081D
:1008D8001343C0083BE75C189C429B4140445B4281
:1008E800C71801263B0200D429E702269E4A63085E
:1008F8001740012214401C43FB071C437F0873E682
:100908004446203AD4406246202A05D06746402211
:10091800D21B4746974039434A1E9141214335E649
:100928000343581E8341CC1AA142BF4143467F422C
:1009380055464E46DF1B2EE602001A4300D1BDE0A5
:1009480062466446013A012C00D1E5E0854CA44595
:1009580058D0944649E764462022121B44469440E6
:100968000F00A14664469140E7404C464A1E91411B
:100978003C4342460C436146CA408018F4E6794C31
:10098800A24200D1FDE6591899429B4140445F427A
:10099800C719FC07490816000C437F08CFE6CC1A94
:1009A800A142BF4143467F42181A5546C71BF7E587
:1009B800C9087B0755460B43F808C8E6002C00D049
:1009C80081E043460B4315D1802000250003E3E670
:1009D8005C1AA3429B41C71B5B420126FF1ADAE55A
:1009E8004207DB081343C008D2E64207DB0813437B
:1009F800C008ACE643464246C9085B0755460B4368
:100A0800D008C5E6434642465B07C9080B43D008F1
:100A1800BEE603431C00631E9C41FCE60200203C2A
:100A2800E24014006246202A03D04025AD1AA840AF
:100A38000343581E8341234375E7002AE2D03A0056
:100A48000A43CDD04207DB0813438022C0081203B3
:100A5800104206D0FC08144203D12000CB087A07C4
:100A680013435A0FDB005207DB08134390E6434653
:100A78000B4300D109E743464246C9085B07554680
:100A88000B43D00866E6CC1AA14289413F1A494275
:100A9800554601267F1A7EE542465C1A871AA3420C
:100AA80092415242BF1A3A023DD5CC1AA14289411D
:100AB800434649421F1A55467F1A95E57B07C908E0
:100AC8000B43F80843E64446DB080C4330D14207A1
:100AD8001343C0085CE67B07C9080B43F80839E6EE
:100AE8005C189C429B4140445B42C7183B0200D4BF
:100AF80025E61D4B01261F4021E60400203AD4407C
:100B08006246202A04D040226646921B9040034346
:100B18005A1E93411C437EE65C188C42894140442E
:100B280049424718DDE623003B4300D1ADE606E61F
:100B3800440723438024C0082403204208D04246A7
:100B4800D608264204D155463000CB0851070B433E
:100B58005A0FDB00DB085207134319E60023014A4A
:100B68001F005EE5FF070000FFFF7FFFF0B5574657
:100B78004E464546DE46E0B5814605000C03480072
:100B880092461F0085B0240B400DCE0F002800D1DF
:100B980056E1D44B984200D172E16B0FE4001C433C
:100BA80080231B0423439846CF4BED009B4600232C
:100BB8009946834400933C037B005046240B5B0D0D
:100BC800FF0F002B00D11FE1C64A934200D162E11A
:100BD800C549420F8C46E4005946144380226344B9
:100BE8001204CB1A14439B46C200002033007B40FA
:100BF8009A464B460F2B27D8BC499B00CB589F469B
:100C0800B246009B022B16D0032B00D18EE2012B9B
:100C180000D0D9E000230024002552461B052343B9
:100C2800D20713432800190005B0F0BCBB46B246F2
:100C3800A946A046F0BD00240025AA4BEDE7BA4618
:100C4800A04615000090DCE7444500D2C7E100D17A
:100C5800C2E101235B429C462E0040460025E34446
:100C68002302140E1C431B0C994623041F0C12026A
:100C7800494600920197FFF7D9FA02007A430B041C
:100C8800310C804619438A4207D901235B429C46AE
:100C98000919E0448C4200D807E2881A4946FFF750
:100CA800C5FA09048C4631046646019A090C424388
:100CB800030031438A4204D90919013B8C4200D808
:100CC800EDE1881A424612041A4390464146009BB9
:100CD8000E041B0C1F000293009B360C1B04190CFE
:100CE8000B007343120C7E43039151437A431F0C4C
:100CF800BC4676186644B14203D9802149028C4625
:100D08006244310C8A1831041E04360C8E19904244
:100D180002D312D1B54210D24346591E009B9C46BD
:100D280065441F009D429B415B421B19C0188442C9
:100D380000D2A0E100D19BE18846AE1BB542AD418F
:100D4800801A6D42401B844200D1D5E14946FFF725
:100D58006DFA019A0B044243310C050019438A428B
:100D680000D96CE1881A4946FFF760FA019A3604FF
:100D780042430904360C03000E43B24200D953E142
:100D88000398B61A02002D041D43029F2B041B0C66
:100D98005A437B439C46290C4843130C84446344C0
:100DA8007943984203D98020400284466144180C54
:100DB80012041B04120C41189B188E4200D2FFE04B
:100DC80000D1FAE001231D43494A5A44002A00DCB5
:100DD800AAE06B0700D03DE1ED084346DB0106D5EC
:100DE8004246444B1A4090468022D2005A44424B15
:100DF8009A4200DD1FE743465B071D434346520501
:100E08005C02240B530D08E75246224300D17BE0D5
:100E1800002C00D1FAE0200001F004F902000B3A9E
:100E28001D2301009B1A52460839DA408C401443AE
:100E380052468A40314B58449B4683440020D5E6AD
:100E48004B462343984644D0002C00D1CEE02000E6
:100E580001F0E8F8010002000B391D235B1A49462E
:100E68001000D940083884400B004D46234398466B
:100E780085402348831A9B460023994600939AE6A7
:100E88004B46234398461DD108239946063B002527
:100E9800834600938FE65246224309D102234946EE
:100EA8001943184B89469C4600240220E3449DE6DA
:100EB80003234A461A43134B91469C465246032045
:100EC800E34493E60C239946093BA04683460093E6
:100ED80071E60423994600239B46013300250093BD
:100EE80069E6C046FF07000001FCFFFF7C4B0008D5
:100EF800FF030000FFFFFFFEFE070000F3030000F2
:100F08000DFCFFFF01F8FFFF4946012319438946FD
:100F1800002401206AE6002380249A4600258A4B93
:100F280024037AE601256D4201239B1A382B00DD44
:100F380070E61F2B00DCBFE01F2149428A1A414698
:100F4800D1400A00202B04D04146804B5B44994095
:100F58000D436B1E9D4107232A431D0000241540A5
:100F6800134200D1D4E00F2100231140042900D1FD
:100F7800CBE0111D9142924152429B180A0019027E
:100F880000D4C2E001230024002546E68023414620
:100F98001B03194208D01C4206D11C432403BA463D
:100FA8001500694B240B38E68024434624031C4370
:100FB8002403B246644B240B2FE6002B00D103E731
:100FC800A619681EA64200D28DE08E4200D2A3E088
:100FD80000D1B3E00500F5E6AA4200D939E6434658
:100FE800DE0758086B081E43ED0739E6484601F04E
:100FF80019F801000200153120321C2900DC2CE709
:101008004B46083883400025984632E701F00AF835
:1010180003001A00153220301C2A00DC00E7544671
:10102800083B00229C4005E73619013BB44200D931
:10103800A6E6B24200D8A3E6831E3619A0E609192F
:10104800013D8C4200D98DE68A4200D88AE6851E89
:10105800091987E60F232B40042B00D1BCE6052392
:101068005B42AB429B4104355B42ED089844B4E6D1
:10107800AF4200D960E6824204D800D05CE6AE42B6
:1010880000D859E602235B429C46009BE0449C46FC
:1010980065449D429B415B421B19C0184DE68A423C
:1010A80000D80EE6831E09190BE68A4200D8F4E53B
:1010B800831E98460919F0E52549280059448D40B2
:1010C80042468A40691E8D414146D840D940024374
:1010D8002A430B00510700D151E70F211140042981
:1010E80000D046E74BE705008E4200D06AE6009A3A
:1010F800934200D066E667E6164A5A44002A00DCA6
:1011080010E701230025984467E65D075B021C0B86
:10111800D2080023154380E50098023D4200824230
:10112800BF417F423C1936190092DDE780244346CF
:1011380024031C432403044B240B6EE5009A9A42B3
:10114800EAD30500D3E7C046FF0700003E040000CD
:101158001E040000FF030000F0B54E464546DE467B
:1011680057469046E0B517001A03120B050084464F
:1011780019480E034C0091465A00DB0F9B46360B6C
:10118800640DC90F520D844219D0824210D001203B
:1011980094420ED14E450CD10120C44509D1594580
:1011A80017D0002C05D130002843431E984100E099
:1011B8000120F0BCBB46B246A946A046F0BD3300AC
:1011C80001202B43F5D1A242F3D14B463B43F0D14A
:1011D800E2E70020EDE7C046FF070000F0B547460C
:1011E800CE460400180016001B031B0B2D4D4A00A9
:1011F800994680B543000F03A446B0463F0B520DF5
:10120800C90F5B0DC00FAA4221D0AB4213D0002AF0
:1012180022D13C43002B02D14D462E4322D0002C34
:1012280010D0814222D00220013908400138C0BCC8
:10123800B946B046F0BD4D462E4329D1002AF0D11B
:101248003C43EED10028F2D101204042EFE73D00B7
:1012580025431DD19342EED0002BE2D14C462643C4
:10126800DFD1E0E70020002CE1D0DCE79A420ADC7D
:10127800E8DB4F45D7D80ED000204F45D7D20029FC
:10128800E2D00800D3E74342584140000138CEE796
:1012980002204042CBE7C445C5D80020C445C6D289
:1012A800EDE7C046FF070000F0B54746CE4604000C
:1012B800180016001B031B0B2C4D4A00994680B5DD
:1012C80043000F03A446B0463F0B520DC90F5B0DF8
:1012D800C00FAA420DD0AB4210D0002A27D13C4300
:1012E800002B11D14D462E430ED10020002C15D0D5
:1012F8000EE03D00254310D1934218D14D462E43B0
:101308000BD1002A02D13C43002C0BD0814214D0CF
:10131800022001390840013800E00220C0BCB9466B
:10132800B046F0BD0028F9D101204042F6E7002B75
:10133800ECD14C462643E9D1EAE79A4204DD434220
:10134800584140000138E9E79A42EBDB4F45DFD8C6
:1013580006D000204F45E1D20029E5D00800DDE79E
:10136800C445D5D80020C445D8D2F5E7FF0700000A
:10137800F0B557464E464546DE46E0B598460C035E
:101388004B000600924687B0240B5B0DCF0F002B55
:1013980000D15CE1D94A934200D175E1420FE400E3
:1013A8001443802212041443D54AC500944663446A
:1013B8000093002399469B46434642461E03D20F9C
:1013C8005B0050469046360B5B0D00D120E1CB4ABE
:1013D800934200D162E1CA49420F8C4600996344A6
:1013E800F6008C46164380229C441204634616433A
:1013F800C200002000930099434601318C464946BB
:101408007B4001930F2926D8BE4B890059588F4637
:10141800434601933400150083465B46022B16D0E1
:10142800032B00D103E2012B00D0CDE000220024E1
:101438000025019B12052243DB071A4328001100EF
:1014480007B0F0BCBB46B246A946A046F0BD002492
:101458000025AA4AEDE7280C2D042D0C2B00110CB1
:101468001204120C5343984613002F004343994625
:101478004F434F44BB4647460B003F0CBA464343D5
:10148800DA440293D14504D980277F02B9464B44F8
:10149800029353461B0C9B4653461F0443461B04AA
:1014A8001B0C98463B0043440493330C3604360C1B
:1014B8009846330043439946434643432F009A4690
:1014C800434677435D43380C4D444519A94503D934
:1014D80080235B029946CA443F04280C3F0C2D0424
:1014E800ED19270C2404240C0300200050437A43F0
:1014F80091463A0053440593030C9A464A43614384
:1015080049445144AB44894503D980235B02994639
:101518004A4400040B0C000C0904091820009946E1
:10152800434670435C437E435F43030C9846A419CB
:1015380044444A440397A64204D980235B02984650
:10154800474403972304029E9A46059B5E449846A7
:10155800AE42AD4176188E4289410004000C5044D9
:1015680040446D424719B846934649428946C344A8
:10157800D94498428041A845AD4193459241894557
:1015880089416D4240422843240C524249420A4351
:10159800039B00198018C7184B46DC0D049B750285
:1015A8001D436A1E95414B46F60D7F0235435A028C
:1015B8003C431543FB0100D41CE101216A080D409E
:1015C8001543E207154364084F496144002900DCCC
:1015D800B0E06B0709D00F222A40042A05D02A1D43
:1015E800AA42AD416D4264191500E30104D580217A
:1015F800464AC90014406144454A914200DD26E745
:101608006207ED08640249051543240B4A0D10E7EB
:101618005246324300D17FE0002E00D1DCE030009A
:1016280000F000FD02000B3A1D2301009B1A5246F0
:101638000839DA408E40164352468A40009B3549A5
:10164800181A03008C46634400200093D3E6250053
:1016580005434AD0002C00D1B0E0200000F0E2FCA5
:10166800010002000B391D2310005B1A3100350000
:1016780008388440D94085400C432648831A009393
:10168800002399469B4697E60500254326D1082264
:1016980000930223002491469B468DE65246009B08
:1016A800324310D1154900268C46634449460093BD
:1016B80002231943894602209DE65B460197022BC7
:1016C80000D0ADE6C3E60D4A0320944663444A467B
:1016D800009303231A43914652468CE60C2200934A
:1016E8000323050091469B4666E60423994600239A
:1016F8000093013300249B465EE6C046FF070000C6
:1017080001FCFFFFBC4B0008FF030000FFFFFFFECA
:10171800FE0700000DFCFFFF4946012319438946D7
:101728000026012067E6002380240025434A019310
:1017380024037EE60120401A382800DD76E61F28BB
:101748005BDD1F2223005242511ACB40190020288A
:1017580003D03B4A6244944025436A1E95412A00BF
:101768000A4307210D000024154011425BD00F21C8
:1017780000241140042953D0111D91429241524234
:10178800A4180A0023024BD501220024002550E6A4
:1017980080231B031C4209D01E4207D133431C037C
:1017A80043461500240B254A019342E68022120382
:1017B80014432403214A240B01973AE600F032FC33
:1017C80001000200153120321C2900DC4BE73400EF
:1017D80008380025844050E700F024FC03001A0074
:1017E800153220301C2A00DC1EE75646083B002232
:1017F8009E4023E7009B9C46E6E61249220061448E
:101808002E008D408A40C640691E8D4132432A43CE
:10181800C4405307B6D00F2111400429ACD1B1E719
:1018280065076402240BD2081543002201E68022D2
:10183800120314432403014A240BFAE5FF070000AE
:101848003E0400001E040000F8B557464E464546C3
:10185800DE46E0B51E0017004A000B03520D5B0A76
:101868009046420F1A43CD0FCD4C3103C300944626
:1018780070007A0F490AFF009A46B946400DF60FE4
:101888001143A04200D1B1E001225640B346B5420F
:1018980000D188E04246121A002A00DCAEE0002897
:1018A80000D1C1E0BE48804500D151E1802000044C
:1018B8000143382A00DD7BE11F2A00DDEEE120200C
:1018C8003E00801A0C00D640D140874062468440D2
:1018D800521A781E8741944634432743DC1BA3429F
:1018E8009B4162465B42D31A99464B461B0200D481
:1018F80018E14B465802430A99464B46002B00D143
:1019080037E1484600F08EFB010008392023220009
:1019180048465B1ADA4088408C4043461043884565
:1019280000DD36E1C91A4B1C1F2B00DDEAE020223E
:101938002600D21A01009440DE40D840002391408E
:10194800621E94418146984631430C43630709D08F
:101958000F232340042B05D0231DA342A441644236
:10196800A1441C004B461B0200D4DEE041468C4BD0
:101978000131994200D1E7E04B468A48E408034028
:10198800180049055B07400223434A0D040B120562
:10199800ED0722432A4318001100F0BCBB46B246AB
:1019A800A946A046F8BD4246121A002A52DD002870
:1019B80000D19CE0A04500D1CAE08020000401438A
:1019C800382A00DD49E11F2A00DC97E110000E00EB
:1019D8002038C640202A04D04020821A91400F4364
:1019E800B9464C46621E944134433AE10A003A43F0
:1019F80028D0B346B5422BD06B4A4244002A5DD06A
:101A080042464446821A002C00D0F5E065461D4344
:101A180000D19CE1551E012A00D1FBE1604CA24295
:101A280000D1BDE12A00F0E00800384300D1C3E04E
:101A3800501E012A00D1A8E1594CA24200D187E0EA
:101A4800020036E701225640B346B54200D021E7EE
:101A5800554A4244002A00D1B5E042464446821A1B
:101A6800002C00D138E14E4EB04200D1DEE1802694
:101A7800644636043443A446382A00DD96E11F2A1A
:101A880000DD24E22026B41AA24664465646B44035
:101A9800A1461C004E46D440264334005646B34067
:101AA8005E1EB3411C436346D340C918E419BC42C7
:101AB800BF417F42B94680468944D8E040463B4C06
:101AC8000130204200D0B4E04046002800D044E174
:101AD8006046184300D190E10800384300D0AAE1DD
:101AE8006146DB0849070B436146CC0827E008003C
:101AF800384361D0501E012A00D139E1A24227D0D3
:101B080002005DE702001F39CA401100202B03D0F4
:101B18004022D31A98400443631E9C4100239946EF
:101B280098460C43630700D012E74B464A46E40840
:101B38005B072343D408424619498A420ED024033E
:101B48005205240B520D22E70A00002400231EE749
:101B5800DB086246520713436246D4081A00224340
:101B680000D1FCE180221203144324030C4A240B05
:101B78000DE7200000F056FA010018311F2900DC9B
:101B8800C4E608388440434620000024884500DC29
:101B9800C8E6044A5B1A104098468146D6E6C04615
:101BA800FF070000FFFF7FFF01F8FFFFFE070000AF
:101BB8000F437A1E974191E66146DB0849070B43BC
:101BC8006146CC08B8E74046D34C0130204200D0EB
:101BD800A2E04046002800D001E16046184300D149
:101BE8005EE10800384300D05FE16146DB08490741
:101BF8000B436146CC08A2E7C84DA84200D1CFE00C
:101C0800802564462D042C43A446382A56DC1F2A16
:101C180000DDD1E020251E00AD1A6446AB40AC4083
:101C2800D6405D1EAB41344323436446D440091B70
:101C380049E06046DC1B461AA34280414042814687
:101C480030004E46801B8146000276D44B46234323
:101C580000D052E60024002571E739430C00621ECB
:101C68009441E4189C429B415B42634499464B462D
:101C78001B0200D456E701239C46A84BE044984534
:101C880038D04B46A6480122034018006308144088
:101C98001C43C3071C434308994657E610000E002F
:101CA8002038C640202A04D04020821A91400F4391
:101CB800B9464F467A1E974137430FE662461A43A4
:101CC80013005A1E9341FC1AA742BF417F42CB1B07
:101CD80099465D46804608E666461E4300D1BEE04A
:101CE800561E012A00D109E18C4CA24200D119E10B
:101CF8003200C1E642460024002348E620200C00BA
:101D0800801A3E0087408440D640781E8741D140E3
:101D180034433C438C44A4E7804A904200D1E9E034
:101D2800DF199F429B4161445B42C918CC077F0879
:101D38004B08994680463C43F4E6FC1AA742BF414B
:101D480063467F42C91ACB1B99465D46D5E5FF0815
:101D58004B075D463B43CC08EEE662461A4300D08B
:101D680082E00B003B431BD1802400252403F9E6C5
:101D7800DC199C429B41614489465B4299444B462D
:101D88001B0244D401239846CCE6DC1B6246A342DE
:101D98009B41511A5B42CB1A994601239846A4E508
:101DA800FF084B075D463B43CC08D7E662461A431B
:101DB8001400631E9C4179E615006446203DEC4002
:101DC800A046202A05D040256446AA1A94402343F9
:101DD8009A465446631E9C414346234373E7624632
:101DE8001A4323D00A003A4300D0A0E06246DB0839
:101DF800520713436246D408B0E60B003B4300D1B8
:101E080028E7FF084B075D463B43CC0897E60223CB
:101E1800984636E7FC1AA742BF4163467F42C91A73
:101E2800CB1B994601235D4698465EE54B07FF08A4
:101E38003B43CC0892E6DC1B6046A342B641401AFD
:101E48007642801B8146000260D5FC1AA742BF413A
:101E580063467F42C91ACB1B99465D4676E5FF0863
:101E68004B073B43CC0867E60A00DB083A4300D13E
:101E78006FE66246520713436246D4088022120373
:101E8800144207D0C808104204D15D460400FB087C
:101E980049070B435A0FDB00DB08520713435DE683
:101EA8004B07FF083B43CC0849E6DC199C429B41A1
:101EB800614489465B4299444B461B0200D431E693
:101EC8004A46174B1A400123914698462AE61600BF
:101ED8006446203EF440A046202A05D040266446A9
:101EE800B21A944023439A465446631E9C41434683
:101EF8001C43DBE502000024002348E5DC19BC4252
:101F0800BF41614489467F42B94438E74B46234381
:101F180000D19FE606E6C046FE070000FF07000066
:101F2800FFFF7FFFFF084B073B43CC0816E66246DE
:101F3800DB08520713436246D40880221203144276
:101F480007D0C808104204D15D460400FB084907C1
:101F58000B435A0FDB005207DB081343FEE500234F
:101F6800014A1C0013E5C046FF0700000A0030B50F
:101F7800134C530009030500090B00205B0DD20F19
:101F8800A34204DD0F48834202DD0F4BD01830BD59
:101F98008020400301430D48C01A1F2808DD0C4863
:101FA800C31AD9400B005842002AF0D11800EEE7B6
:101FB800084CC540A446634499400B002B43F2E704
:101FC800FE0300001D040000FFFFFF7F3304000034
:101FD80013040000EDFBFFFF10B5041E10D000F045
:101FE80021F80F4B1B1A0A2811DC0B222100121AA8
:101FF800D14015300A035B058440120B5B0D01E0EC
:10200800002300221B0513432000190010BD2200E5
:102018000B3882405B0512030024120B5B0DF1E7BD
:102028001E0400001C2101231B04984201D3000C4C
:1020380010391B0A984201D3000A08391B09984233
:1020480001D30009043902A2105C40187047C04649
:102058000403020201010101000000000000000069
:1020680010B5002903D1FFF7DDFF203002E008009A
:10207800FFF7D8FF10BDC04602231E4A516B0B4321
:1020880053631D4B1D491A680A401A60802219685B
:1020980092010A431A601A6819490A401A60802294
:1020A800196812020A431A601A6A16490A401A6223
:1020B800F022196A52050A431A62F022196A920537
:1020C8000A431A621A6A10490A401A621A6A120105
:1020D80012091A62E022196A12060A431A62C02219
:1020E800196A12060A431A621A6A520052081A62D8
:1020F8007047C0460010024000040050FFEFFFFF89
:10210800FFBFFFFFFFFFFFF0FFFFFF8710B5FFF7DF
:10211800B3FF80230F4A9B03D16B0F4C0B43D36350
:1021280001220E4B1968914319600D4919610D4B35
:10213800986820409860D9682140D96004211868BF
:1021480001431960022118680143196019680A439C
:102158001A6010BD00100240FF7FFFFF00540040CE
:102168005B3D30000058004030B50124134B120489
:102178001D682C431C605C68A40AA40204435C60CC
:1021880058680F4C204010438022586058689204C9
:1021980002435A6001290AD180225968D2000A43B1
:1021A8005A608022596892010A435A6030BD00295A
:1021B800F7D15A6803490A40F2E7C0460054004084
:1021C800FFFF00FFFFFBFFFFF7B5040016000191BA
:1021D80001F0F6F83200009001212000FFF7C4FF5B
:1021E800002504270E4CAE4212DC2023A2691A42B5
:1021F800FCD0E2691343E36109E001F0E1F8009BD8
:10220800C01A142804D90122236893432360F7BD18
:10221800A3693B42F1D0636A019A53550135E1E75E
:1022280000540040F7B5019100211600FFF79CFF0C
:1022380001F0C6F80025FF270090114CAE4212DCD1
:102248002023A2691A42FCD0A2691343A36109E0C2
:1022580001F0B6F8009BC01A142804D9012223689B
:1022680093432360F7BD0222A3691342F0D0019A79
:10227800A36A525DBB431343A3620135DDE7C04641
:102288000054004010B5040001F09AF82368C01A01
:10229800FA239B00984203D901F092F8206010BD00
:1022A80001F08EF823680222C01A054B59693228BA
:1022B80002D991435961F2E70A435A61EFE7C046F0
:1022C8000004005070B50025C560456085600400B5
:1022D80001F076F82561A5616561206070BD000098
:1022E800A0238022DB051968D2010A4310B51A60C1
:1022F8001A680B490A401A6001220A4B19680A43F6
:1023080002211A601A688A431A60042219680A436B
:1023180008211A601A688A431A60FFF7D3FF10BDB4
:10232800FF7FFFFF0004005037B51D000C00C00000
:1023380001A9104308700122A020FFF773FF0520B0
:1023480001F044F82A002100A020FFF73DFF37BD27
:10235800F0B585B000AFBA606A461C0001337B60F7
:102368000733DB08DB00D31A9D466E46E31DDB0806
:10237800DB00F31A9D460D00BA6869462300F86031
:10238800FFF7D2FF22006946280001F095FF0028D8
:102398000ED0FB682900DA00BB68701C1A43327043
:1023A800220001F04FFF3100A0203A79FFF73AFFF1
:1023B800062001F00BF8BD4605B0F0BD002213B5AC
:1023C80001AC042321000192FFF7AEFF6378207867
:1023D800A2781B020343E078120413430006184353
:1023E80016BD0000F8B504213F4801F059F9431E15
:1023F80098413E4C404204408021A0203C4B49007B
:10240800C005E41801F04CF9431E9841394F3A4B86
:102418004042402107403948FF1801F041F9431E66
:10242800984180214542A020354E364B3540090160
:10243800C005ED1801F034F9431E98413F19EF1912
:10244800314D404205408021A020304B4901C00554
:10245800ED1801F025F9431E9841ED1980214742F6
:10246800A0202B4C2B4B27400902C005FF1801F078
:1024780017F9431E98417D19274F284B40420821E0
:1024880007401948FF1801F00BF9431E9841244EE4
:10249800244B7F194542354010211348ED1801F0AF
:1024A800FFF8431E9841EF191F4D204B4042202151
:1024B80005400D48ED1801F0F3F8431E98418021BE
:1024C8001B4C1C4B40422040C018ED1945194900CF
:1024D800054801F0E5F8431E9841174B4042184063
:1024E800164BC0184019F8BD000400502CCFFFFF50
:1024F800D4300000589EFFFFA8610000000800507B
:10250800B03CFFFF50C300006079FEFFA0860100C9
:10251800C0F2FCFF400D030080E5F9FF801A0600B9
:1025280000CBF3FF00350C000096E7FF006A1800A7
:10253800002CCFFF00D4300000589EFF00A8610097
:1025480010B5024B186800F0B7FE10BD2C01002032
:1025580070B5040043680D001ABA0F4B1934D1182E
:102568000E4B99420ED800232A606B600C4920005C
:1025780001F07AFE6421200000F020FE01233035AE
:102588002B7070BD2000074901F08EFE64212000E9
:1025980000F014FEF5E7C0465F9F81F7DE561D0187
:1025A800FC4B0008134C0008F8B5040043681934C4
:1025B8001DBA104BE818104B984216D80A694B6997
:1025C8002E0000270E624F62B6185F4101230E608D
:1025D8004F6030310B702A002000084901F044FE9A
:1025E8006421200000F0EAFDF8BD2000044901F054
:1025F8005BFEF5E75F9F81F7B2375A00224C00086F
:10260800134C000810B54268040013BA002A0FD111
:102618000A00E8321360012330310B701549193470
:10262800200001F041FE6421200000F0C7FD16E003
:10263800012B0AD0022B10D10A00E83213600123C3
:1026480030310B7019340C49EAE70A003031E832AE
:10265800136019340B700949E2E7032B00D010BD51
:102668000A00E8321360012330310B701934044931
:10267800D6E7C0463A4C0008644C00084F4C0008A6
:10268800794C000870B50C00237811000025332B15
:1026980007D0342B08D0312B01D1FFF759FF257013
:1026A80070BDFFF781FFFAE7FFF7ACFFF7E700001F
:1026B80070B50500086A0C00FFF794FE00236361FB
:1026C800A3692061834202D1E369002B0DD000F099
:1026D80077FE00231E4AE362516901330B43A0626F
:1026E800536122696369A261E36100F069FE002316
:1026F8000200A06AE16A121A8B411100002B03D173
:10270800FA235B00994222D9A269E369A168914240
:1027180002D1E16899421AD0206A616A12184B41C5
:102728001935226063600B49280001F09DFD642182
:10273800280000F043FD23000121054A30331970B9
:1027480053698B435361A269E369A260E36070BD7A
:1027580000040050FC4B000800B593B0342200215F
:1027680005A801F078FD0021102201A801F073FDF1
:102778008020800000F0DAFF0A2340220593F63318
:10278800089300230A9205A83F3A09930B920C93E9
:1027980000F0F8FF011E01D072B6FEE70723029091
:1027A8000390049001A8019301F04CFA002801D08D
:1027B80072B6FEE713B000BDF0B59B4BF7B032AE72
:1027C8001E609A4B11AA1A60994B06AA1A60994B77
:1027D80003AA1A6000F0D4FDFFF7BEFF14220021FF
:1027E8000AA801F038FD0220934B0127596B934C3E
:1027F8000143596304215A6B02400092009A5A6BB4
:102808008F480A435A635A6B0A400192019A5A6BDD
:1028180021003A435A635B6B00223B400293029BC0
:1028280000F044FFA0200022AE21C00500F03EFFCA
:102838000A94002482480AA90B970C940D9400F07E
:1028480081FE804B80480AA90A930B940C9400F0EF
:1028580079FEA020AE230AA9C0050A930B970C9411
:102868000D9400F06FFEA020784B0AA9C0050A93CA
:102878000B940C9400F066FE9E2371485B000AA935
:102888000A930B940C9400F05DFE714D714B280077
:102898002B6082235B006B6080231B02AB60E0230C
:1028A800DB00EB6080239B00AB61FA3BFF3BEB62F4
:1028B800DB196B632C616C61EC612C626C62AC623D
:1028C8002C6301F059FB0300A04201D072B6FEE769
:1028D8006148624A8380026043618361076200F055
:1028E800CBFD002801D072B6FEE75D485D4B036062
:1028F800042343605C4BC3605C4B836000F0DCFEE8
:10290800041E01D072B6FEE7010006AA072000F0F7
:1029180073FA03A800F094FA0AA8FFF7E1FCFFF79E
:10292800F5FBE12111AA4902514800F089FC300069
:1029380000F01AF93100280000F058F90320FFF7D9
:102948003DFD2300012519004A4C6D420200001983
:102958006941060000295DD147498E425AD80420B2
:1029680032923393FFF72AFD00230200A4185D4139
:102978009D4252D141498C424FD805203A923B930F
:10298800FFF71CFD03284BD86C903A98FFF72AFDF7
:1029980000232F4D38903690349032A9280039936F
:1029A8003793359300F0D6F9A02001222021C005E5
:1029B80000F07CFE0AA8FFF765FC32A911A8FFF712
:1029C80077FE11A903A800F089FA32AA03A911A871
:1029D800FFF758FE3EAB1A78002A17D000242800CB
:1029E80032A91C7000F0B6F904232200032032A992
:1029F800FFF7AEFC0423220018003AA9FFF7A8FC51
:102A08000423220005206CA9FFF7A2FC144800F05B
:102A180085FECFE700220023A1E70023184AACE790
:102A280000236C93B1E7C046240100202C0100204C
:102A3800300100202801002000100240030200009D
:102A48000004005040C000000008005040990000F9
:102A5800C0000020003800408C00002000300240F8
:102A6800B000002000300040FF0F0000E10400002B
:102A78000024F400609F81F7E0561D01B4375A0026
:102A88004086A4080621002301220166011D8265F3
:102A9800C36543668366C366036743678367C36723
:102AA800CA6702000832D3678032136053609030DF
:102AB8000233036000487047420000980200002378
:102AC800943201001360536001229C310A60CA608D
:102AD8000200AC324B608B60B0301360033303608C
:102AE80000487047038000010300032130B502004D
:102AF8000400B43319600023C434B832136053603F
:102B08009360E16101000122094DE4312260A56072
:102B1800E36023616361A3610A600200E832136025
:102B2800203A1360EC3004330360024830BDC046DD
:102B3800FF300000E4F08F6303000322F0331A60D3
:102B4800020000230100F43213600122FC30F83146
:102B58000A6043608360C360053302600361014813
:102B68007047C046050040610022002370B502612D
:102B78004361026243620300002530331D70040084
:102B880000F01EFCE562A06270BD73B5A0260500CA
:102B980001AC0B0EF60523700B0C30006370E1706E
:102BA8000B0A00220421A37000F080FD30000022EF
:102BB800022100F07BFD012000F008FC64232100C5
:102BC8000422280001F050FA012000F0FFFB300039
:102BD8000122042100F06AFD30000122022100F0E8
:102BE80065FD322000F0F2FB73BD00000223F7B54B
:102BF80005000C0001932000FFF79EFF010028004C
:102C0800FFF7C3FF142000F0E1FB2000FFF76CFF83
:102C180001002800FFF7B9FF2000FFF74FFF010070
:102C28002800FFF7B2FF2000FFF72CFF0100280063
:102C3800FFF7ABFF03236364FA23002601271B0178
:102C4800236528000949A664E7646765FFF79DFFC7
:102C5800310028006663A663E6632664FFF795FFE4
:102C6800019BBB4200D1F7BD0197C4E701FD00609D
:102C7800F8B500F0A5FBA027FA260500FF05F60029
:102C880000F09EFB4021441B380000F009FD01289C
:102C980001D1B442F4D3F8BD03005A6B0800D10740
:102CA8009A6B10B5D20311431A6CDB6B1143DB002E
:102CB8001943FFF76AFF10BD03001A00B432080079
:102CC8001168043212684907120711431A00EC32DE
:102CD800126810B511431A00BC321268D2061143AB
:102CE8001A00C0321268920611431A00C4321268E0
:102CF800D20511431A00C8321268120511431A008E
:102D0800CC321268120311431A00D0321268D20270
:102D180011431A00D4321268920211431A00D832B1
:102D28001268520211431A00DC321268120211436F
:102D38001A00E0321268920111431A00E432126854
:102D4800E8331B6852011143DB001943FFF71DFFED
:102D580010BD0000F7B50C000600A02000222021BD
:102D68002700C00500F0A2FC0023E43731003B60D7
:102D78002000FFF7A1FF22686168D30E4D011D43B3
:102D880053010193019800232900184AFDF792FA8C
:102D98002900A06300230198144AFDF78BFA10005C
:102DA8001900FDF7C5FA0022114BFDF7DFFE0022DE
:102DB800104BFEF7DDFAFDF79DFA3100E0632000C5
:102DC800FFF76AFFFFF754FF230001250522C833E8
:102DD8001A6031003D602000FFF76EFFA0202A0036
:102DE8002021C00500F062FCF7BDC04680F0FA0261
:102DF80084D787410040AF4000239360536013603D
:102E08001373907351737047F0B503004118082588
:102E180000200A4E994200D1F0BD1A7812025040A3
:102E28002A0007B24400A0B2002F01DA7440A0B211
:102E3800013AD2B2002AF4D10133EBE721100000A5
:102E480007230372002380220380054BD2021968EE
:102E58000A431A601A6803490A401A607047C04654
:102E680000040050FFFFF7FF0B007D331B7808209C
:102E7800062B0AD90A7805387E2A06D1C9180139DD
:102E880008787F38434258410130704710B5040034
:102E980007210130FFF7B8FF238906225BBA9BB2EE
:102EA800834200D10022100010BD427803000420A4
:102EB800072A0AD19A780130002A06D11A007D32F1
:102EC800117803228A4201DB04207047985C7F282E
:102ED80001D00132F6E70920F7E7000070B50400D9
:102EE800007A0D00092841D8FDF706F90A121B1FC0
:102EF8002B292D382F050800FFF7C8FF20720FE097
:102F0800CB781D48237000F04DF90723237207E0A2
:102F1800082328001949237200F070F90028F4D119
:102F280070BD0800FFF7C1FFE8E7322000F04EFA55
:102F3800134800F037F9280000F04EF9E5E711488A
:102F4800F7E71148F5E71148F3E72000FFF78CFF92
:102F58000F492072280000F051F9E1E70D4800F010
:102F680021F9280000F038F90823CFE707230800E3
:102F7800237200F031F9D3E78E4C0008984C000812
:102F8800A64C0008B84C0008CA4C0008E24C0008DF
:102F9800EE4C0008F64C000801200A4B82B0196C70
:102FA8000143196480211A6C490502400092009A75
:102FB800DA6B0A43DA63DB6B0B400193019B02B0C7
:102FC8007047C04600100240084B026882B09A421F
:102FD80009D18020064A4001916B01439163936BAC
:102FE80003400193019B02B07047C0460030024085
:102FF8000010024030B5040089B01422002103A853
:1030080001F029F9154B22689A4225D18020144BEA
:103018000124D96BC0010143D963DA6B0225024050
:10302800A0200192019A5A6B03A922435A635B6B51
:10303800C00523400293029B0394049500F082FA92
:103048001023A0200393002303A9C005049505932A
:103058000693079400F076FA09B030BD00380040B6
:1030680000100240FEE7FEE77047704710B500F019
:103078009BF910BD0B4A0C490300891A0B4A10B57D
:103088001068002801D10A4810601068C3188B42E4
:1030980006D901F0ADF80C2303600120404210BDB1
:1030A8001360FCE700040000002000203401002029
:1030B8005001002070470000A023DB051A68194959
:1030C8000A401A608022196892030A431A601A6833
:1030D80015490A401A608022196812030A431A60C7
:1030E8008022596A52000A435A625A6A0F490A40B2
:1030F8005A625A6A0E490A405A625A6A0D490A4087
:103108005A621022596A0A4320215A625A6A8A432B
:103118005A625A6A49188A435A625A6A40318A433B
:103128005A627047FFFFEFFFFFFFFBFFFFFDFFFF46
:10313800FFFBFFFFFFF7FFFF80220A4B9200596950
:1031480010B50A4380215A61074AD4690C42FCD061
:1031580040219062D0690842FCD05A6903490A406C
:103168005A6110BD0004005000380140FFFDFFFF08
:1031780013B520200A4B0821DC69DA690C400240AB
:103188000020224382420AD0844202D01A6A1143A4
:1031980019626A465B6ADBB2D371D079C0B216BDD8
:1031A8000038014070B505000024285D002800D1D2
:1031B80070BD0134FFF7C0FFE4B2F6E770B5040054
:1031C800002908D045182078FFF7B6FF00232370A0
:1031D8000134AC42F7D170BD030000227D3310B535
:1031E8001A701300182A07DD0132642AFAD1002167
:1031F800193001F030F810BD8354F5E770B50400BC
:103208000D0000F0DDF8261DF36F0B4AC31A0020ED
:1032180093420FD92800FFF7C5FF0848FFF7C2FF00
:103228002B78002B02D02000FFF7D6FF00F0C8F85B
:10323800F067012070BDC04688130000404D0008AB
:1032480070B50E0015000400FFF736FF8022164BFC
:10325800D201196C0A431A64144A944207D1012115
:103268005A6D8A435A650222596D0A435A653100DC
:103278002000FCF755FF0C230D4C80B2E060236062
:103288002B0000227D331A702800FFF7A5FF2023AA
:103298002268134323608022064B12051A6001231B
:1032A80022681343236070BD001002400024F4001C
:1032B8000038014000E100E070B505007D352B784D
:1032C8000400182B03D9FFF787FF00232B702E78F3
:1032D800731C2B70FFF74CFFA05570BD0D48854639
:1032E800FFF7E8FE0C480D490D4A002302E0D458C8
:1032F800C4500433C4188C42F9D30A4A0A4C002338
:1033080001E013600432A242FBD300F077FFFFF71D
:1033180053FAFEE700200020000000207000002083
:10332800904D0008700000204C010020FEE70000CE
:1033380070B5104B05001978002901D1012070BD26
:10334800FA208000FCF7ECFE0B4B01001868FCF734
:10335800E7FE00F077F8041EF0D1032DEED8020046
:1033680001202900404200F043F8044B20001D6072
:10337800E5E7C04604000020000000200800002007
:103388008023084A5B00116810B50B4303201360C3
:10339800FFF7CEFF041E03D1FFF7FEFD200010BD8E
:1033A8000124FBE700200240034A044B11681B7804
:1033B8005B1813607047C0463801002004000020E5
:1033C800014B18687047C0463801002070B50400EA
:1033D800FFF7F6FF0500631C02D0044B1B78E418C6
:1033E800FFF7EEFF401BA042FAD370BD0400002097
:1033F80030B5FF2503242A000440E400A2408901D7
:103408002940D243A140C3B200280ADBC0240B4B99
:1034180080088000C018A40003591A4011430151C4
:1034280030BD0F200340083B05489B089B001B1834
:10343800D86902401143D961F2E7C04600E100E0D3
:1034480000ED00E08022431E5204012093420DD279
:10345800C021074A07485360036A09061B021B0A72
:103468000B43036200200723906013607047C04637
:1034780010E000E000ED00E010B5041E01D10120CD
:1034880010BD437FDAB2002B02D10277FFF79CFD13
:10349800022363772379002B1CD118212368124A51
:1034A8005A619A688A439A6062792368002A19D116
:1034B800013A60211A619A6800208A4361690A43C7
:1034C80080219A609A688A43A1690A439A60012315
:1034D8006377D5E72000E268A16800F007F80028C4
:1034E800E2D0CCE72269E4E7B71DC10430B51F2359
:1034F80004000120013B21D30D00DD400542F9D035
:10350800102A14D005D8002A08D00120082A12D081
:1035180030BD0120182AFBD1062BF9D8206841615B
:10352800182183688B431A4382600020F0E701204A
:10353800072BF3D9ECE70F2BF0D9E9E7002AEDD0F8
:103548000120E5E70023F0B585B00A681400DC40E7
:1035580001D105B0F0BD012514009D402C40019417
:103568002A4200D18EE04A685E00944603226446EF
:1035780022400324B440E4430294541E012C2AD868
:103588008768029C2740CC68B4403C438460446808
:103598000127AC432500644624093C409C402C4349
:1035A8004460C568029C25408C68B4402C43C460C4
:1035B800022A12D1DC080725A4000419276A0394FB
:1035C8000F241D40AD00AC40A7430C69AC40274315
:1035D800039C276201E0032AE3D10468029DB240FC
:1035E80025402C0014430460C0246246A4022242F1
:1035F80048D0254A03259C08A400A4180F221D4082
:10360800ED00AA40A027266EFF0596430022B84287
:103618000CD01E4F0132B84208D01D4F0132B842BB
:1036280004D01C4F0132B84200D00232AA4067468B
:1036380032432266144C019A2668019DD2433543D1
:10364800FF0201D435001540674625606668019D74
:103658003543BF0201D435001540674665600E4CFE
:10366800019DE66F3543BF0301D435001540674619
:10367800E5670A4C019EE56F2E43FF0301D4154010
:103688002E00E667013360E700180240000400508E
:1036980000080050000C00500818024004180240AE
:1036A80000690840431E9841C0B27047002A01D003
:1036B800816170478162FCE770B504000120002C2D
:1036C80017D02368124A07251A60124A1A606268DE
:1036D8005A60A2689A60FFF773FE06002368DA68EA
:1036E800100028402A4205D11969E26891420CD09D
:1036F8001A6170BDFFF764FE801B3128EED923687C
:10370800DB682B42EAD00320F3E7034A1A60F0E7AC
:10371800CCCC000055550000AAAA00000368024A54
:1037280000201A607047C046AAAA000010B5114CC4
:103738001149236802000B400343236080230020C3
:103748009B009A420ED10D4B0D4918680623584329
:10375800FCF7E6FC8022431CD20061690800104097
:10376800114200D110BD002B01D0013BF5E7032029
:10377800F8E7C04600700040FFF9FFFF0000002096
:1037880040420F00F0B5040085B0002823D003683C
:10379800DB0710D423689B075ED423681B0700D57A
:1037A800C3E023685B0700D5F4E0E369002B00D091
:1037B8007AE1002029E03822AF4DAB681340EA686F
:1037C800102B0AD1D243930709D12B689B03E1D56B
:1037D8006368002BDED1012017E0082BF5D080228A
:1037E80063685202934212D12A6813432B60FFF791
:1037F800E7FD80270600BF022B683B42CAD1FFF7CE
:10380800DFFD801B6428F7D9032005B0F0BDA02197
:10381800C9028B4208D180232968DB020B432B6045
:103828002B681A432A60E2E72A6894490A402A600A
:103838002A6893490A402A60002BD8D1FFF7C0FDB7
:1038480080270600BF022B683B42A3D0FFF7B8FDD4
:10385800801B6428F7D9D7E73823874DAA68134017
:10386800EA68102B28D103210A40022A26D12A68A7
:10387800520502D5E268002AADD0696862698148BC
:10388800120201400A436A60002B0DD12B687E4A60
:103898001340226913432B602B687C4A9B045B0FFF
:1038A800DA4013007A4A13607A4B1868FFF740FD34
:1038B800002800D171E78EE7002BD8D0E368002BF1
:1038C80020D02B68704A802713402269FF001343D9
:1038D8002B6080232A685B0013432B60FFF770FD81
:1038E80006002B683B4207D06A68636965491B027A
:1038F8000A4013436B6050E7FFF762FD801B022804
:10390800EFD981E72B68644A802713402B60FFF7C3
:1039180057FD0600FF002B683B4200D13DE7FFF74B
:103928004FFD801B0228F6D96EE73822524DAB684E
:103938001340182B08D12B6E9B0700D431E7A369DD
:10394800002B00D02DE746E7A2690123002A10D0FA
:103958002A6E022713432B66FFF732FD06002B6EF3
:103968003B4200D01DE7FFF72BFD801B0228F6D94C
:103978004AE72A6E02279A432A66FFF721FD0600C6
:103988002B6E3B4200D10CE7FFF71AFD801B022883
:10399800F6D939E73822384DAB681340202B08D1C7
:1039A800EB6D9B0700D400E7A368002B00D0FCE672
:1039B80011E780220021EB6B52050091134208D1D8
:1039C800EB6B1343EB63EB6B13400393039B0123F4
:1039D80000938027314E7F0033683B4215D0A3689F
:1039E800012B22D1EA6D1343EB65FFF7E9FC0227AF
:1039F8000600EB6D3B4238D0009B012B00D0D4E68B
:103A0800EB6B274A1340EB63CFE633683B433360E5
:103A1800FFF7D6FC019033683B42E0D1FFF7D0FCBA
:103A2800019BC01A0228F6D9EEE6EA6D052B05D1EE
:103A3800013B1343EB65EA6D0123D4E701218A4377
:103A4800EA65EA6D03318A43EA65002BCDD1FFF7B9
:103A5800B7FC02270600EB6D3B42CDD0FFF7B0FC68
:103A6800104B801B9842F6D9CEE6FFF7A9FC0D4B08
:103A7800801B9842BDD9C7E600100240FFFFFEFF39
:103A8800FFFFFBFFFF80FFFFFFC7FFFF0024F400DD
:103A98000000002008000020FFFEFFFF007000402B
:103AA800FFFFFFEF8813000038213F4DAA680A4046
:103AB800102A53D03D4A022B38D12B688027134057
:103AC8002B60FFF77DFC0600BF042B683B4227D123
:103AD800616A236AEA680B43354980260A40134322
:103AE800E26AB6041343226B1343A26A1202134319
:103AF800EB6080232A685B0413432B608023EA6809
:103B08005B051343EB60FFF75BFC04002B68334253
:103B180000D04EE6FFF754FC001B0228F6D973E6E6
:103B2800FFF74EFC801B0228CFD96DE62B68802654
:103B380013402B60FFF744FC0400B6042B68180000
:103B48003040334204D1EB681A4A1340EB605CE61C
:103B5800FFF736FC001B0228F0D955E6012B00D1EF
:103B680039E60322EB68216A1A408A4200D032E61D
:103B78007022616A1A408A4200D02CE6FE21A26AAD
:103B8800C90119401202914200D024E6F822E16AE4
:103B980092031A408A4200D01DE6226B5B0F5B0736
:103BA800934200D105E616E600100240FFFFFFFE33
:103BB8008C80C11FFCFFFEEF382370B51E4CA26835
:103BC8001A4205D123681D489B045B0FD84070BD7D
:103BD800A2681A40082A2AD0A2681A40102A1AD1C4
:103BE800E368E168DB434906490F7F2501319B07FC
:103BF8000CD1E36812481B0A1D40FCF791FAE168F2
:103C08006843490F0131FCF78BFAE0E7E3680B489A
:103C18001B0A1D40F1E7A2681A40202A09D0A268B1
:103C280000201340182BD2D1FA20C001CFE7044856
:103C3800CDE780200002CAE7001002400024F4000B
:103C480000127A00F7B504000D00002801D1012008
:103C5800FEBD07274A4E33683B408B422AD3216872
:103C68008B073BD4CB0748D4072733683B40AB428C
:103C78000AD93368BB432B433360FFF7A1FB01909C
:103C880033683B40AB426BD123683E4D5B076FD432
:103C9800FFF792FFAB683C4A1B051B0F9B009B5824
:103CA8001F221340D840394B1860394B1868FFF76A
:103CB8003FFBCDE73368BB430B433360FFF780FB23
:103CC800019033683B40AB42C9D0FFF779FB019BB9
:103CD800C01A304B9842F4D90320B9E7294A4B0758
:103CE80004D5E0239068DB010343936093682A4876
:103CF8000340A06803439360B4E76268214F012A38
:103D080019D13B689B03A2D50721BB688B4313439A
:103D1800BB60FFF755FB01903823BA681A40636807
:103D2800DB009A42A0D0FFF74BFB019BC01A194B4E
:103D38009842F1D9D0E7022A03D13B689B01E3D42A
:103D480085E7002A03D13B685B05DDD47FE70223C2
:103D5800032A03D1396E1942D6D178E7F96DFAE70B
:103D6800FFF72EFB019BC01A0A4B984288D9B3E78C
:103D7800AB680A4A1340E2681343AB6088E7C04661
:103D88000020024000100240004D00080000002002
:103D98000800002088130000FFF0FFFFFF8FFFFFDF
:103DA800F0B51700002285B01D0002ABDA700400E0
:103DB8000E00FFF705FBED192D1AFFF701FB232273
:103DC8002368009001932A4B1B6853431B0D6B43D8
:103DD8000393216802ABDA1C8B6818003040334229
:103DE8003BD0C023DB009E4204D1019B1B7BDBB28E
:103DF800137013787B1CEFD0FFF7E2FA009BC01A10
:103E0800A8422CD3E02123685A688A435A60822248
:103E18006168520091420CD18021A26809028A424D
:103E280003D08021C9008A4203D140211A688A43FD
:103E38001A608021A26A89018A4206D119680D4850
:103E48000140196019680A431A60230001225D3392
:103E58001A70002303205C34237005B0F0BD039B67
:103E68005A1E93415B421D40039B013BB0E7C0468D
:103E780000000020FFDFFFFFF0B50E0085B0150041
:103E88000400FFF79DFAAD192D1AFFF799FA80275C
:103E9800254B01901B685B011B0D6B430393226844
:103EA8009368180038403B4232D0731CF8D0FFF7B3
:103EB80087FA019BC01AA8422CD3E02123685A68CC
:103EC8008A435A6082226168520091420CD1802153
:103ED800A26809028A4203D08021C9008A4203D11C
:103EE80040211A688A431A608021A26A89018A429D
:103EF80006D119680D480140196019680A431A600B
:103F0800230001225D331A70002303205C342370E0
:103F180005B0F0BD039B5A1E93415B421D40039BB5
:103F2800013B0393BBE7C04600000020FFDFFFFF13
:103F380070B513000D0016000A00C02149010400E5
:103F4800FFF72EFF002805D02023226E03201343FD
:103F580023660FE0320029002000FFF78DFF0028BC
:103F6800F2D1C02133002A002000C900FFF718FF52
:103F78000028E9D170BD0000F8B504000120002C2C
:103F880067D0636A002B65D1822261685200914232
:103F980000D0E36100232500A3625D352B78DAB2F7
:103FA800002B05D123005C3320001A70FFF722F89C
:103FB800022340212B702268E56813688B43E021B7
:103FC8001360C90000238D4248D8802040018D42EB
:103FD80000D0A362822366685B0033408426A7680A
:103FE80036023E40334302262769A1693E403343E7
:103FF80001266769B44637403B438027BF000F401E
:104008003B433827E669090C37403B438027266A3B
:1040180037403B438027A66ABF0137403B431360C4
:1040280010230827666A3340666B37403B43F02706
:104038003F013D401D430423194029430843506074
:10404800D369084900200B40D361634620665D347C
:104058002370F8BD0023236163619BE7F0211800FA
:104068000901B4E7FFF7FFFFF0B51D00030085B0B5
:104078005C3301931B7804000E0017000220012B0B
:1040880000D17DE00123019A1370FFF799F923000D
:1040980000905D331A78D0B2012A00D0A5E0002E36
:1040A80068D0002F66D002321A700023A21D236642
:1040B8002364A663A787E78702329387D38723659C
:1040C800E3648023A16822681B02994208D1402139
:1040D80013688B43136080231168DB010B43136063
:1040E80040231168194202D111680B431360E02183
:1040F800E0686368C900884247D9002B01D0012FC6
:1041080007D133880236D360E38FA663013B9BB2A5
:10411800E38702260CE022689368334221D0A36B20
:1041280019880233D160A363E38F013B9BB2E38715
:10413800E38F002BEFD129002000009AFFF7F8FE4B
:1041480000284FD1A368002B06D103932368DA68AF
:1041580003929B680393039B206E431E9841C0B251
:1041680008E0FFF72DF9009BC01AA8420AD36B1C80
:10417800DED0032001235D3423700023019A1370DD
:1041880005B0F0BD002DD3D1F3E7002B01D0012FEE
:1041980008D133781373A36B0133A363E38F013B17
:1041A8009BB2E38702260DE023689A6832420DD05D
:1041B800A26B12781A73A36B0133A363E38F013BDD
:1041C8009BB2E387E38F002BEED1B4E7FFF7F8F853
:1041D800009BC01AA84202D36B1CF3D0C9E7002D7C
:1041E800F0D1C6E720232366ACE70220C2E700002F
:1041F800014B18687047C0460C00002070B50026B7
:104208000C4D0D4C641BA410A64209D1002600F0E9
:10421800A5FC0A4D0A4C641BA410A64205D170BD2A
:10422800B300EB5898470136EEE7B300EB589847D0
:104238000136F2E7884D0008884D0008884D0008CF
:104248008C4D0008002310B59A4200D110BDCC5CFB
:10425800C4540133F8E703008218934200D1704731
:1042680019700133F9E700000EB400B50B499CB092
:104278001DAB02900690079104910948094904CBA7
:104288000591006802A9019300F08AF80023029AB8
:1042980013701CB008BC03B01847C046FFFFFF7F6F
:1042A8000C0000200802FFFF03000A7801311A7091
:1042B8000133002AF9D1704730B50500101E08D027
:1042C8000024013A2B5D085D834201D1944201D15B
:1042D800181A30BD0134002BF4D1F9E7F0B58E6817
:1042E80085B007000C00039201939E423CD89023AE
:1042F8008A89DB001A4234D00969236860695B1A2D
:10430800029303234343DD0FED18019B0298013309
:104318001B186D10AB4200D91D00530532D529007A
:10432800380000F049FB061E09D10C233B604023EE
:104338000120A28940421343A38105B0F0BD029A2F
:104348002169FFF77FFFA389144A1A40802313438A
:10435800A381029B2661F61826606561019EED1A0D
:10436800A560019B9E4200D9019E320003992068F6
:1043780000F0A3FAA36800209B1BA36023689E1982
:104388002660DAE72A00380000F08CFB061EE0D130
:104398003800216900F0A4FAC7E7C0467FFBFFFF99
:1043A800F0B5A1B003901D008B890F0016001B0605
:1043B80011D50B69002B0ED1402100F0FDFA3860B1
:1043C8003861002805D10C23039A0138136021B005
:1043D800F0BD40237B61002308AC63612033637622
:1043E8001033A376079535002B78002B01D0252BA9
:1043F80047D1AB1B0593B5420CD032003900039866
:10440800FFF76CFF431C00D1AEE06269059B944640
:10441800634463612B78002B00D1A5E001220023BF
:104428005242626004A9543252186E1C2360E36041
:10443800A3601370A36505223178544800F032FA5E
:10444800751C00281FD12268D30604D5532304A95C
:104458005B1820211970130704D5532304A95B188E
:104468002B21197033782A2B16D0350000210A2009
:10447800E3682A786E1C303A092A4ED9002911D1EE
:1044880017E00135B0E7414B2268C01A0123834089
:1044980013432E002360CEE7079B191D1B68079165
:1044A800002B01DB0B9304E05B42E3600223134320
:1044B80023602B782E2B0AD16B782A2B35D1079BBA
:1044C80002351A1D1B680792002B2BDB0993304E0F
:1044D80003223000297800F0E5F9002806D04023AF
:1044E800801B834022680135134323602978062204
:1044F80028486E1C217600F0D5F900283CD0264BC0
:10450800002B25D10722079B0733934308330793D2
:104518006369049A9B18636165E743433500012189
:104528009B18A6E701235B42D0E700230A201A0064
:104538000135636029786E1C3039092903D9002BAD
:10454800C5D00992C3E74243350001235218F1E769
:1045580007AB00933A002100104B039800E000BF1E
:104568000490049B0133D3D1BB890D985B0600D41A
:104578002DE7012040422AE707AB00933A002100CB
:10458800064B039800F07CF8EAE7C0464B4D00085C
:10459800514D0008554D000800000000E542000894
:1045A800F7B5150001938A680B690C0000909342D7
:1045B80000DA130022002B6043321278002A01D05F
:1045C80001332B6023689B0602D52B6802332B60CE
:1045D8002268062317001F401A4227D023004333BE
:1045E8001B785A1E93412268920630D42200019902
:1045F8000098089E4332B047431C25D00623206804
:104608002A68E16800250340042B03D18D1AEB4387
:10461800DB171D40A3682269934201DD9B1AED1840
:104628000027BD4220D1002010E00137E3682A6846
:104638009B1ABB42D2DD2200012301990098089EF3
:104648001932B047431CF0D101204042FEBD302052
:10465800E1184331087021005A1C45310978A21825
:10466800433202331170C1E72200012301990098F7
:10467800089E1A32B047431CE6D00137D1E7000044
:10468800F0B58BB006920A00433207930590049266
:104698000A7E0C00109B782A07D8622A09D8002ABB
:1046A80000D1C1E0582A00D18CE026004236327091
:1046B80022E0100063381528F7D8FBF727FD16000D
:1046C8001F00F6FFF6FFF6FFF6FF1F00F6FFF6FFE6
:1046D800F6FFF6FFA80036009A00F6FFF6FFB900CD
:1046E800F6FF3600F6FFF6FF9E0026001A684236EF
:1046F800111D1960136833700123A7E00868196851
:104708000A1D05060BD50D681A60002D03DA2D2346
:10471800049A6D421370614B0A2703931BE00D68DE
:104728001A604106F1D52DB2EFE70D681968081D2A
:1047380018602E0601D50D6803E06D06FBD50D68DF
:10474800ADB2564B082703936F2A00D002372300D7
:10475800002243331A706368A360002B03DB042232
:10476800216891432160002D02D1049E002B0CD0BA
:10477800049E28003900FBF759FD039B013E5B5C52
:1047880033702B0005009F42F3D9082F09D1236805
:10479800DB0706D563682269934202DC3023013EB9
:1047A8003370049B9B1B2361079B21000093059892
:1047B800069B09AAFFF7F4FE431C4CD10120404296
:1047C8000BB0F0BD45310A70344A03921A6821686B
:1047D80020CA1A60080616D5CB0702D5202319432C
:1047E80021601027002DB2D1202322689A4322602D
:1047F800ADE7202209680A43226022007821453269
:104808001170274AE1E74806E6D5ADB2E4E71A6831
:104818000D68101D4969186013682E0601D51960C6
:1048280002E06D06FBD519800023049E2361BBE7D7
:104838001A68111D1960166800213000626800F0BE
:1048480031F8002801D0801B606063682361002371
:10485800049A1370A8E72369320006990598079D02
:10486800A847431CAAD023689B0715D4099BE06876
:104878009842A5DA1800A3E72200012306990598B3
:10488800079E1932B047431C98D00135E368099A4E
:104898009B1AAB42F0DCE9E70025F7E75C4D00081E
:1048A8006D4D0008C9B28218904201D100207047AE
:1048B80003788B42FBD00130F6E710B5884202D965
:1048C8008B18984203D3002307E08B5C8354013A8A
:1048D800FBD210BDCC5CC45401339A42FAD1F8E73C
:1048E80070B50500002910D00C1F2368002B00DAD2
:1048F800E418280000F018F91D4A1368002B05D1A8
:1049080063601460280000F017F970BDA34208D94D
:10491800216860188342F3D118685B6841182160E8
:10492800EEE71A005B68002B01D0A342F9D91168A1
:104938005018A0420BD12068091850181160834202
:10494800E0D118685B68411811605360DAE7A0424B
:1049580002D90C232B60D5E721686018834203D164
:1049680018685B684118216063605460CAE7C046F4
:104978003C01002070B50F4E0D003168040000297D
:1049880002D100F0BFF830602900200000F0BAF82A
:10499800431C0AD00323C51C9D43A84207D0291AEB
:1049A800200000F0AFF8431C01D101256D4228001A
:1049B80070BDC04640010020F7B50322CB1C9343CD
:1049C800083306001F000C2B32D20C27B94231D80D
:1049D800300000F0A9F8324D2B681C00002C2ED1B5
:1049E80039003000FFF7C6FF0400431C1ED12C68B5
:1049F8002500002D4AD123682900E31830000193CF
:104A080000F080F8019B834243D123680337FF1AE3
:104A180003239F4308370C2F00D20C27390030009E
:104A2800FFF7A8FF431C34D02368DF19276013E081
:104A3800002BCBDA0C23002533602800FEBD22684A
:104A4800D11B20D40B2917D9E2192760A34211D111
:104A58002A606368116053603000250000F06CF82C
:104A680007220B35231D9543EA1A9D42E5D05B1BAF
:104A7800A350E2E75A60ECE76268A34201D12A60DA
:104A8800EAE75A60E8E723006468A7E72C006D6846
:104A9800AFE70C233000336000F04EF8CDE7C04696
:104AA8003C010020F7B507000E001400002905D1CD
:104AB8001100FFF781FF05002800FEBD002A03D181
:104AC800FFF70EFF2500F7E700F03EF8019084425B
:104AD80003D835004308A342EED321003800FFF77E
:104AE8006BFF051EE8D0019B22009C4200D91A00EA
:104AF80031002800FFF7A6FB31003800FFF7F0FE71
:104B0800DAE70000002370B5064D040008002B60AA
:104B1800FEF7B0FA431C03D12B68002B00D02360AA
:104B280070BDC0464401002010B5024800F014F8DA
:104B380010BDC0464801002010B5024800F00DF82D
:104B480010BDC046480100200B1F1B68181F002B12
:104B580001DA0B58C018704770477047F8B5C0465F
:104B6800F8BC08BC9E467047F8B5C046F8BC08BCFF
:044B78009E4670479E
:104B7C00500C00083E0C00081C0C0008460C0008E9
:104B8C001C0C00081E0F00081C0C0008460C00082A
:104B9C003E0C00083E0C00081E0F0008460C0008D6
:104BAC00080C0008080C0008080C0008940F0008FA
:104BBC005E1400081C1400081C14000818140008CB
:104BCC0022140008221400082E17000818140008DC
:104BDC00221400082E1700082214000818140008CC
:104BEC00C2160008C2160008C21600089817000862
:104BFC004E6577204672657175656E6379204F75C9
:104C0C00743A2025750A004F5554204F46205241C6
:104C1C004E4745200A004E65772042617365204659
:104C2C0072657175656E63793A2025750A0050645A
:104C3C00426D206F7574203D202D345B64426D5D98
:104C4C00200A005064426D206F7574203D202D3178
:104C5C005B64426D5D200A005064426D206F757478
:104C6C00203D202B325B64426D5D200A0050644273
:104C7C006D206F7574203D202B355B64426D5D207B
:104C8C000A0044415441204F4B0D0A0053544152E9
:104C9C00545F52454144494E47004E4F54205641B3
:104CAC004C4944204652414D450D0A0057524F4E37
:104CBC0047204D4F44554C452049440D0A0057524E
:104CCC004F4E47204D4F44554C452046554E43546E
:104CDC00494F4E0D0A00435243204552524F520D3C
:104CEC000A0057414954494E4700444F4E450D0A5E
:104CFC0000000000000000000000000000000000A8
:104D0C000000000000000000000000000000000097
:104D1C000000000001000000020000000300000081
:104D2C00040000000600000007000000080000005E
:104D3C00090000002D54494D454F55540D0A0023D0
:104D4C002D302B2000686C4C00656667454647008B
:104D5C0030313233343536373839414243444546A5
:104D6C00003031323334353637383961626364653B
:044D7C0066000000CD
:084D8000E4B5FF7F0100000013
:044D8800E10000083E
:044D8C00B900000862
:104D90000024F400010000000400000010000020C6
:104DA0000000000000000000000000000000000003
:104DB00000000000000000000000000000000000F3
:104DC00000000000000000000000000000000000E3
:104DD00000000000000000000000000000000000D3
:104DE00000000000000000000000000000000000C3
:104DF00000000000000000000000000000000000B3
:04000005080032E5D8
:00000001FF
