:020000040800F2
:1000000000200020D53A0008293600082F360008C5
:1000100000000000000000000000000000000000E0
:10002000000000000000000000000000353600085D
:1000300000000000000000003F36000849360008BC
:10004000253B000800000000253B0008253B000878
:10005000253B0008253B0008253B0008253B000800
:1000600000000000253B0008253B0008253B000858
:10007000253B0008253B0008253B00080000000048
:10008000253B00080000000000000000253B0008A0
:1000900000000000253B0008253B0008253B000828
:1000A000253B0008253B0008253B000819200008D7
:0800B000253B000800000000E0
:1000B80010B5064C2378002B07D1054B002B02D036
:1000C800044800E000BF0123237010BD7000002029
:1000D80000000000E45C0008044B10B5002B03D0BE
:1000E8000349044800E000BF10BDC04600000000FE
:1000F80074000020E45C000803B47146490840001D
:100108004900095E49008E4403BC70470022430839
:100118008B4274D303098B425FD3030A8B4244D3C7
:10012800030B8B4228D3030C8B420DD3FF22090209
:1001380012BA030C8B4202D31212090265D0030BC8
:100148008B4219D300E0090AC30B8B4201D3CB03BE
:10015800C01A5241830B8B4201D38B03C01A524100
:10016800430B8B4201D34B03C01A5241030B8B4202
:1001780001D30B03C01A5241C30A8B4201D3CB02ED
:10018800C01A5241830A8B4201D38B02C01A5241D2
:10019800430A8B4201D34B02C01A5241030A8B42D5
:1001A80001D30B02C01A5241CDD2C3098B4201D3ED
:1001B800CB01C01A524183098B4201D38B01C01A6B
:1001C800524143098B4201D34B01C01A52410309E2
:1001D8008B4201D30B01C01A5241C3088B4201D391
:1001E800CB00C01A524183088B4201D38B00C01A3E
:1001F800524143088B4201D34B00C01A5241411A65
:1002080000D20146524110467047FFE701B5002071
:1002180000F006F802BDC0460029F7D076E770471F
:100228007047C0468446100062468C4619006346F3
:1002380000E0C0461FB500F0EFFB002801D4002104
:10024800C8421FBD10B500F03FFB4042013010BD51
:1002580010B500F0E1FB002801DB002010BD0120F3
:1002680010BDC04610B500F0D7FB002801DD002006
:1002780010BD012010BDC04610B500F067FB002876
:1002880001DC002010BD012010BDC04610B500F0F3
:100298005DFB002801DA002010BD012010BDC0461A
:1002A80070B500220C4B04000D00FFF7EFFF00288B
:1002B80004D12000290001F011FA70BD064B00227C
:1002C8002000290000F078FE01F008FA80231B06C0
:1002D8009C466044F1E7C0460000E041F0B557464F
:1002E8004E464546DE46E0B5814605000C0348000B
:1002F80092461F0085B0240B400DCE0F002800D178
:1003080056E1D44B984200D172E16B0FE4001C43D4
:1003180080231B0423439846CF4BED009B460023C4
:100328009946834400933C037B005046240B5B0DA5
:10033800FF0F002B00D11FE1C64A934200D162E1B2
:10034800C549420F8C46E400594614438022634451
:100358001204CB1A14439B46C200002033007B4092
:100368009A464B460F2B27D8BC499B00CB589F4633
:10037800B246009B022B16D0032B00D18EE2012B34
:1003880000D0D9E000230024002552461B05234352
:10039800D20713432800190005B0F0BCBB46B2468B
:1003A800A946A046F0BD00240025AA4BEDE7BA46B1
:1003B800A04615000090DCE7444500D2C7E100D113
:1003C800C2E101235B429C462E0040460025E344DF
:1003D8002302140E1C431B0C994623041F0C120203
:1003E800494600920197FFF717FF02007A430B0472
:1003F800310C804619438A4207D901235B429C4647
:100408000919E0448C4200D807E2881A4946FFF7E8
:1004180003FF09048C4631046646019A090C4243DD
:10042800030031438A4204D90919013B8C4200D8A0
:10043800EDE1881A424612041A4390464146009B51
:100448000E041B0C1F000293009B360C1B04190C96
:100458000B007343120C7E43039151437A431F0CE4
:10046800BC4676186644B14203D9802149028C46BD
:100478006244310C8A1831041E04360C8E199042DD
:1004880002D312D1B54210D24346591E009B9C4656
:1004980065441F009D429B415B421B19C018844262
:1004A80000D2A0E100D19BE18846AE1BB542AD4128
:1004B800801A6D42401B844200D1D5E14946FFF7BE
:1004C800ABFE019A0B044243310C050019438A42E2
:1004D80000D96CE1881A4946FFF79EFE019A360456
:1004E80042430904360C03000E43B24200D953E1DB
:1004F8000398B61A02002D041D43029F2B041B0CFF
:100508005A437B439C46290C4843130C8444634458
:100518007943984203D98020400284466144180CEC
:1005280012041B04120C41189B188E4200D2FFE0E3
:1005380000D1FAE001231D43494A5A44002A00DC4D
:10054800AAE06B0700D03DE1ED084346DB0106D584
:100558004246444B1A4090468022D2005A44424BAD
:100568009A4200DD1FE743465B071D434346520599
:100578005C02240B530D08E75246224300D17BE06E
:10058800002C00D1FAE0200001F004F902000B3A37
:100598001D2301009B1A52460839DA408C40144347
:1005A80052468A40314B58449B4683440020D5E646
:1005B8004B462343984644D0002C00D1CEE020007F
:1005C80001F0E8F8010002000B391D235B1A4946C7
:1005D8001000D940083884400B004D462343984604
:1005E80085402348831A9B460023994600939AE640
:1005F8004B46234398461DD108239946063B0025C0
:10060800834600938FE65246224309D10223494686
:100618001943184B89469C4600240220E3449DE672
:1006280003234A461A43134B91469C4652460320DD
:10063800E34493E60C239946093BA046834600937E
:1006480071E60423994600239B4601330025009355
:1006580069E6C046FF07000001FCFFFF045F0008D1
:10066800FF030000FFFFFFFEFE070000F30300008A
:100678000DFCFFFF01F8FFFF494601231943894696
:10068800002401206AE6002380249A4600258A4B2C
:1006980024037AE601256D4201239B1A382B00DDDD
:1006A80070E61F2B00DCBFE01F2149428A1A414631
:1006B800D1400A00202B04D04146804B5B4499402E
:1006C8000D436B1E9D4107232A431D00002415403E
:1006D800134200D1D4E00F2100231140042900D196
:1006E800CBE0111D9142924152429B180A00190217
:1006F80000D4C2E001230024002546E680234146B9
:100708001B03194208D01C4206D11C432403BA46D5
:100718001500694B240B38E68024434624031C4308
:100728002403B246644B240B2FE6002B00D103E7C9
:10073800A619681EA64200D28DE08E4200D2A3E020
:1007480000D1B3E00500F5E6AA4200D939E64346F0
:10075800DE0758086B081E43ED0739E6484601F0E6
:1007680019F801000200153120321C2900DC2CE7A1
:100778004B46083883400025984632E701F00AF8CE
:1007880003001A00153220301C2A00DC00E754460A
:10079800083B00229C4005E73619013BB44200D9CA
:1007A800A6E6B24200D8A3E6831E3619A0E60919C8
:1007B800013D8C4200D98DE68A4200D88AE6851E22
:1007C800091987E60F232B40042B00D1BCE605232B
:1007D8005B42AB429B4104355B42ED089844B4E66A
:1007E800AF4200D960E6824204D800D05CE6AE424F
:1007F80000D859E602235B429C46009BE0449C4695
:1008080065449D429B415B421B19C0184DE68A42D4
:1008180000D80EE6831E09190BE68A4200D8F4E5D3
:10082800831E98460919F0E52549280059448D404A
:1008380042468A40691E8D414146D840D94002430C
:100848002A430B00510700D151E70F211140042919
:1008580000D046E74BE705008E4200D06AE6009AD2
:10086800934200D066E667E6164A5A44002A00DC3E
:1008780010E701230025984467E65D075B021C0B1F
:10088800D2080023154380E50098023D42008242C9
:10089800BF417F423C1936190092DDE78024434668
:1008A80024031C432403044B240B6EE5009A9A424C
:1008B800EAD30500D3E7C046FF0700003E04000066
:1008C8001E040000FF030000F0B54E464546DE4614
:1008D80057469046E0B517001A03120B05008446E8
:1008E80019480E034C0091465A00DB0F9B46360B05
:1008F800640DC90F520D844219D0824210D00120D4
:1009080094420ED14E450CD10120C44509D1594518
:1009180017D0002C05D130002843431E984100E031
:100928000120F0BCBB46B246A946A046F0BD330044
:1009380001202B43F5D1A242F3D14B463B43F0D1E2
:10094800E2E70020EDE7C046FF070000F0B54746A4
:10095800CE460400180016001B031B0B2D4D4A0041
:10096800994680B543000F03A446B0463F0B520D8D
:10097800C90F5B0DC00FAA4221D0AB4213D0002A89
:1009880022D13C43002B02D14D462E4322D0002CCD
:1009980010D0814222D00220013908400138C0BC61
:1009A800B946B046F0BD4D462E4329D1002AF0D1B4
:1009B8003C43EED10028F2D101204042EFE73D0050
:1009C80025431DD19342EED0002BE2D14C4626435D
:1009D800DFD1E0E70020002CE1D0DCE79A420ADC16
:1009E800E8DB4F45D7D80ED000204F45D7D2002995
:1009F800E2D00800D3E74342584140000138CEE72F
:100A080002204042CBE7C445C5D80020C445C6D221
:100A1800EDE7C046FF070000F0B54746CE460400A4
:100A2800180016001B031B0B2C4D4A00994680B575
:100A380043000F03A446B0463F0B520DC90F5B0D90
:100A4800C00FAA420DD0AB4210D0002A27D13C4398
:100A5800002B11D14D462E430ED10020002C15D06D
:100A68000EE03D00254310D1934218D14D462E4348
:100A78000BD1002A02D13C43002C0BD0814214D068
:100A8800022001390840013800E00220C0BCB94604
:100A9800B046F0BD0028F9D101204042F6E7002B0E
:100AA800ECD14C462643E9D1EAE79A4204DD4342B9
:100AB800584140000138E9E79A42EBDB4F45DFD85F
:100AC80006D000204F45E1D20029E5D00800DDE737
:100AD800C445D5D80020C445D8D2F5E7FF070000A3
:100AE800F0B557464E464546DE46E0B598460C03F7
:100AF8004B000600924687B0240B5B0DCF0F002BEE
:100B080000D15CE1D94A934200D175E1420FE4007B
:100B18001443802212041443D54AC5009446634402
:100B28000093002399469B46434642461E03D20F34
:100B38005B0050469046360B5B0D00D120E1CB4A56
:100B4800934200D162E1CA49420F8C46009963443E
:100B5800F6008C46164380229C44120463461643D2
:100B6800C200002000930099434601318C46494653
:100B78007B4001930F2926D8BE4B890059588F46D0
:100B8800434601933400150083465B46022B16D07A
:100B9800032B00D103E2012B00D0CDE0002200247A
:100BA8000025019B12052243DB071A432800110088
:100BB80007B0F0BCBB46B246A946A046F0BD00242B
:100BC8000025AA4AEDE7280C2D042D0C2B00110C4A
:100BD8001204120C5343984613002F0043439946BE
:100BE8004F434F44BB4647460B003F0CBA4643436E
:100BF800DA440293D14504D980277F02B9464B4491
:100C0800029353461B0C9B4653461F0443461B0442
:100C18001B0C98463B0043440493330C3604360CB3
:100C28009846330043439946434643432F009A4628
:100C3800434677435D43380C4D444519A94503D9CC
:100C480080235B029946CA443F04280C3F0C2D04BC
:100C5800ED19270C2404240C0300200050437A4388
:100C680091463A0053440593030C9A464A4361431C
:100C780049445144AB44894503D980235B029946D2
:100C88004A4400040B0C000C09040918200099467A
:100C9800434670435C437E435F43030C9846A41964
:100CA80044444A440397A64204D980235B029846E9
:100CB800474403972304029E9A46059B5E44984640
:100CC800AE42AD4176188E4289410004000C504472
:100CD80040446D424719B846934649428946C34441
:100CE800D94498428041A845AD41934592418945F0
:100CF80089416D4240422843240C524249420A43EA
:100D0800039B00198018C7184B46DC0D049B75021D
:100D18001D436A1E95414B46F60D7F0235435A0224
:100D28003C431543FB0100D41CE101216A080D4036
:100D38001543E207154364084F496144002900DC64
:100D4800B0E06B0709D00F222A40042A05D02A1DDB
:100D5800AA42AD416D4264191500E30104D5802112
:100D6800464AC90014406144454A914200DD26E7DD
:100D78006207ED08640249051543240B4A0D10E784
:100D88005246324300D17FE0002E00D1DCE0300033
:100D980000F000FD02000B3A1D2301009B1A524689
:100DA8000839DA408E40164352468A40009B35493E
:100DB800181A03008C46634400200093D3E62500EC
:100DC80005434AD0002C00D1B0E0200000F0E2FC3E
:100DD800010002000B391D2310005B1A3100350099
:100DE80008388440D94085400C432648831A00932C
:100DF800002399469B4697E60500254326D10822FD
:100E080000930223002491469B468DE65246009BA0
:100E1800324310D1154900268C4663444946009355
:100E280002231943894602209DE65B460197022B5F
:100E380000D0ADE6C3E60D4A0320944663444A4613
:100E4800009303231A43914652468CE60C220093E2
:100E58000323050091469B4666E604239946002332
:100E68000093013300249B465EE6C046FF0700005E
:100E780001FCFFFF445F0008FF030000FFFFFFFEC7
:100E8800FE0700000DFCFFFF494601231943894670
:100E98000026012067E6002380240025434A0193A9
:100EA80024037EE60120401A382800DD76E61F2854
:100EB8005BDD1F2223005242511ACB401900202823
:100EC80003D03B4A6244944025436A1E95412A0058
:100ED8000A4307210D000024154011425BD00F2161
:100EE80000241140042953D0111D914292415242CD
:100EF800A4180A0023024BD501220024002550E63D
:100F080080231B031C4209D01E4207D133431C0314
:100F180043461500240B254A019342E6802212031A
:100F280014432403214A240B01973AE600F032FCCB
:100F380001000200153120321C2900DC4BE7340087
:100F480008380025844050E700F024FC03001A000C
:100F5800153220301C2A00DC1EE75646083B0022CA
:100F68009E4023E7009B9C46E6E612492200614426
:100F78002E008D408A40C640691E8D4132432A4367
:100F8800C4405307B6D00F2111400429ACD1B1E7B2
:100F980065076402240BD2081543002201E680226B
:100FA800120314432403014A240BFAE5FF07000047
:100FB8003E0400001E040000F8B557464E4645465C
:100FC800DE46E0B51E0017004A000B03520D5B0A0F
:100FD8009046420F1A43CD0FCD4C3103C3009446BF
:100FE80070007A0F490AFF009A46B946400DF60F7D
:100FF8001143A04200D1B1E001225640B346B542A8
:1010080000D188E04246121A002A00DCAEE000282F
:1010180000D1C1E0BE48804500D151E180200004E4
:101028000143382A00DD7BE11F2A00DDEEE12020A4
:101038003E00801A0C00D640D1408740624684406A
:10104800521A781E8741944634432743DC1BA34237
:101058009B4162465B42D31A99464B461B0200D419
:1010680018E14B465802430A99464B46002B00D1DB
:1010780037E1484600F08EFB0100083920232200A2
:1010880048465B1ADA4088408C40434610438845FE
:1010980000DD36E1C91A4B1C1F2B00DDEAE02022D7
:1010A8002600D21A01009440DE40D8400023914027
:1010B800621E94418146984631430C43630709D028
:1010C8000F232340042B05D0231DA342A4416442CF
:1010D800A1441C004B461B0200D4DEE041468C4B69
:1010E8000131994200D1E7E04B468A48E4080340C1
:1010F800180049055B07400223434A0D040B1205FB
:10110800ED0722432A4318001100F0BCBB46B24643
:10111800A946A046F8BD4246121A002A52DD002808
:1011280000D19CE0A04500D1CAE080200004014322
:10113800382A00DD49E11F2A00DC97E110000E0083
:101148002038C640202A04D04020821A91400F43FC
:10115800B9464C46621E944134433AE10A003A4388
:1011680028D0B346B5422BD06B4A4244002A5DD002
:1011780042464446821A002C00D0F5E065461D43DD
:1011880000D19CE1551E012A00D1FBE1604CA2422E
:1011980000D1BDE12A00F0E00800384300D1C3E0E7
:1011A800501E012A00D1A8E1594CA24200D187E083
:1011B800020036E701225640B346B54200D021E787
:1011C800554A4244002A00D1B5E042464446821AB4
:1011D800002C00D138E14E4EB04200D1DEE180262D
:1011E800644636043443A446382A00DD96E11F2AB3
:1011F80000DD24E22026B41AA24664465646B440CE
:10120800A1461C004E46D440264334005646B340FF
:101218005E1EB3411C436346D340C918E419BC425F
:10122800BF417F42B94680468944D8E040463B4C9E
:101238000130204200D0B4E04046002800D044E10C
:101248006046184300D190E10800384300D0AAE175
:101258006146DB0849070B436146CC0827E00800D4
:10126800384361D0501E012A00D139E1A24227D06B
:1012780002005DE702001F39CA401100202B03D08D
:101288004022D31A98400443631E9C410023994688
:1012980098460C43630700D012E74B464A46E408D9
:1012A8005B072343D408424619498A420ED02403D7
:1012B8005205240B520D22E70A00002400231EE7E2
:1012C800DB086246520713436246D4081A002243D9
:1012D80000D1FCE180221203144324030C4A240B9E
:1012E8000DE7200000F056FA010018311F2900DC34
:1012F800C4E608388440434620000024884500DCC2
:10130800C8E6044A5B1A104098468146D6E6C046AD
:10131800FF070000FFFF7FFF01F8FFFFFE07000047
:101328000F437A1E974191E66146DB0849070B4354
:101338006146CC08B8E74046D34C0130204200D083
:10134800A2E04046002800D001E16046184300D1E1
:101358005EE10800384300D05FE16146DB084907D9
:101368000B436146CC08A2E7C84DA84200D1CFE0A4
:10137800802564462D042C43A446382A56DC1F2AAF
:1013880000DDD1E020251E00AD1A6446AB40AC401C
:10139800D6405D1EAB41344323436446D440091B09
:1013A80049E06046DC1B461AA34280414042814620
:1013B80030004E46801B8146000276D44B462343BC
:1013C80000D052E60024002571E739430C00621E64
:1013D8009441E4189C429B415B42634499464B46C6
:1013E8001B0200D456E701239C46A84BE0449845CD
:1013F80038D04B46A6480122034018006308144021
:101408001C43C3071C434308994657E610000E00C7
:101418002038C640202A04D04020821A91400F4329
:10142800B9464F467A1E974137430FE662461A433C
:1014380013005A1E9341FC1AA742BF417F42CB1B9F
:1014480099465D46804608E666461E4300D1BEE0E2
:10145800561E012A00D109E18C4CA24200D119E1A3
:101468003200C1E642460024002348E620200C0052
:10147800801A3E0087408440D640781E8741D1407C
:1014880034433C438C44A4E7804A904200D1E9E0CD
:10149800DF199F429B4161445B42C918CC077F0812
:1014A8004B08994680463C43F4E6FC1AA742BF41E4
:1014B80063467F42C91ACB1B99465D46D5E5FF08AE
:1014C8004B075D463B43CC08EEE662461A4300D024
:1014D80082E00B003B431BD1802400252403F9E65E
:1014E800DC199C429B41614489465B4299444B46C6
:1014F8001B0244D401239846CCE6DC1B6246A34277
:101508009B41511A5B42CB1A994601239846A4E5A0
:10151800FF084B075D463B43CC08D7E662461A43B3
:101528001400631E9C4179E615006446203DEC409A
:10153800A046202A05D040256446AA1A9440234391
:101548009A465446631E9C414346234373E76246CA
:101558001A4323D00A003A4300D0A0E06246DB08D1
:10156800520713436246D408B0E60B003B4300D150
:1015780028E7FF084B075D463B43CC0897E6022364
:10158800984636E7FC1AA742BF4163467F42C91A0C
:10159800CB1B994601235D4698465EE54B07FF083D
:1015A8003B43CC0892E6DC1B6046A342B641401A96
:1015B8007642801B8146000260D5FC1AA742BF41D3
:1015C80063467F42C91ACB1B99465D4676E5FF08FC
:1015D8004B073B43CC0867E60A00DB083A4300D1D7
:1015E8006FE66246520713436246D408802212030C
:1015F800144207D0C808104204D15D460400FB0815
:1016080049070B435A0FDB00DB08520713435DE61B
:101618004B07FF083B43CC0849E6DC199C429B4139
:10162800614489465B4299444B461B0200D431E62B
:101638004A46174B1A400123914698462AE6160057
:101648006446203EF440A046202A05D04026644641
:10165800B21A944023439A465446631E9C4143461B
:101668001C43DBE502000024002348E5DC19BC42EA
:10167800BF41614489467F42B94438E74B4623431A
:1016880000D19FE606E6C046FE070000FF070000FF
:10169800FFFF7FFFFF084B073B43CC0816E6624677
:1016A800DB08520713436246D4088022120314420F
:1016B80007D0C808104204D15D460400FB0849075A
:1016C8000B435A0FDB005207DB081343FEE50023E8
:1016D800014A1C0013E5C046FF0700000A0030B5A8
:1016E800134C530009030500090B00205B0DD20FB2
:1016F800A34204DD0F48834202DD0F4BD01830BDF2
:101708008020400301430D48C01A1F2808DD0C48FB
:10171800C31AD9400B005842002AF0D11800EEE74E
:10172800084CC540A446634499400B002B43F2E79C
:10173800FE0300001D040000FFFFFF7F33040000CC
:1017480013040000EDFBFFFF10B5041E10D000F0DD
:1017580021F80F4B1B1A0A2811DC0B222100121A40
:10176800D14015300A035B058440120B5B0D01E084
:10177800002300221B0513432000190010BD22007E
:101788000B3882405B0512030024120B5B0DF1E756
:101798001E0400001C2101231B04984201D3000CE5
:1017A80010391B0A984201D3000A08391B099842CC
:1017B80001D30009043902A2105C40187047C046E2
:1017C8000403020201010101000000000000000002
:1017D80080B500AF00F03CF8184BDA6B174B80214E
:1017E80089030A43DA63164B1A68154B01218A43A9
:1017F8001A60134B134A1A61134B9A68124B134918
:101808000A409A60104BDA680F4B10490A40DA60B8
:101818000D4B1A680C4B04210A431A600A4B1A68CC
:10182800094B02210A431A60074B1A68064B01212B
:101838000A431A60C046BD4680BDC046001002403B
:10184800005400405B3D300000580040FF7FFFFF20
:1018580080B500AF2B4B5A6B2A4B02210A435A63BF
:10186800294B1A68284B29490A401A60264B1A68DE
:10187800254B802189010A431A60234B1A68224BA1
:1018880023490A401A60204B1A681F4B802109021D
:101898000A431A601C4B1A6A1B4B1E490A401A62FB
:1018A800194B1A6A184BF02149050A431A62164B5C
:1018B8001A6A154BF02189050A431A62124B1A6AF3
:1018C800114B15490A401A620F4B1A6A0E4B120146
:1018D80012091A620C4B1A6A0B4BE02109060A43DB
:1018E8001A62094B1A6A084BC02109060A431A6290
:1018F800054B1A6A044B520052081A62C046BD468C
:1019080080BDC0460010024000040050FFEFFFFFFA
:10191800FFBFFFFFFFFFFFF0FFFFFF8780B586B027
:1019280000AF39601100FB1D021C1A70BB1D0A1C98
:101938001A7002F071F903003B610F23FB180022B3
:101948001A70BB1D1A78FB1D1B780121180000F0C6
:1019580041F800237B6127E002F05EF902003B6951
:10196800D31A142B06D91A4B1A68194B01218A432A
:101978001A602AE0164B9B69042213405A425341CD
:10198800DBB219000F23FB181B7801225340DBB28E
:101998000B40E1D10E4B596A7B693A68D318CAB239
:1019A8001A707B6901337B61BB1D1B787A699A4287
:1019B800E0DBC046064B9B6920221340FAD0044B5B
:1019C800DA69034B20210A43DA61BD4606B080BDBF
:1019D8000054004090B583B000AF04000800110027
:1019E800FB1D221C1A70BB1D021C1A707B1D0A1CD1
:1019F8001A70214B1A68204B01210A431A601E4BAA
:101A08005B689B0A9902FB1D1A781B4B0A435A60B4
:101A1800194B5B68194A1A407B1D1B781B04190077
:101A2800154B0A435A60144B5A68134B802189049A
:101A38000A435A60BB1D1B78012B07D10E4B5A680D
:101A48000D4B8021C9000A435A6009E0BB1D1B7871
:101A5800002B05D1084B5A68074B09490A405A60C0
:101A6800054B5A68044B802189010A435A60C046D5
:101A7800BD4603B090BDC04600540040FFFF00FFC4
:101A8800FFFBFFFF80B584B000AF39601100FB1D7C
:101A9800021C1A70BB1D0A1C1A70BB1D1A78FB1D8C
:101AA8001B7800211800FFF795FF02F0B5F8030036
:101AB800BB600023FB6022E002F0AEF80200BB68C6
:101AC800D31A142B06D9184B1A68174B01218A43CD
:101AD8001A6025E0144B9B6902221340ECD0124B8C
:101AE8009B6AFF2293431A00FB683968CB181B785E
:101AF80019000D4B0A439A62FB680133FB60BB1D5A
:101B08001B78FA689A42E5DBC046074B9B6920229E
:101B18001340FAD0044B9A69034B20210A439A6177
:101B2800BD4604B080BDC0460054004080B582B0B8
:101B380000AF7860A023DB051A68A023DB058021AD
:101B4800C9010A431A60A023DB051A68A023DB0534
:101B580011490A401A60114B1A68104B01210A43B7
:101B68001A600E4B1A680D4B02218A431A600B4B00
:101B78001A680A4B04210A431A60084B1A68074B73
:101B880008218A431A607B68180000F039F8C046BB
:101B9800BD4602B080BDC046FF7FFFFF0004005075
:101BA80080B582B000AF786002F036F802007B683A
:101BB8001B68D21AFA239B009A4205D902F02CF826
:101BC80002007B681A6014E002F026F802007B68C5
:101BD8001B68D31A322B06D9084B5A69074B0221C6
:101BE8008A435A6105E0054B5A69044B02210A43AE
:101BF8005A61C046BD4602B080BDC04600040050D0
:101C080080B582B000AF78607B680022DA607B68BC
:101C180000225A607B6800229A6001F0FDFF0200F2
:101C28007B681A607B6800221A617B6800229A61CF
:101C38007B6800225A61C046BD4602B080BD0000E4
:101C480090B585B000AF0400396010001900FB1D85
:101C5800221C1A70BB1D021C1A707B1D0A1C1A70EC
:101C68000C217B18134A12781A70FB1D1B78DB00B5
:101C78001AB2BB1D1B781BB213431AB20E203B18B5
:101C88001A803B181B88DAB27B181A707B1801225D
:101C98001900A020FFF7F6FE052001F0C7FF7B1D05
:101CA8001A783B681900A020FFF738FEC046BD46E9
:101CB80005B090BDFC5C0008F0B597B000AFB96303
:101CC80011001E003F23FA18031C13703E23FA1854
:101CD8000B1C13703D23FA18331C13706B461E003F
:101CE8003D23FB181B785A1C531E7B651300BB61F0
:101CF8000023FB61B869F96903005B0F9C460B0080
:101D0800DD0063461D430300DC0013003B61002334
:101D18007B613869796903005B0F0C00E4007C6320
:101D28007C6B1C437C630300DB003B6313000733BD
:101D3800DB08DB006A46D31A9D466B460033FB641A
:101D48003D23FB181B781A00013ABA64BB600022D5
:101D5800FA60B868F9680200520F0C00E400FC62EF
:101D6800FC6A1443FC620200D200BA623B600022A3
:101D78007A60386879680200520F0C00E4007C62CF
:101D88007C6A14437C620200D2003A620733DB08A3
:101D9800DB006A46D31A9D466B4600337B643D23BD
:101DA800FB181C783E23FB181A78796C3F23FB1824
:101DB80018782300FFF744FF3D23FB181A78796C45
:101DC800BB6B180003F02EFB031E2BD03F23FB1820
:101DD8001B78DB005AB23E23FB181B785BB2134317
:101DE8005BB2DAB2FB6C1A7000233B650AE03B6D0C
:101DF800BA6BD2183B6D01331178FA6CD1543B6D34
:101E080001333B653D23FB181B783A6D9A42EEDBA4
:101E18003D23FB181B780133DAB2FB6C1900A020B4
:101E2800FFF730FE062001F001FFB546C046BD466B
:101E380017B0F0BD80B586B000AF0200FB1D1A7068
:101E48000C217B1800221A6000237B617918FB1D86
:101E5800187804230022FFF7F3FE00233B6110E00B
:101E68000C23FA183B69D3181B781A003B69DB006E
:101E78009A4013001A007B6913437B613B69013365
:101E88003B613B69032BEBDD7B691800BD4606B05F
:101E980080BD000080B584B000AF78600023FB608F
:101EA8004F4B0421180002F0D1F9031E01D0002382
:101EB80000E04C4B1A00FB689B18FB6080235A001B
:101EC800A023DB051100180002F0C0F9031E01D0A1
:101ED800002300E0444B1A00FB689B18FB60434B4F
:101EE8004021180002F0B2F9031E01D0002300E0DF
:101EF8003F4B1A00FB689B18FB6080231A01A02344
:101F0800DB051100180002F0A1F9031E01D000231F
:101F180000E0384B1A00FB689B18FB6080235A01CD
:101F2800A023DB051100180002F090F9031E01D070
:101F3800002300E0304B1A00FB689B18FB608023ED
:101F48001A02A023DB051100180002F07FF9031E16
:101F580001D0002300E0294B1A00FB689B18FB60A6
:101F68001F4B0821180002F071F9031E01D000234D
:101F780000E0234B1A00FB689B18FB60184B1021EC
:101F8800180002F063F9031E01D0002300E01D4B86
:101F98001A00FB689B18FB60114B2021180002F007
:101FA80055F9031E01D0002300E0174B1A00FB6807
:101FB8009B18FB6080235B00094A1900100002F09F
:101FC80045F9031E01D0002300E0104B1A00FB68FE
:101FD8009B18FB60FB681800BD4604B080BDC04676
:101FE80000040050D4300000A86100000008005030
:101FF80050C30000A0860100400D0300801A0600AF
:1020080000350C00006A180000D4300000A86100F8
:1020180080B500AF034B1B68180001F0C5FCC04633
:10202800BD4680BD1801002080B584B000AF78603F
:1020380039600023FB607B681B791B06FB607B68AB
:102048005B791B041A00FB681343FB607B689B7970
:102058001B021A00FB681343FB607B68DB791A00DC
:10206800FB681343FB60FB68164A934217D9FB6869
:10207800154A934213D83B68FA681A607B6819338B
:10208800FA681249180003F0ADF97B681933642126
:10209800180001F0D1FC3B6801221A760DE07B683C
:1020A80019330B4A1100180003F09CF97B681933A7
:1020B8006421180001F0C0FCC046C046BD4604B00B
:1020C80080BDC046A0607E087FB79B09005D000800
:1020D800185D000880B584B000AF786039600023CF
:1020E800FB607B681B791B06FB607B685B791B04C4
:1020F8001A00FB681343FB607B689B791B021A007C
:10210800FB681343FB607B68DB791A00FB681343A9
:10211800FB60FB68194A93421ED9FB68184A934230
:102128001AD83B68FA681A613B689A683B681B6969
:10213800D2183B681A603B6801221A767B6819330B
:10214800FA681049180003F04DF97B6819336421C7
:10215800180001F071FC0DE07B6819330A4A110080
:10216800180003F03FF97B6819336421180001F067
:1021780063FCC046C046BD4604B080BDA0607E0872
:102188005398D808285D0008185D000880B582B00B
:1021980000AF786039603B68D0229B58002B0FD184
:1021A8007B68193318003B681A683B681B69264925
:1021B80003F018F97B6819336421180001F03CFC1E
:1021C8003B68D0229B58012B0FD17B68193318002C
:1021D8003B681A683B681B691C4903F003F97B6874
:1021E80019336421180001F027FC3B68D0229B5862
:1021F800022B0FD17B68193318003B681A683B68BB
:102208001B69134903F0EEF87B6819336421180041
:1022180001F012FC3B68D0229B58032B0FD17B683E
:10222800193318003B681A683B681B69094903F0B1
:10223800D9F87B6819336421180001F0FDFBC0460A
:10224800BD4602B080BDC046405D0008785D00080C
:10225800B05D0008E85D000880B584B000AF786024
:1022680039600023FB607B681B791B06FB607B6879
:102278005B791B041A00FB681343FB607B689B793E
:102288001B021A00FB681343FB607B68DB791A00AA
:10229800FB681343FB60FB68002B05D13A687B6839
:1022A80011001800FFF772FFC046BD4604B080BD9C
:1022B80080B584B000AF786039600023FB607B682C
:1022C8001B791B06FB607B685B791B041A00FB68A3
:1022D8001343FB607B689B791B021A00FB6813435E
:1022E800FB607B68DB791A00FB681343FB60FB68C3
:1022F800002B13D13B68D022002199503B68012262
:102308001A767B6819332A4A1100180003F06AF814
:102318007B6819336421180001F08EFBFB68012BE0
:1023280013D13B68D022012199503B6801221A76CB
:102338007B6819331F4A1100180003F053F87B68B3
:1023480019336421180001F077FBFB68022B13D1C5
:102358003B68D022022199503B6801221A767B689B
:102368001933154A1100180003F03CF87B6819333B
:102378006421180001F060FBFB68032B13D13B6854
:10238800D022032199503B6801221A767B681933C1
:102398000A4A1100180003F025F87B6819336421F4
:1023A800180001F049FBC046BD4604B080BDC046D8
:1023B800205E0008385E0008505E0008685E00086D
:1023C80080B584B000AFF860B9607A60BB681B78EC
:1023D800342B26D02FDC332B19D02CDC312B02D018
:1023E800322B0AD027E07A68FB6811001800FFF743
:1023F8001BFEBB6800221A7021E07A68FB68110096
:102408001800FFF729FFBB6800221A7017E07A68E6
:10241800FB6811001800FFF75DFEBB6800221A7008
:102428000DE07A68FB6811001800FFF741FFBB68F0
:1024380000221A7003E0BB6800221A70C046C0462A
:10244800BD4604B080BD000080B582B000AF7860A2
:1024580039603B681B691800FFF71CFD02003B68E8
:102468009A603B689A683B68DB689A420ED001F034
:10247800D3FB02003B685A61204B5A691F4B01216C
:102488000A435A613B689A683B68DA6001F0C4FB0A
:1024980002003B685B69D21AFA235B009A4228D98A
:1024A8003B68DA683B685B689A4222D03B68DA6826
:1024B8003B681B69D2183B681A607B68193318009F
:1024C8003B681A680E4B190002F08CFF7B681933C1
:1024D8006421180001F0B0FA3B6801221A76074B14
:1024E8005A69064B01218A435A613B68DA683B689E
:1024F8005A60C046BD4602B080BDC04600040050C8
:10250800005D0008F0B5EFB000AF864BB4243A196F
:102518001A60854B14257A191A60844B3A1D1A6083
:10252800834BD6267600BA191A6001F0F9FA00F042
:102538000FF900F0BDF900F07BF900F055F93B1DEB
:102548001A000021072000F005FEBB19180000F052
:1025580085FE9823FB181800FFF7E8FAFFF738F90B
:102568007A19E1235B027348190001F069F93B19F4
:10257800180000F029FC3A196F4B1100180000F000
:1025880084FC0320FFF756FC02006C4BDC21490059
:102598005B18DB191A60694B5B18DB191B68684A02
:1025A800934206D9654B5B18DB191B68654A934251
:1025B80006D9624BDC2252009B18DB1900221A60F4
:1025C8000420FFF737FC02005C4BDC2149005B1854
:1025D800DB191A61594B5B18DB191B69584A93427E
:1025E80006D9564B5B18DB191B69574A934206D923
:1025F800524BDC2252009B18DB19544A1A61052001
:10260800FFF718FC02004D4BDC2040001B18DB19BB
:10261800D0215A50494B01005B18DB19D0229B5836
:10262800032B05D9454B5B18DB19D02201219950A2
:10263800424BDC2464001B19DB191B691800FFF7E7
:1026480029FC02003D4B21005B18DB19DA603B4B8B
:102658005B18DB19DA68394B5B18DB199A60374B62
:102668005B18DB19DA68354B5B18DB195A60B42440
:102678003A19314B1100180000F0FEFCA023DB05CD
:1026880001222021180001F0FEFD3A191423FB183D
:1026980011001800FFF77AFD9823FB181800FFF7C0
:1026A8007FFAB4243A1914257B1911001800FFF792
:1026B800CBFE7A19D6267600BB191100180000F057
:1026C8005FFE3A19B9197B191800FFF779FE1B4B01
:1026D800DC2252009B18DB191B7E002BDCD0174B29
:1026E8009B18DB1900221A763A19134B11001800AF
:1026F80000F0C2FC3919042300220320FFF7DCFA9A
:102708003B1910331900042300220420FFF7D4FAE0
:102718003B19D0331900042300220520FFF7CCFA17
:10272800BAE7C04614010020180100201C0100204F
:10273800200100200024F400B0000020FCFEFFFF70
:102748009F607E0880B79B095498D8084086A408E3
:1027580090B593B000AF14243B19180034231A0025
:10276800002102F037FE3B1D180010231A0000213B
:1027780002F030FE80239B00180001F0A1FD3B19F8
:102788000A221A603B1980225200DA6021007B1865
:1027980000221A617B1840225A617B1801229A6133
:1027A8007B180022DA617B18180001F0C9FD031EAE
:1027B80001D000F01FF93B1D07221A603B1D0022C3
:1027C8005A603B1D00229A603B1D0022DA603B1DC7
:1027D8000021180002F0C4F8031E01D000F00AF925
:1027E800C046BD4613B090BD80B500AF0E4B0F4A32
:1027F8001A600D4B00221A710B4B00225A710A4BBA
:1028080000225A61084B00229A61074B01221A6282
:10281800054B180001F0E2FA031E01D000F0EAF8B7
:10282800C046BD4680BDC0468C0000200030024036
:1028380080B500AF1C4B1D4A1A601B4B8222520008
:102848005A60194B802212029A60174BE022D2007C
:10285800DA60154B00221A61134B00225A61124BA1
:10286800802292009A61104B0022DA610E4B0022FE
:102878001A620D4B00225A620B4B00229A620A4BD5
:102888000722DA62084B00221A63074B08225A63B0
:10289800054B180002F0EEF9031E01D000F0AAF86B
:1028A800C046BD4680BDC046B0000020003800408C
:1028B80090B589B000AF0C243B19180014231A00F6
:1028C800002102F087FD454B5A6B444B02210A4315
:1028D8005A63424B5B6B02221340BB60BB683F4BA1
:1028E8005A6B3E4B04210A435A633C4B5B6B0422F0
:1028F80013407B607B68394B5A6B384B01210A4384
:102908005A63364B5B6B012213403B603B6834498A
:10291800344B0022180001F0B6FCA023DB0500228E
:10292800AE21180001F0AFFC3B192D4A1A603B1983
:1029380001225A603B1900229A603B190022DA6092
:102948003B19284A1900100001F01CFB3B19264AC4
:102958001A603B1900225A603B1900229A603B1901
:10296800224A1900100001F00DFB3B19AE221A6033
:102978003B1901225A603B1900229A603B19002238
:10298800DA603A19A023DB051100180001F0FAFA01
:102998003B19174A1A603B1900225A603B1900225A
:1029A8009A603A19A023DB051100180001F0EAFA31
:1029B80021007B189E2252001A607B1800225A6060
:1029C8007B1800229A607B18064A1900100001F053
:1029D800D9FAC046BD4609B090BDC04600100240B5
:1029E800030200000004005040C00000000800502E
:1029F8004099000080B500AF72B6C046FEE780B5CA
:102A080082B000AF78607B680022DA617B680022C0
:102A18001A627B6800225A627B6800229A627B688D
:102A2800DB69DA077B681B6ADB031A437B685B6A2E
:102A3800DB001A437B689B6A13431800BD4602B04B
:102A480080BD80B582B000AF78607B680322DA620F
:102A58007B6800221A637B6801225A637B68FA222A
:102A680012019A637B680122DA637B68DB6A5A0782
:102A78007B681B6BDB061A437B685B6BDB031A43C3
:102A88007B689B6BDB001A437B68DB6B1343180086
:102A9800BD4602B080BD80B582B000AF78607B686B
:102AA80001221A647B6800225A647B6806229A64B1
:102AB8007B680022DA647B6800221A657B68002242
:102AC8005A657B6800229A657B680022DA657B6814
:102AD80000221A667B6800225A667B6801229A6681
:102AE8007B680022DA667B6800221A677B6800220E
:102AF8005A677B6802229A677B681B6CDA077B68D7
:102B08005B6C5B071A437B689B6C9B061A437B686C
:102B1800DB6C5B061A437B681B6D1B061A437B68DC
:102B28005B6D9B031A437B689B6D5B031A437B6851
:102B3800DB6D5B021A437B681B6E1B021A437B68C2
:102B48005B6EDB011A437B689B6E9B011A437B68B3
:102B5800DB6E5B011A437B681B6F1B011A437B68A2
:102B68005B6FDB001A437B689B6F13431800BD46FD
:102B780002B080BD80B582B000AF78607B6800226B
:102B8800DA677B688022002199507B6884220121C2
:102B980099507B688822002199507B688C220021FB
:102BA80099507B689022012199507B6894220021DA
:102BB80099507B689822032199507B68DB6F9A06AD
:102BC8007B6880215B585B061A437B6884215B58CD
:102BD8001B061A437B6888215B589B041A437B6851
:102BE8008C215B585B041A437B6890215B58DB039C
:102BF8001A437B6894215B58DB001A437B68982151
:102C08005B5813431800BD4602B080BD80B582B042
:102C180000AF78607B689C22032199507B68A022D2
:102C2800002199507B68A422002199507B68A82232
:102C3800002199507B68AC22012199507B68B4220D
:102C4800394999507B68B822002199507B68BC2289
:102C5800002199507B68C022002199507B68C422CA
:102C6800002199507B68C822032199507B68CC22A7
:102C7800012199507B68D022012199507B68B022AC
:102C8800002199507B68D422042199507B689C22AA
:102C98009B585A077B68A0215B581B071A437B681F
:102CA800A4215B58DB061A437B68A8215B589B0666
:102CB8001A437B68AC215B58DB051A437B68B0215B
:102CC8005B581B051A437B68B4215B581B031A43E6
:102CD8007B68B8215B58DB021A437B68BC215B58D0
:102CE8009B021A437B68C0215B585B021A437B68CE
:102CF800C4215B581B021A437B68C8215B589B019F
:102D08001A437B68CC215B585B011A437B68D0214E
:102D18005B58DB001A437B68D4215B5813431800C7
:102D2800BD4602B080BDC046FF30000080B582B00D
:102D380000AF78607B68D822032199507B68DC2239
:102D4800002199507B68E022012199507B68E42298
:102D5800012199507B68E822002199507B68EC2278
:102D6800002199507B68F022002199507B68F42259
:102D7800052199507B68D8229B585A077B68DC212B
:102D88005B585B061A437B68E0215B581B061A43B5
:102D98007B68E4215B589B051A437B68E8215B58F4
:102DA8009B041A437B68EC215B589B011A437B68A0
:102DB800F0215B58DB001A437B68F4215B5813430E
:102DC8001800BD4602B080BD80B582B000AF786003
:102DD8007B6800229A607B6800221A617B68002267
:102DE8001A7600F019FF02007B685A61C046BD469A
:102DF80002B080BD90B585B000AF786039600C2412
:102E08003B1900221A603B681B0EDAB23B191A7094
:102E18003B681B0CDAB23B195A703B681B0ADAB2E2
:102E28003B199A703B68DAB23B19DA70A023DB05CC
:102E380000220421180001F026FAA023DB05002255
:102E48000221180001F01FFA012000F0EFFE3919E5
:102E580078686423042201F0C5FF012000F0E6FE33
:102E6800A023DB0501220421180001F00CFAA0239D
:102E7800DB0501220221180001F005FA322000F0DA
:102E8800D5FEC046BD4605B090BD80B584B000AF44
:102E9800786039600023FB6041E03B681800FFF769
:102EA80045FF02007B6811001800FFF7A3FF1420FC
:102EB80000F0BCFE3B681800FFF7A8FE02007B6824
:102EC80011001800FFF796FF3B681800FFF752FE45
:102ED80002007B6811001800FFF78CFF3B681800A0
:102EE800FFF7D9FD02007B6811001800FFF782FF89
:102EF8003B681800FFF7A5FD02007B681100180069
:102F0800FFF778FF3B681800FFF779FD02007B6840
:102F180011001800FFF76EFFFB680133FB60FB68C8
:102F2800012BBADDC046C046BD4604B080BD90B591
:102F380085B000AF0F23FB1801221A7000F06CFE59
:102F480003007B600023BB600FE000F065FE020019
:102F58007B68D31ABB600F23FC18A023DB05402134
:102F6800180001F073F9030023700F23FB181B7876
:102F7800012B04D1BA68FA23DB009A42E5D3C04694
:102F8800BD4605B090BD80B584B000AF78603960AB
:102F98007B68DB69DA077B681B6ADB031A437B689B
:102FA8005B6ADB001A437B689B6A1343FB60FA6821
:102FB8003B6811001800FFF71DFFC046BD4604B06E
:102FC80080BD80B584B000AF786039600023FB60B5
:102FD8007B689C229B585A077B68A0215B581B077B
:102FE8001A437B68A4215B58DB061A437B68A82137
:102FF8005B589B061A437B68AC215B58DB051A4378
:103008007B68B0215B581B051A437B68B4215B5869
:103018001B031A437B68B8215B58DB021A437B68A1
:10302800BC215B589B021A437B68C0215B585B023A
:103038001A437B68C4215B581B021A437B68C8216A
:103048005B589B011A437B68CC215B585B011A4390
:103058007B68D0215B58DB001A437B68D4215B581E
:103068001343FB60FA683B6811001800FFF7C2FEC3
:10307800C046BD4604B080BD80B584B000AF78605E
:103088003960A023DB0500222021180001F0FBF89D
:103098003B68CC22002199507A683B6811001800DF
:1030A800FFF78FFF3B681B685B0127491800FDF796
:1030B8002DF803001A003B681A623B681B685B0125
:1030C80021491800FDF7A8F80B001800FEF73CFB93
:1030D80002000B00BA60FB6000221C4BB868F9685C
:1030E800FDF7FCF802000B00100019000022184B35
:1030F800FDF7F6FC02000B0010001900FDF7D0F8F0
:1031080002003B685A627A683B6811001800FFF7B2
:103118003AFFFFF70CFF3B68B022052199503B6846
:10312800CC22012199507A683B6811001800FFF7FA
:1031380048FFA023DB0501222021180001F0A3F895
:10314800C046BD4604B080BD80F0FA0284D78741EE
:103158000040AF4080B582B000AF3A60FB1D021C52
:103168001A70BB1D0A1C1A703B6800229A603B68E3
:1031780000225A603B6800221A603B6800221A73DA
:103188003B68FA1D12789A733B68BA1D12785A7315
:10319800C046BD4602B080BD80B584B000AF78603F
:1031A8000A00FB1C1A700A23FB182B4A1A800C23EE
:1031B800FB1800221A800F23FB1800221A703DE02A
:1031C8000F23FB181B787A68D3181B789BB21B0255
:1031D80099B20C22BB18BA1812884A401A800E23DA
:1031E800FB1800221A701EE00C217B1800229B5E3F
:1031F800002B0CDA7B181B885B001AB20A23FB1819
:1032080000201B5E53401AB27B181A8005E00C237D
:10321800FA18FB181B88DB1813800E217B181A7804
:103228007B1801321A700E23FB181B78072BDBD989
:103238000F217B181A787B1801321A700F23FA189D
:10324800FB1C12781B789A42BAD30C23FB181B88F4
:103258001800BD4604B080BD2110000080B582B0C2
:1032680000AF78607B6800225A707B6807221A7268
:103278007B6800221A70084B1A68074B8021C90224
:103288000A431A60044B1A68034B04490A401A603F
:10329800C046BD4602B080BD00040050FFFFF7FFE6
:1032A80080B582B000AF786039603B687D229B5C56
:1032B800062B13D93B681B787E2293420CD13B68BE
:1032C8007D229B5C013B3A68D35C7F22934201D10B
:1032D800022304E0012302E0032300E0082318008E
:1032E800BD4602B080BD80B584B000AF78607B6811
:1032F8001B7A1B02FB607B685B7A1A00FB6813432E
:10330800FB607B68013307211800FFF745FF0300C6
:10331800BB60BA68FB689A4201D1002300E006232B
:103328001800BD4604B080BD80B584B000AF786099
:103338007B685B78072B1CD17B689B78002B16D1A8
:103348000323FB600BE07A68FB68D3181B787F22A5
:10335800934201D109230FE0FB680133FB607B68CE
:103368007D229B5C1A00FB689342ECDB03E005239B
:1033780002E0042300E004231800BD4604B080BD29
:1033880080B582B000AF786039607B681B7A092B02
:1033980000D981E09A00474BD3181B689F463B68C9
:1033A8001800FFF7A0FF03001A007B681A727CE080
:1033B8003B68DA787B681A703F4B180000F018FBFE
:1033C8007B6807221A7270E07B6808221A723B4AEF
:1033D8003B681100180000F091F9031E64D07B6867
:1033E80007221A7260E03B681800FFF79DFF030090
:1033F8001A007B681A7258E0322000F017FC304B34
:10340800180000F0F5FA3B68180000F03BFB7B68F9
:1034180007221A7249E02B4B180000F0E9FA3B68C2
:10342800180000F02FFB7B6807221A723DE0264B3C
:10343800180000F0DDFA3B68180000F023FB7B68F9
:1034480007221A7231E0214B180000F0D1FA3B68CC
:10345800180000F017FB7B6807221A7225E03A680B
:103468007B6811001800FFF71BFF03001A007B6838
:103478001A72174A3B681100180000F03FF914E06F
:10348800144B180000F0B4FA3B68180000F0FAFA80
:103498007B6808221A7208E07B6807221A723B6868
:1034A800180000F0EFFA00E0C046C046BD4602B082
:1034B80080BDC046845F0008805E00088C5E0008FE
:1034C8009C5E0008B05E0008C45E0008DC5E000870
:1034D800E85E0008F05E000880B582B000AF0F4BD0
:1034E8001A6C0E4B01210A431A640C4B1B6C012207
:1034F80013407B607B68094BDA6B084B80214905D8
:103508000A43DA63054BDA6B80235B0513403B60A3
:103518003B68C046BD4602B080BDC04600100240B0
:1035280080B584B000AF78607B681B680A4A934214
:103538000DD10A4B9A6B094B802149010A439A63C2
:10354800064B9A6B80235B011340FB60FB68C04607
:10355800BD4604B080BDC0460030024000100240A5
:1035680090B58BB000AF786014243B191800142371
:103578001A00002101F02EFF7B681B68264A93423F
:1035880046D1264BDA6B254B8021C9010A43DA6301
:10359800224BDA6B8023DB0113403B613B691F4BF5
:1035A8005A6B1E4B01210A435A631C4B5B6B012269
:1035B8001340FB60FB683B1901221A603B19022289
:1035C8005A603B1900229A603B190022DA603B19C5
:1035D80000221A613A19A023DB051100180000F037
:1035E800D1FC21007B1810221A607B1802225A6035
:1035F8007B1800229A607B180022DA607B1801226F
:103608001A617A18A023DB051100180000F0BAFC33
:10361800C046BD460BB090BD0038004000100240C7
:1036280080B500AFFEE780B500AFFEE780B500AF1C
:10363800C046BD4680BD80B500AFC046BD4680BD12
:1036480080B500AF00F0D6FAC046BD4680BD000088
:1036580080B586B000AF7860144A154BD31A7B61E9
:103668007B693B61134B1B68002B02D1114B124A3B
:103678001A60104B1A687B68D3183A699A4207D2C5
:1036880001F07EFE03000C221A6001235B4209E070
:10369800084B1B68FB60074B1A687B68D218054B00
:1036A8001A60FB681800BD4606B080BD00200020E7
:1036B80000040000240100204001002080B500AF74
:1036C800C046BD4680BD000080B582B000AF020094
:1036D800FB1D1A70FB1D1B787F2B09D8FB1D1B785F
:1036E8001A001F231A40044B012191400A001A6056
:1036F800C046BD4602B080BD00E100E080B582B0A2
:1037080000AF7860396000F087FA02007B6880219A
:103718005B58D31A0F4A934217D93B68180000F038
:1037280067F90D4B180000F063F93B681B78002B14
:1037380003D07B68180000F0A5F900F06DFA0200CC
:103748007B6880215A50012300E000231800BD4601
:1037580002B080BD88130000F85E000880B500AF95
:10376800A023DB051A68A023DB0530490A401A604C
:10377800A023DB051A68A023DB05802189030A43FF
:103788001A60A023DB051A68A023DB0528490A4034
:103798001A60A023DB051A68A023DB058021090332
:1037A8000A431A60A023DB055A6AA023DB0580219F
:1037B80049000A435A62A023DB055A6AA023DB05A5
:1037C8001C490A405A62A023DB055A6AA023DB057C
:1037D80019490A405A62A023DB055A6AA023DB056F
:1037E80016490A405A62A023DB055A6AA023DB0562
:1037F80010210A435A62A023DB055A6AA023DB057D
:1038080020218A435A62A023DB055A6AA023DB05DC
:1038180040218A435A62A023DB055A6AA023DB05AC
:1038280080218A435A62C046BD4680BDFFFFEFFF34
:10383800FFFFFBFFFFFDFFFFFFFBFFFFFFF7FFFFA2
:1038480080B586B000AFF860B9607A6000237B610C
:10385800FFF784FF1F4B1A6C1E4B8021C9010A43D6
:103868001A64FB681C4A93420BD11A4B5A6D194BC8
:1038780001218A435A65174B5A6D164B02210A4398
:103888005A65B968F868FCF741FC03007B617B69FD
:103898009AB2124BDA60114B0C221A607B687D22B7
:1038A800002199547B68180000F0ECF80B4B1A685B
:1038B8000A4B20210A431A601B20FFF705FF074B1C
:1038C8001A68064B01210A431A60C046BD4606B075
:1038D80080BDC046001002400024F40000380140BA
:1038E80080B582B000AF0200FB1D1A70104B5A69F8
:1038F8000F4B802189000A435A61C0460D4BDB6992
:1039080080221340FAD00B4BFA1D12789A62C046F7
:10391800084BDB6940221340FAD0054B5A69044B27
:1039280005490A405A61C046BD4602B080BDC0463E
:103938000004005000380140FFFDFFFF80B582B051
:1039480000AF184BDB6908221A40FB1D511E8A4143
:103958001A70144BDB6920221A40BB1D511E8A4184
:103968001A70BB1D1B78002B03D1FB1D1B78002B85
:1039780012D0FB1D1B78002B05D00A4B1A6A094B85
:1039880008210A431A62074B5B6ADAB27B1D1A7078
:103998007B1D1B78DBB200E000231800BD4602B097
:1039A80080BDC0460038014090B583B000AF786054
:1039B8007B687D229B5C182B07D97B68180000F078
:1039C80061F87B687D22002199547B687D229B5C8D
:1039D8005A1CD0B27A687D2150541C00FFF7AEFF04
:1039E80003001A007B681A55C046BD4603B090BD57
:1039F80090B585B000AF78600F23FB1800221A70CD
:103A08000DE00F243B191B787A68D3181B7818002F
:103A1800FFF766FF3B191A783B1901321A700F231A
:103A2800FB181B787A68D3181B78002BE9D1C0469D
:103A3800C046BD4605B090BD80B584B000AF786083
:103A48000A00FB1C1A70FB1C1B78002B16D00023E5
:103A5800FB600EE0FB687A68D3181B781800FFF744
:103A68003FFFFB687A68D31800221A70FB6801339D
:103A7800FB60FB1C1B78FA689A42EBDBC046BD462C
:103A880004B080BD80B584B000AF78607B687D22CB
:103A9800002199540023FB6010E0FB68182B04DC1C
:103AA8007A68FB68D31800221A707A68FB68D31802
:103AB800193300221A70FB680133FB60FB68632B23
:103AC800EBDDC046C046BD4604B080BD0D48854606
:103AD800FFF7F4FD0C480D490D4A002302E0D458C5
:103AE800C4500433C4188C42F9D30A4A0A4C002340
:103AF80001E013600432A242FBD301F047FCFEF759
:103B080001FDFEE7002000200000002070000020DA
:103B180028600008700000203C010020FEE700003B
:103B280080B582B000AFFB1D00221A700B4B1A68DB
:103B38000A4B802149000A431A60032000F010F85C
:103B4800031E03D0FB1D01221A7001E0FFF7C4FC1D
:103B5800FB1D1B781800BD4602B080BD0020024046
:103B680090B585B000AF78600F23FB1800221A705B
:103B78001D4B1B78002B2BD01C4B1C681A4B1B7839
:103B88001900FA239800FCF7C1FA03001900200075
:103B9800FCF7BCFA0300180000F013F9031E12D159
:103BA8007B68032B0AD8796801235B42002218003E
:103BB80000F0F2F80E4B7A681A600DE00F23FB183C
:103BC80001221A7008E00F23FB1801221A7003E083
:103BD8000F23FB1801221A700F23FB181B781800FB
:103BE800BD4605B090BDC04608000020000000207A
:103BF8000400002080B500AF054B1B781A00054B68
:103C08001B68D218034B1A60C046BD4680BDC0462B
:103C1800080000202801002080B500AF024B1B6877
:103C28001800BD4680BDC0462801002080B584B07C
:103C380000AF7860FFF7F0FF0300BB607B68FB60B4
:103C4800FB68013305D00A4B1B781A00FB689B18E8
:103C5800FB60C046FFF7E0FF0200BB68D31AFA68B2
:103C68009A42F7D8C046C046BD4604B080BDC0469B
:103C78000800002090B583B000AF02003960FB1D3A
:103C88001A70FB1D1B787F2B28D82F4AFB1D1B7829
:103C98005BB29B08C0339B009B58FA1D1278110039
:103CA80003220A40D200FF2191400A00D2431A4061
:103CB80011003B689B01FF221A40FB1D1B7818006E
:103CC80003230340DB009A401F48FB1D1B785BB2AF
:103CD8009B080A43C0339B001A5031E01B4AFB1D66
:103CE8001B7819000F230B40083B9B0806339B00E9
:103CF800D31804331B68FA1D1278110003220A40F6
:103D0800D200FF2191400A00D2431A4011003B68BB
:103D18009B01FF221A40FB1D1B7818000323034058
:103D2800DB009A400948FB1D1B781C000F23234029
:103D3800083B9B080A4306339B00C31804331A60E8
:103D4800C046BD4603B090BD00E100E000ED00E0D4
:103D580080B582B000AF78607B685A1E80235B0410
:103D68009A4201D3012310E00A4B7A68013A5A605B
:103D780001235B4203211800FFF77CFF054B00225B
:103D88009A60044B07221A6000231800BD4602B04F
:103D980080BDC04610E000E080B584B000AFB960D7
:103DA8007A600F217B18021C1A70BA687B181B787E
:103DB8005BB211001800FFF75DFFC046BD4604B0B6
:103DC80080BD80B582B000AF78607B681800FFF7CF
:103DD800BFFF03001800BD4602B080BD80B582B0A9
:103DE80000AF78607B68002B01D1012356E07B6827
:103DF8005B7FDBB2002B06D17B6800221A777B68D9
:103E08001800FFF78DFB7B6802225A777B681B79C5
:103E1800002B0CD17B681B68224A5A617B681B689F
:103E28009A687B681B6818218A439A600BE07B6854
:103E380099687B68DA687B68180000F035F8031E1B
:103E480001D001232AE07B685B79002B05D17B68D0
:103E58001B68012252421A6104E07B681B687A6879
:103E680012691A617B681B689B686022934319007A
:103E78007B685A697B681B680A439A607B681B6881
:103E88009B688022934319007B689A697B681B684A
:103E98000A439A607B6801225A7700231800BD46BE
:103EA80002B080BDB71DC10480B586B000AFF86010
:103EB800B9607A601723FB1800221A701F233B6130
:103EC800C0463B695A1E3A61002B08D03B691F2245
:103ED8001340BA68DA40130001221340F1D07B681E
:103EE800182B0FD07B68182B24D87B68102B11D087
:103EF8007B68102B1ED87B68002B20D07B68082B92
:103F080010D017E03B69062B1BD91723FB18012299
:103F18001A7016E03B69072B15D91723FB180122E5
:103F28001A7010E03B690F2B0FD91723FB180122D9
:103F38001A700AE01723FB1801221A7006E0C0461F
:103F480004E0C04602E0C04600E0C0461723FB1864
:103F58001B78002B0ED1FB681B68BA685A61FB6896
:103F68001B689B68182293431900FB681B687A68D2
:103F78000A439A601723FB181B781800BD4606B041
:103F880080BD000080B586B000AF7860396000233E
:103F98007B6147E13B681B6801217A6991400A000F
:103FA8001340FB60FB68002B00D138E13B685B687D
:103FB80003221340012B05D03B685B6803221340A2
:103FC800022B30D17B689B683B617B695B000322D5
:103FD8009A401300DA433B6913403B613B68DA6857
:103FE8007B695B009A4013003A6913433B617B6825
:103FF8003A699A607B685B683B6101227B699A40F9
:104008001300DA433B6913403B613B685B681B095B
:1040180001221A407B699A4013003A6913433B61B5
:104028007B683A695A603B685B6803221340032B3C
:1040380017D07B68DB683B617B695B0003229A4091
:104048001300DA433B6913403B613B689A687B691C
:104058005B009A4013003A6913433B617B683A69F5
:10406800DA603B685B6803221340022B23D17B692B
:10407800DA087B6808329200D3583B617B690722D3
:1040880013409B000F229A401300DA433B69134008
:104098003B613B681A697B6907210B409B009A408A
:1040A80013003A6913433B617B69DA087B6808327D
:1040B80092003969D1507B681B683B617B695B0062
:1040C80003229A401300DA433B6913403B613B6883
:1040D8005B6803221A407B695B009A4013003A69C7
:1040E80013433B617B683A691A603B685A68C0238E
:1040F8009B02134000D192E0504A7B699B08183319
:104108009B009B583B617B6903221340DB000F2215
:104118009A401300DA433B6913403B617A68A02355
:10412800DB059A4213D07B68454A93420DD07B68E1
:10413800444A934207D07B68434A934201D1032300
:1041480006E0052304E0022302E0012300E0002347
:104158007A6903210A40D20093403A6913433B61CC
:1041680036497B699B0818339B003A695A50334B90
:104178001B683B61FB68DA433B6913403B613B6862
:104188005A6880235B03134003D03A69FB681343E2
:104198003B612A4B3A691A60284B5B683B61FB68B4
:1041A800DA433B6913403B613B685A6880239B03B1
:1041B800134003D03A69FB6813433B611F4B3A69CC
:1041C8005A601E4A8423D3583B61FB68DA433B6933
:1041D80013403B613B685A6880239B02134003D01D
:1041E8003A69FB6813433B61144984223B698B504D
:1041F800124A8023D3583B61FB68DA433B6913407A
:104208003B613B685A6880235B02134003D03A69DC
:10421800FB6813433B61094980223B698B507B69EA
:1042280001337B613B681A687B69DA40131E00D052
:10423800B0E6C046C046BD4606B080BD0018024084
:104248000004005000080050000C005080B584B0F5
:1042580000AF78600A00BB1C1A807B681B69BA1C17
:104268001288134004D00F23FB1801221A7003E0B0
:104278000F23FB1800221A700F23FB181B78180055
:10428800BD4604B080BD80B582B000AF786008003C
:104298001100BB1C021C1A807B1C0A1C1A707B1C98
:1042A8001B78002B04D0BB1C1A887B689A6103E03A
:1042B800BB1C1A887B689A62C046BD4602B080BDA6
:1042C80080B584B000AF7860194B1B68194A134059
:1042D8001900174B7A680A431A607A6880239B0092
:1042E8009A421FD1144B1A6813005B009B185B009D
:1042F80012491800FBF70AFF03000133FB6008E0CE
:10430800FB68002B03D0FB68013BFB6001E0032343
:1043180009E0074B5A698023DB001A408023DB0041
:104328009A42EDD000231800BD4604B080BDC046B7
:1043380000700040FFF9FFFF0000002040420F001E
:1043480080B588B000AF78607B68002B01D101236D
:10435800F3E27B681B680122134000D17CE0C34B69
:104368009B6838221340BB61C04BDB6803221340B3
:104378007B61BB69102B02D17B69032B02D0BB691F
:10438800082B0BD1B94B1A6880239B02134062D0CB
:104398007B685B68002B5ED10123CEE27B685A689C
:1043A80080235B029A4207D1B04B1A68AF4B802139
:1043B80049020A431A6020E07B685A68A023DB029E
:1043C8009A420ED1A94B1A68A84B8021C9020A4308
:1043D8001A60A64B1A68A54B802149020A431A6045
:1043E8000BE0A24B1A68A14BA1490A401A609F4BE7
:1043F8001A689E4B9F490A401A607B685B68002BCD
:1044080014D0FFF709FC03003B6108E0FFF704FC48
:1044180002003B69D31A642B01D903238DE2934B25
:104428001A6880239B021340F0D015E0FFF7F4FBD5
:1044380003003B6108E0FFF7EFFB02003B69D31A7A
:10444800642B01D9032378E2884B1A6880239B02E6
:104458001340F0D100E0C0467B681B68022213407D
:1044680000D199E0814B9B6838221340BB617F4B98
:10447800DB68032213407B61BB69102B02D17B6987
:10448800022B02D0BB69002B35D1784B1A688023E8
:10449800DB00134005D07B68DB68002B01D10123CA
:1044A8004BE2724B5B68744A134019007B685B6986
:1044B8001A026E4B0A435A60BB69002B12D16B4B30
:1044C8001B686E4A134019007B681A69674B0A43D8
:1044D8001A60664B1B68DB0A07221340684ADA40F9
:1044E800684B1A60684B1B681800FFF739FB031EFE
:1044F80051D0012321E27B68DB68002B30D05B4B75
:104508001B685E4A134019007B681A69574B0A43B7
:104518001A60564B1A68554B802149000A431A60A5
:10452800FFF77AFB03003B6108E0FFF775FB020029
:104538003B69D31A022B01D90323FEE14B4B1A68BE
:104548008023DB001340F0D0484B5B684A4A134095
:1045580019007B685B691A02444B0A435A601BE0E6
:10456800424B1A68414B49490A401A60FFF754FB0D
:1045780003003B6108E0FFF74FFB02003B69D31AD9
:10458800022B01D90323D8E1384B1A688023DB00BA
:104598001340F0D100E0C0467B681B680822134036
:1045A80047D0324B9B6838221340182B0AD12F4B27
:1045B8001B6E022213403CD07B689B69002B38D1CC
:1045C8000123BAE17B689B69002B19D0274B1A6E2F
:1045D800264B01210A431A66FFF71EFB03003B61C5
:1045E80008E0FFF719FB02003B69D31A022B01D937
:1045F8000323A2E11D4B1B6E02221340F1D018E0E9
:104608001A4B1A6E194B01218A431A66FFF704FBED
:1046180003003B6108E0FFF7FFFA02003B69D31A89
:10462800022B01D9032388E1104B1B6E0222134091
:10463800F1D17B681B680422134000D1C6E01F2318
:10464800FB1800221A70094B9B6838221340202B54
:104658001ED1064BDB6D0222134000D1B6E07B6809
:104668009B68002B00D0B1E0012366E100100240F6
:10467800FFFFFEFFFFFFFBFFFF80FFFFFFC7FFFFFE
:104688000024F4000000002004000020FFFEFFFFCB
:10469800AC4BDA6B80235B05134001D1012300E0AA
:1046A8000023002B11D0A74BDA6BA64B80214905BC
:1046B8000A43DA63A34BDA6B80235B051340FB6084
:1046C800FB681F23FB1801221A709F4B1A6880236E
:1046D8005B0013401AD19C4B1A689B4B8021490000
:1046E8000A431A60FFF798FA03003B6108E0FFF7F6
:1046F80093FA02003B69D31A022B01D903231CE168
:10470800914B1A6880235B001340F0D07B689B684C
:10471800012B06D18B4BDA6D8A4B01210A43DA65EE
:104728001CE07B689B68052B0CD1864BDA6D854BAA
:1047380004210A43DA65834BDA6D824B01210A436F
:10474800DA650BE07F4BDA6D7E4B01218A43DA652F
:104758007C4BDA6D7B4B04218A43DA657B689B6866
:10476800002B14D0FFF758FA03003B6109E0FFF76C
:1047780053FA02003B69D31A744A934201D90323BE
:10478800DBE0704BDB6D02221340F0D013E0FFF743
:1047980043FA03003B6109E0FFF73EFA02003B6978
:1047A800D31A6A4A934201D90323C6E0654BDB6DED
:1047B80002221340F0D11F23FB181B78012B05D1CF
:1047C800604BDA6B5F4B62490A40DA637B68DB69EE
:1047D800002B00D1B0E05B4B9B6838221340102BB4
:1047E80000D178E07B68DB69022B53D1554B1A68FE
:1047F800544B58490A401A60FFF70EFA03003B6110
:1048080008E0FFF709FA02003B69D31A022B01D925
:10481800032392E04B4B1A6880239B041340F0D18A
:10482800484BDB684C4A134019007B681A6A7B685E
:104838005B6A1A437B689B6A1B021A437B68DB6AC4
:104848001A437B681B6B1A433E4B0A43DA603D4BA5
:104858001A683C4B802149040A431A60394BDA68CC
:10486800384B802149050A43DA60FFF7D5F9030080
:104878003B6108E0FFF7D0F902003B69D31A022B2D
:1048880001D9032359E02F4B1A6880239B04134056
:10489800F0D051E02B4B1A682A4B2E490A401A6077
:1048A800FFF7BAF903003B6108E0FFF7B5F902002A
:1048B8003B69D31A022B01D903233EE0214B1A6826
:1048C80080239B041340F0D11E4BDA681D4B23490B
:1048D8000A40DA6030E07B68DB69012B01D10123F3
:1048E8002BE0184BDB687B617B6903221A407B68ED
:1048F8001B6A9A421ED17B6970221A407B685B6AE8
:104908009A4217D17A69FE23DB011A407B689B6AB9
:104918001B029A420ED17A69F8239B031A407B68DE
:10492800DB6A9A4206D17B695B0F5A077B681B6B6F
:104938009A4201D0012300E000231800BD4608B0C8
:1049480080BDC0460010024000700040881300007F
:10495800FFFFFFEFFFFFFFFE8C80C11FFCFFFEEF94
:1049680080B584B000AF786039607B68002B01D1D6
:104978000123E9E0764B1B68072213403A689A4204
:104988001ED9734B1B68072293431900704B3A6872
:104998000A431A60FFF740F90300FB6009E0FFF7DC
:1049A8003BF90200FB68D31A6A4A934201D90323F0
:1049B800CAE0674B1B68072213403A689A42EED157
:1049C8007B681B680222134015D07B681B68042291
:1049D800134006D0604B9A685F4BE021C9010A4337
:1049E8009A605D4B9B685D4A134019007B689A6822
:1049F800594B0A439A607B681B680122134057D0C1
:104A08007B685B68012B07D1534B1A6880239B0294
:104A180013402BD1012397E07B685B68022B07D1F9
:104A28004D4B1A6880239B0413401FD101238BE050
:104A38007B685B68002B07D1474B1A688023DB0033
:104A4800134013D101237FE07B685B68032B06D1F9
:104A5800414B1B6E0222134008D1012374E03E4BE8
:104A6800DB6D0222134001D101236DE03A4B9B68B4
:104A78000722934319007B685A68374B0A439A60A8
:104A8800FFF7CAF80300FB6009E0FFF7C5F802006A
:104A9800FB68D31A2F4A934201D9032354E02E4BC3
:104AA8009B6838221A407B685B68DB009A42ECD12D
:104AB800274B1B68072213403A689A421ED2244BA0
:104AC8001B68072293431900214B3A680A431A606E
:104AD800FFF7A2F80300FB6009E0FFF79DF802006A
:104AE800FB68D31A1B4A934201D903232CE0184BC5
:104AF8001B68072213403A689A42EED17B681B680C
:104B08000422134009D0144B9B68154A134019001E
:104B18007B68DA68104B0A439A6000F029F80100B4
:104B28000D4B9B681B0A0F221A400E4B9200D3585C
:104B38001F2213400A00DA400B4B1A600B4B1B680C
:104B48001800FFF70DF803001800BD4604B080BD3B
:104B5800002002408813000000100240FFF0FFFF11
:104B6800FF8FFFFFAC5F000800000020040000205A
:104B780080B586B000AF3C4B9B68382213400FD1FC
:104B8800394B1B68DB0A0722134001229A401300A5
:104B98003B6039683548FBF7B9FA03003B615DE0D3
:104BA800314B9B6838221340082B02D1304B3B61B4
:104BB80054E02D4B9B6838221340102B38D12A4BD8
:104BC800DB6803221340FB60274BDB681B090722C5
:104BD80013400133BB60FB68032B0DD1B96824482F
:104BE800FBF794FA030019001F4BDB681B0A7F22AE
:104BF80013404B437B610DE0B9681C48FBF786FA0C
:104C080003001900184BDB681B0A7F2213404B4333
:104C18007B61C046144BDB685B0F072213400133EE
:104C28007B6079687869FBF771FA03003B6115E0EE
:104C38000D4B9B6838221340202B03D180231B0285
:104C48003B610BE0084B9B6838221340182B03D1BB
:104C5800FA23DB013B6101E000233B613B6918005B
:104C6800BD4606B080BDC046001002400024F400D6
:104C780000127A0080B584B000AF78607B68002BA2
:104C880001D10123A8E07B685B6A002B09D17B680E
:104C98005A6882235B009A4209D07B680022DA6155
:104CA80005E07B6800221A617B6800225A617B68F4
:104CB80000229A627B685D229B5CDBB2002B07D1E5
:104CC8007B685C22002199547B681800FEF748FC39
:104CD8007B685D22022199547B681B681A687B688F
:104CE8001B6840218A431A607B68DA68E023DB008E
:104CF8009A4202D90023FB6002E080235B01FB603B
:104D08007B68DA68F0231B019A4208D07B68DA686E
:104D1800E023DB009A4202D07B6800229A627B681B
:104D28005A6882235B001A407B68996884231B02B7
:104D38000B401A437B681B6902210B401A437B68AE
:104D48005B6901210B401A437B68996980239B00AA
:104D58000B401A437B68DB6938210B401A437B6898
:104D68001B6A80210B401A4311007B689A6A8023D2
:104D78009B011A407B681B680A431A607B689B6921
:104D88001B0C04221A407B685B6A10210B401A43F3
:104D98007B685B6B08210B401A437B68D968F0235A
:104DA8001B010B401A431100FA6880235B011A406B
:104DB8007B681B680A435A607B681B68DA697B68F2
:104DC8001B6807490A40DA617B6800221A667B681B
:104DD8005D220121995400231800BD4604B080BD0E
:104DE800FFF7FFFF80B588B000AFF860B9603B609F
:104DF800BB1D1A801F23FB1800221A70FB685C2257
:104E08009B5C012B01D1022340E1FB685C2201215C
:104E18009954FEF701FF0300BB611623FB18BA1D66
:104E280012881A80FB685D229B5CDBB2012B04D0E0
:104E38001F23FB1802221A701DE1BB68002B03D048
:104E4800BB1D1B88002B04D11F23FB1801221A70DD
:104E580011E1FB685D2203219954FB6800221A6660
:104E6800FB68BA689A63FB68BA1D12889A87FB6860
:104E7800BA1D1288DA87FB6800221A64FB6844228C
:104E880000219952FB68462200219952FB680022B2
:104E98001A65FB680022DA64FB689A6880231B02A3
:104EA8009A4210D1FB681B681A68FB681B6840218E
:104EB8008A431A60FB681B681A68FB681B688021B4
:104EC800C9010A431A60FB681B681B68402213402B
:104ED800402B07D0FB681B681A68FB681B684021D9
:104EE8000A431A60FB68DA68E023DB009A424ED96D
:104EF800FB685B68002B04D01623FB181B88012B6A
:104F08003FD1FB689B6B1A88FB681B68DA60FB68FB
:104F18009B6B9A1CFB689A63FB68DB8F9BB2013B17
:104F28009AB2FB68DA872CE0FB681B689B68022250
:104F38001340022B12D1FB689B6B1A88FB681B6815
:104F4800DA60FB689B6B9A1CFB689A63FB68DB8FD3
:104F58009BB2013B9AB2FB68DA8712E0FEF75CFE6F
:104F68000200BB69D31A3A689A4202D83B680133F7
:104F780002D13B68002B04D11F23FB1803221A70AF
:104F880079E0FB68DB8F9BB2002BCDD14FE0FB684B
:104F98005B68002B04D01623FB181B88012B41D11A
:104FA800FB689A6BFB681B680C3312781A70FB68F5
:104FB8009B6B5A1CFB689A63FB68DB8F9BB2013BB7
:104FC8009AB2FB68DA872DE0FB681B689B680222AF
:104FD8001340022B13D1FB689A6BFB681B680C33D8
:104FE80012781A70FB689B6B5A1CFB689A63FB6803
:104FF800DB8F9BB2013B9AB2FB68DA8712E0FEF7BF
:105008000BFE0200BB69D31A3A689A4202D83B6881
:10501800013302D13B68002B04D11F23FB18032264
:105028001A7028E0FB68DB8F9BB2002BCCD1BA69E1
:105038003968FB68180000F05DF9031E02D0FB68B0
:1050480020221A66FB689B68002B0AD100233B616B
:10505800FB681B68DB683B61FB681B689B683B61FE
:105068003B69FB681B6E002B04D01F23FB18012231
:105078001A7000E0C046FB685D2201219954FB6864
:105088005C22002199541F23FB181B781800BD4689
:1050980008B080BD80B588B000AFF860B9603B60EB
:1050A800FB1D1A70FEF7B8FD0200BB6A9B1A3A682E
:1050B800D318FB61FEF7B0FD0300BB613A4B1B68D8
:1050C8005B011B0DFA6953437B6158E03B68013370
:1050D80055D0FEF7A1FD0200BB69D31AFA699A42BE
:1050E80002D9FB69002B42D1FB681B685A68FB6830
:1050F8001B68E0218A435A60FB685A6882235B0078
:105108009A4213D1FB689A6880231B029A4205D001
:10511800FB689A688023DB009A4207D1FB681B680A
:105128001A68FB681B6840218A431A60FB689A6A00
:1051380080239B019A4210D1FB681B681A68FB68A0
:105148001B681A490A401A60FB681B681A68FB68E2
:105158001B68802189010A431A60FB685D220121CE
:105168009954FB685C2200219954032317E07B695A
:10517800002B01D10023FB617B69013B7B61FB684C
:105188001B689B68BA681340BA68D31A5A425341DD
:10519800DBB21A00FB1D1B789A4297D10023180036
:1051A800BD4608B080BDC04600000020FFDFFFFFFD
:1051B80080B58AB000AFF860B9607A603B601723A9
:1051C800FB1800221A70FEF727FD02003B6B9B1AA2
:1051D8003A68D3187B62FEF71FFD03003B62FB6849
:1051E8001B680C33FB61414B1A6813009B009B182A
:1051F800DA00D31A1B0D7A6A5343BB6168E0BA68B8
:10520800C023DB009A420AD17B68002B07D1FB69D7
:105218001B78DAB217217B181A707B181B783B6849
:10522800013355D0FEF7F8FC02003B6AD31A7A6ABC
:105238009A4202D97B6A002B42D1FB681B685A68E4
:10524800FB681B68E0218A435A60FB685A6882231E
:105258005B009A4213D1FB689A6880231B029A422A
:1052680005D0FB689A688023DB009A4207D1FB6867
:105278001B681A68FB681B6840218A431A60FB6830
:105288009A6A80239B019A4210D1FB681B681A68AE
:10529800FB681B6816490A401A60FB681B681A6895
:1052A800FB681B68802189010A431A60FB685D223C
:1052B80001219954FB685C2200219954032310E0D2
:1052C800BB69002B01D100237B62BB69013BBB6139
:1052D800FB681B689B68BA6813407A689A428ED14B
:1052E80000231800BD460AB080BDC046000000205B
:1052F800FFDFFFFF80B586B002AFF860B9607A6063
:10530800BA68C0235901F8687B680093130000222B
:10531800FFF74EFF031E07D0FB681B6E20221A43BF
:10532800FB681A66032327E0BA68F8687B6800936D
:10533800130000228021FFF7ADFE031E07D0FB6893
:105348001B6E20221A43FB681A66032314E0BA680E
:10535800C023D900F8687B68009313000022FFF788
:1053680027FF031E07D0FB681B6E20221A43FB6829
:105378001A66032300E000231800BD4604B080BD70
:10538800014B18687047C0460C00002070B5002615
:105398000C4D0D4C641BA410A64209D1002600F048
:1053A8009DFC0A4D0A4C641BA410A64205D170BD91
:1053B800B300EB5898470136EEE7B300EB5898472F
:1053C8000136F2E72060000820600008206000082D
:1053D8002460000803008218934200D170471970B6
:1053E8000133F9E70EB400B50B499CB01DAB029030
:1053F8000690079104910948094904CB0591006872
:1054080002A9019300F082F80023029A13701CB0DD
:1054180008BC03B01847C046FFFFFF7F0C00002000
:105428000802FFFF30B50500101E08D00024013A1D
:105438002B5D085D834201D1944201D1181A30BD19
:105448000134002BF4D1F9E7F0B58E6885B0070078
:105458000C00039201939E423CD890238A89DB007A
:105468001A4234D00969236860695B1A02930323DE
:105478004343DD0FED18019B029801331B186D1093
:10548800AB4200D91D00530532D52900380000F081
:1054980053FB061E09D10C233B6040230120A2893F
:1054A80040421343A38105B0F0BD029A216900F080
:1054B800BAFAA389144A1A4080231343A381029B92
:1054C8002661F61826606561019EED1AA560019BAC
:1054D8009E4200D9019E32000399206800F0ACFA80
:1054E800A36800209B1BA36023689E192660DAE747
:1054F8002A00380000F096FB061EE0D1380021692A
:1055080000F0AEFAC7E7C0467FFBFFFFF0B5A1B0D9
:1055180003901D008B890F0016001B0611D50B691F
:10552800002B0ED1402100F007FB386038610028BD
:1055380005D10C23039A0138136021B0F0BD402334
:105548007B61002308AC6361203363761033A37654
:10555800079535002B78002B01D0252B47D1AB1BA5
:105568000593B5420CD0320039000398FFF76CFF61
:10557800431C00D1AEE06269059B944663446361B5
:105588002B78002B00D1A5E0012200235242626053
:1055980004A9543252186E1C2360E360A360137090
:1055A800A36505223178544800F032FA751C0028AA
:1055B8001FD12268D30604D5532304A95B182021E0
:1055C8001970130704D5532304A95B182B211970EC
:1055D80033782A2B16D0350000210A20E3682A7870
:1055E8006E1C303A092A4ED9002911D117E001352D
:1055F800B0E7414B2268C01A0123834013432E00B1
:105608002360CEE7079B191D1B680791002B01DB60
:105618000B9304E05B42E3600223134323602B787F
:105628002E2B0AD16B782A2B35D1079B02351A1DF0
:105638001B680792002B2BDB0993304E03223000A6
:10564800297800F0E5F9002806D04023801B834024
:1056580022680135134323602978062228486E1CE6
:10566800217600F0D5F900283CD0264B002B25D117
:105678000722079B07339343083307936369049A08
:105688009B18636165E74343350001219B18A6E732
:1056980001235B42D0E700230A201A00013563602A
:1056A80029786E1C3039092903D9002BC5D00992F5
:1056B800C3E74243350001235218F1E707AB0093D3
:1056C8003A002100104B039800E000BF0490049BAF
:1056D8000133D3D1BB890D985B0600D42DE7012097
:1056E80040422AE707AB00933A002100064B039893
:1056F80000F07CF8EAE7C046EC5F0008F25F0008BB
:10570800F65F00080000000051540008F7B51500C6
:1057180001938A680B690C000090934200DA130029
:1057280022002B6043321278002A01D001332B600B
:1057380023689B0602D52B6802332B602268062358
:1057480017001F401A4227D0230043331B785A1EE4
:1057580093412268920630D4220001990098089E4D
:105768004332B047431C25D0062320682A68E168E5
:1057780000250340042B03D18D1AEB43DB171D4092
:10578800A3682269934201DD9B1AED180027BD42E8
:1057980020D1002010E00137E3682A689B1ABB4239
:1057A800D2DD2200012301990098089E1932B047E2
:1057B800431CF0D101204042FEBD3020E1184331A6
:1057C800087021005A1C45310978A2184332023367
:1057D8001170C1E72200012301990098089E1A322E
:1057E800B047431CE6D00137D1E70000F0B58BB0D5
:1057F80006920A0043320793059004920A7E0C0031
:10580800109B782A07D8622A09D8002A00D1C1E05B
:10581800582A00D18CE026004236327022E010006F
:1058280063381528F7D8FAF767FC16001F00F6FF4B
:10583800F6FFF6FFF6FF1F00F6FFF6FFF6FFF6FF8E
:10584800A80036009A00F6FFF6FFB900F6FF36000A
:10585800F6FFF6FF9E0026001A684236111D1960F1
:10586800136833700123A7E0086819680A1D050644
:105878000BD50D681A60002D03DA2D23049A6D42AA
:105888001370614B0A2703931BE00D681A604106E9
:10589800F1D52DB2EFE70D681968081D18602E06BE
:1058A80001D50D6803E06D06FBD50D68ADB2564B0A
:1058B800082703936F2A00D00237230000224333BE
:1058C8001A706368A360002B03DB042221689143EC
:1058D8002160002D02D1049E002B0CD0049E2800CC
:1058E8003900FAF799FC039B013E5B5C33702B008F
:1058F80005009F42F3D9082F09D12368DB0706D595
:1059080063682269934202DC3023013E3370049BB2
:105918009B1B2361079B210000930598069B09AAFE
:10592800FFF7F4FE431C4CD1012040420BB0F0BD00
:1059380045310A70344A03921A68216820CA1A60ED
:10594800080616D5CB0702D5202319432160102756
:10595800002DB2D1202322689A432260ADE720228D
:1059680009680A4322602200782145321170274ACB
:10597800E1E74806E6D5ADB2E4E71A680D68101D00
:105988004969186013682E0601D5196002E06D0692
:10599800FBD519800023049E2361BBE71A68111DFB
:1059A8001960166800213000626800F031F800289C
:1059B80001D0801B6060636823610023049A137020
:1059C800A8E72369320006990598079DA847431C54
:1059D800AAD023689B0715D4099BE0689842A5DAEA
:1059E8001800A3E72200012306990598079E19329B
:1059F800B047431C98D00135E368099A9B1AAB421B
:105A0800F0DCE9E70025F7E7FD5F00080E60000815
:105A1800C9B28218904201D10020704703788B42A6
:105A2800FBD00130F6E7002310B59A4200D110BD33
:105A3800CC5CC4540133F8E710B5884202D98B18FE
:105A4800984203D3002307E08B5C8354013AFBD2CE
:105A580010BDCC5CC45401339A42FAD1F8E7000077
:105A680070B50500002910D00C1F2368002B00DA40
:105A7800E418280000F018F91D4A1368002B05D116
:105A880063601460280000F017F970BDA34208D9BC
:105A9800216860188342F3D118685B684118216057
:105AA800EEE71A005B68002B01D0A342F9D9116810
:105AB8005018A0420BD12068091850181160834271
:105AC800E0D118685B68411811605360DAE7A042BA
