:020000040800F2
:100000000020002069450008BD400008C3400008EA
:1000100000000000000000000000000000000000E0
:10002000000000000000000000000000C9400008BF
:100030000000000000000000D3400008DD40000880
:10004000B945000800000000B9450008B94500089E
:10005000B9450008B9450008B9450008B945000888
:1000600000000000B9450008B9450008B94500087E
:10007000B9450008B9450008B9450008000000006E
:10008000B94500080000000000000000B945000864
:1000900000000000B9450008B9450008B94500084E
:1000A000B9450008B9450008B945000821280008ED
:0800B000B94500080000000042
:1000B80010B5064C2378002B07D1054B002B02D036
:1000C800044800E000BF0123237010BD7000002029
:1000D8000000000054670008044B10B5002B03D043
:1000E8000349044800E000BF10BDC04600000000FE
:1000F80074000020546700080023C25C0133002A02
:10010800FBD1581E7047000003B4714649084000EF
:100118004900095E49008E4403BC70470022430829
:100128008B4274D303098B425FD3030A8B4244D3B7
:10013800030B8B4228D3030C8B420DD3FF220902F9
:1001480012BA030C8B4202D31212090265D0030BB8
:100158008B4219D300E0090AC30B8B4201D3CB03AE
:10016800C01A5241830B8B4201D38B03C01A5241F0
:10017800430B8B4201D34B03C01A5241030B8B42F2
:1001880001D30B03C01A5241C30A8B4201D3CB02DD
:10019800C01A5241830A8B4201D38B02C01A5241C2
:1001A800430A8B4201D34B02C01A5241030A8B42C5
:1001B80001D30B02C01A5241CDD2C3098B4201D3DD
:1001C800CB01C01A524183098B4201D38B01C01A5B
:1001D800524143098B4201D34B01C01A52410309D2
:1001E8008B4201D30B01C01A5241C3088B4201D381
:1001F800CB00C01A524183088B4201D38B00C01A2E
:10020800524143088B4201D34B00C01A5241411A54
:1002180000D20146524110467047FFE701B5002061
:1002280000F006F802BDC0460029F7D076E770470F
:100238007047C0468446100062468C4619006346E3
:1002480000E0C0461FB501F02DF8002801D40021B8
:10025800C8421FBD10B500F07DFF4042013010BDFF
:1002680010B501F01FF8002801DB002010BD0120A7
:1002780010BDC04610B501F015F8002801DD0020BA
:1002880010BD012010BDC04610B500F0A5FF002824
:1002980001DC002010BD012010BDC04610B500F0E3
:1002A8009BFF002801DA002010BD012010BDC046C8
:1002B800002B11D1002A0FD1002900D1002802D02B
:1002C8000021C943080007B4024802A1401802905F
:1002D80003BDC0465DFFFFFF03B4684601B5029841
:1002E80000F03AF8019B9E4602B00CBC7047C0462D
:1002F80070B500220C4B04000D00FFF7CFFF00285B
:1003080004D12000290001F02FFE70BD064B002209
:100318002000290001F096FA01F026FE80231B0632
:100328009C466044F1E7C0460000E04170B5060015
:10033800080001F04FFE0022064B01F017F80D00EF
:100348000400300001F046FE2B00220000F0D0F837
:1003580070BDC0460000F041F0B557464E464546D0
:10036800DE46E0B504000D009246994683B08B4204
:1003780030D82DD04946504601F070FE29000600BD
:10038800200001F06BFE331A9846203B9B4633D47D
:100398005A465346934042461F00534693401E0018
:1003A800AF423AD8AF4200D178E05B46A41BBD41CA
:1003B800002B00DA75E0002200230092019301234C
:1003C8005A4693400193012342469340009328E004
:1003D8008242CFD900220023009201930C9B002B6C
:1003E80001D01C605D600098019903B0F0BCBB4669
:1003F800B246A946A046F0BD424620239B1A524663
:10040800DA40414613004A468A40170042461F43D5
:10041800534693401E00AF42C4D9002200230092E5
:1004280001934346002BD9D0FB0772081A4346466E
:100438007B080EE0AB4201D1A2420CD8A41A9D4120
:10044800012024196D410021013E24184D41002E40
:1004580006D0AB42EED9013E24196D41002EF8D1E9
:10046800009801995B4600196941002B24DB2B0099
:100478005A464446D3402A00E2401C005B46150019
:10048800002B2ADB26009E40330026004746BE404C
:100498003200801A9941009001919FE7A342BCD88D
:1004A80083E74246202300219B1A002200910192F3
:1004B8000122DA40019286E7424620239B1A2A004D
:1004C80046469A402300F340444613432A00E2403C
:1004D8001C005B461500002BD4DA42462F0020236F
:1004E800260097409B1ADE403B003343CDE7C046C9
:1004F800F0B54F464646D6460D000400C0B51F006D
:1005080011002803620F400A10437A00520DE300DD
:100518003C039146640AFA0F4F0F6E002743924638
:10052800B846760DED0FC900954200D199E04C46CA
:10053800341BA446002C00DC7CE04A46002A00D18B
:10054800B8E0C54A964200D11CE180223C00120462
:100558001443A0466246382A00DD61E11F2A00DD07
:10056800CCE164462022121B444694400F00A14669
:1005780064469140E7404C464A1E91413C434246FE
:1005880021436446E240801A5C1AA3429B415F42C1
:10059800C71B3B0200D4D0E07F027F0A002F00D1A6
:1005A800FFE0380001F03CFD01000839202322005B
:1005B8005B1A8F40DA408C401743B14200DAFFE003
:1005C800891B4B1C1F2B00DDA8E020223900D21A02
:1005D800200094409140D840621E9441DF4000269C
:1005E80001430C43630709D00F232340042B05D094
:1005F800231DA342A44164423F191C003B0200D4BE
:100608009EE0954B01369E4200D1B7E0934AE4083C
:1006180017407B0771057F0223433F0B4A0D1205E4
:100628003A43ED072A4318001100E0BCBA46B14628
:10063800A846F0BD002C4BD04C46A41BA446002E67
:1006480000D023E104001C4300D1AFE16246541EF0
:10065800012A00D115E2804DAC4500D1C8E1A4467D
:100668001BE14A46B21A9446002A00DCACE04A462E
:10067800002A43D0784A964200D1AFE180223C005C
:1006880012041443A0466246382A67DC1F2A00DC9D
:100698005FE14746203AD7406246202A05D06446A3
:1006A8004022121B4446944021434A1E91410C00AB
:1006B8003C4357E03A000A4300D105E12200013AE1
:1006C800012C00D182E1644CA4455BD0944641E7FB
:1006D800634C771C274200D0C4E004001C43002E62
:1006E80000D069E1002C00D1BFE144460C4300D0A2
:1006F800D0E14207DB081343C00829E03A000A4367
:1007080000D170E162466446013A012C00D1E0E074
:10071800514CA44500D161E19446B4E73A001F3931
:10072800CA401100202B03D04022D31A9F403C43DB
:10073800631E9C41002700260C43630700D053E743
:10074800B446E4087B072343F808434A94451DD080
:100758006246070352053F0B520D60E744460C43BF
:10076800621E9441E4189C429B415F423F183B0241
:10077800E3D5394B01369E4200D0B5E03200002760
:1007880000234CE74207DB081343C0081A00024362
:1007980000D1E1E180273F0307433F032E4A3F0B87
:1007A8003DE7200001F03CFC010018311F2900DC66
:1007B800FCE60838844027000024B14200DBFFE64D
:1007C800264A761A17400DE7002A2FD04A46921B70
:1007D8009446002E00D1ADE01F4A914500D10FE1AB
:1007E8008022120410436246382A00DD0FE11F2AD6
:1007F80000DD80E1644620221E00121B67460400CB
:1008080093409440FE405A1E9341F84034431C43A1
:10081800804464188C42BF417F424E464744A6E755
:1008280042460A4311004A1E9141ADE60C4C721C27
:10083800224200D0A1E002001A43002E00D0FAE0C4
:10084800002A00D145E13A000A4300D046E14207B8
:10085800DB081343C0087BE7FF070000FFFF7FFFAB
:10086800FE07000047465C1AC21BA342BF417F42F5
:10087800B94617004A46BF1A3A0200D58DE0230050
:100888003B4300D08AE60020002561E7B44CA1452F
:1008980000D1ADE08024240420436446382C3DDC9C
:1008A80062461F2C00DDB7E020251E002D1B04002A
:1008B800AB40AC40D640D04042465D1EAB413443CD
:1008C800121A904623432CE04207DB081343C00862
:1008D8003BE75C189C429B4140445B42C718012699
:1008E8003B0200D429E702269E4A630817400122EA
:1008F80014401C43FB071C437F0873E64446203A18
:10090800D4406246202A05D067464022D21B47467B
:10091800974039434A1E9141214335E60343581E07
:100928008341CC1AA142BF4143467F4255464E46B9
:10093800DF1B2EE602001A4300D1BDE06246644682
:10094800013A012C00D1E5E0854CA44558D09446E5
:1009580049E764462022121B444694400F00A146F2
:1009680064469140E7404C464A1E91413C4342460A
:100978000C436146CA408018F4E6794CA24200D183
:10098800FDE6591899429B4140445F42C719FC074C
:10099800490816000C437F08CFE6CC1AA142BF4194
:1009A80043467F42181A5546C71BF7E5C9087B0717
:1009B80055460B43F808C8E6002C00D081E04346B2
:1009C8000B4315D1802000250003E3E65C1AA342FF
:1009D8009B41C71B5B420126FF1ADAE54207DB0889
:1009E8001343C008D2E64207DB081343C008ACE64D
:1009F80043464246C9085B0755460B43D008C5E63F
:100A0800434642465B07C9080B43D008BEE603438A
:100A18001C00631E9C41FCE60200203CE2401400DE
:100A28006246202A03D04025AD1AA8400343581E29
:100A38008341234375E7002AE2D03A000A43CDD028
:100A48004207DB0813438022C0081203104206D075
:100A5800FC08144203D12000CB087A0713435A0F2D
:100A6800DB005207DB08134390E643460B4300D1F3
:100A780009E743464246C9085B0755460B43D00879
:100A880066E6CC1AA14289413F1A494255460126D9
:100A98007F1A7EE542465C1A871AA3429241524267
:100AA800BF1A3A023DD5CC1AA14289414346494270
:100AB8001F1A55467F1A95E57B07C9080B43F808A6
:100AC80043E64446DB080C4330D142071343C008D1
:100AD8005CE67B07C9080B43F80839E65C189C42BA
:100AE8009B4140445B42C7183B0200D425E61D4B9E
:100AF80001261F4021E60400203AD4406246202AFD
:100B080004D040226646921B904003435A1E9341EC
:100B18001C437EE65C188C42894140444942471890
:100B2800DDE623003B4300D1ADE606E64407234358
:100B38008024C0082403204208D04246D608264212
:100B480004D155463000CB0851070B435A0FDB0040
:100B5800DB085207134319E60023014A1F005EE52C
:100B6800FF070000FFFF7FFFF0B557464E4645469A
:100B7800DE46E0B5814605000C03480092461F009A
:100B880085B0240B400DCE0F002800D156E1D44B80
:100B9800984200D172E16B0FE4001C4380231B04D0
:100BA80023439846CF4BED009B4600239946834448
:100BB80000933C037B005046240B5B0DFF0F002B7A
:100BC80000D11FE1C64A934200D162E1C549420FF4
:100BD8008C46E40059461443802263441204CB1A1D
:100BE80014439B46C200002033007B409A464B4684
:100BF8000F2B27D8BC499B00CB589F46B246009B79
:100C0800022B16D0032B00D18EE2012B00D0D9E0A5
:100C180000230024002552461B052343D207134313
:100C28002800190005B0F0BCBB46B246A946A0464C
:100C3800F0BD00240025AA4BEDE7BA46A0461500F2
:100C48000090DCE7444500D2C7E100D1C2E10123AE
:100C58005B429C462E0040460025E3442302140EC6
:100C68001C431B0C994623041F0C12024946009290
:100C78000197FFF7D9FA02007A430B04310C80463A
:100C880019438A4207D901235B429C460919E0446B
:100C98008C4200D807E2881A4946FFF7C5FA0904CA
:100CA8008C4631046646019A090C424303003143DD
:100CB8008A4204D90919013B8C4200D8EDE1881A0F
:100CC800424612041A4390464146009B0E041B0CF0
:100CD8001F000293009B360C1B04190C0B00734376
:100CE800120C7E43039151437A431F0CBC4676187D
:100CF8006644B14203D9802149028C466244310CD2
:100D08008A1831041E04360C8E19904202D312D16F
:100D1800B54210D24346591E009B9C4665441F00AD
:100D28009D429B415B421B19C018844200D2A0E13E
:100D380000D19BE18846AE1BB542AD41801A6D4299
:100D4800401B844200D1D5E14946FFF76DFA019A6C
:100D58000B044243310C050019438A4200D96CE167
:100D6800881A4946FFF760FA019A36044243090493
:100D7800360C03000E43B24200D953E10398B61A69
:100D880002002D041D43029F2B041B0C5A437B4376
:100D98009C46290C4843130C844463447943984285
:100DA80003D98020400284466144180C12041B04B5
:100DB800120C41189B188E4200D2FFE000D1FAE0D5
:100DC80001231D43494A5A44002A00DCAAE06B0764
:100DD80000D03DE1ED084346DB0106D54246444BD1
:100DE8001A4090468022D2005A44424B9A4200DD73
:100DF8001FE743465B071D43434652055C02240B2D
:100E0800530D08E75246224300D17BE0002C00D165
:100E1800FAE0200001F004F902000B3A1D2301005A
:100E28009B1A52460839DA408C40144352468A408D
:100E3800314B58449B4683440020D5E64B46234318
:100E4800984644D0002C00D1CEE0200001F0E8F80C
:100E5800010002000B391D235B1A49461000D940D6
:100E6800083884400B004D46234398468540234864
:100E7800831A9B460023994600939AE64B462343E0
:100E880098461DD108239946063B002583460093C2
:100E98008FE65246224309D1022349461943184B8B
:100EA80089469C4600240220E3449DE603234A46E3
:100EB8001A43134B91469C4652460320E34493E65B
:100EC8000C239946093BA0468346009371E6042308
:100ED800994600239B4601330025009369E6C046E6
:100EE800FF07000001FCFFFF18690008FF0300006E
:100EF800FFFFFFFEFE070000F30300000DFCFFFFED
:100F080001F8FFFF494601231943894600240120BF
:100F18006AE6002380249A4600258A4B24037AE651
:100F280001256D4201239B1A382B00DD70E61F2B2B
:100F380000DCBFE01F2149428A1A4146D1400A001D
:100F4800202B04D04146804B5B4499400D436B1ED7
:100F58009D4107232A431D0000241540134200D158
:100F6800D4E00F2100231140042900D1CBE0111D4A
:100F78009142924152429B180A00190200D4C2E0E1
:100F880001230024002546E6802341461B0319421D
:100F980008D01C4206D11C432403BA461500694BED
:100FA800240B38E68024434624031C432403B2461A
:100FB800644B240B2FE6002B00D103E7A619681E0B
:100FC800A64200D28DE08E4200D2A3E000D1B3E069
:100FD8000500F5E6AA4200D939E64346DE07580877
:100FE8006B081E43ED0739E6484601F019F8010081
:100FF8000200153120321C2900DC2CE74B4608384A
:1010080083400025984632E701F00AF803001A00E9
:10101800153220301C2A00DC00E75446083B002229
:101028009C4005E73619013BB44200D9A6E6B24216
:1010380000D8A3E6831E3619A0E60919013D8C42A3
:1010480000D98DE68A4200D88AE6851E091987E606
:101058000F232B40042B00D1BCE605235B42AB4297
:101068009B4104355B42ED089844B4E6AF4200D991
:1010780060E6824204D800D05CE6AE4200D859E669
:1010880002235B429C46009BE0449C4665449D428B
:101098009B415B421B19C0184DE68A4200D80EE6F8
:1010A800831E09190BE68A4200D8F4E5831E984688
:1010B8000919F0E52549280059448D4042468A40DF
:1010C800691E8D414146D840D94002432A430B004E
:1010D800510700D151E70F211140042900D046E7FC
:1010E8004BE705008E4200D06AE6009A934200D092
:1010F80066E667E6164A5A44002A00DC10E7012330
:101108000025984467E65D075B021C0BD2080023A4
:10111800154380E50098023D42008242BF417F426C
:101128003C1936190092DDE78024434624031C430A
:101138002403044B240B6EE5009A9A42EAD3050077
:10114800D3E7C046FF0700003E0400001E0400006D
:10115800FF030000F0B54E464546DE46574690462A
:10116800E0B517001A03120B0500844619480E0350
:101178004C0091465A00DB0F9B46360B640DC90F95
:10118800520D844219D0824210D0012094420ED1CF
:101198004E450CD10120C44509D1594517D0002C22
:1011A80005D130002843431E984100E00120F0BCDF
:1011B800BB46B246A946A046F0BD330001202B43EA
:1011C800F5D1A242F3D14B463B43F0D1E2E70020F0
:1011D800EDE7C046FF070000F0B54746CE460400DD
:1011E800180016001B031B0B2D4D4A00994680B5AD
:1011F80043000F03A446B0463F0B520DC90F5B0DC9
:10120800C00FAA4221D0AB4213D0002A22D13C43BE
:10121800002B02D14D462E4322D0002C10D0814203
:1012280022D00220013908400138C0BCB946B04676
:10123800F0BD4D462E4329D1002AF0D13C43EED1D2
:101248000028F2D101204042EFE73D0025431DD19F
:101258009342EED0002BE2D14C462643DFD1E0E7A3
:101268000020002CE1D0DCE79A420ADCE8DB4F459D
:10127800D7D80ED000204F45D7D20029E2D0080099
:10128800D3E74342584140000138CEE702204042AC
:10129800CBE7C445C5D80020C445C6D2EDE7C04653
:1012A800FF070000F0B54746CE46040018001600B8
:1012B8001B031B0B2C4D4A00994680B543000F03B6
:1012C800A446B0463F0B520DC90F5B0DC00FAA4292
:1012D8000DD0AB4210D0002A27D13C43002B11D1AE
:1012E8004D462E430ED10020002C15D00EE03D00B7
:1012F800254310D1934218D14D462E430BD1002AD5
:1013080002D13C43002C0BD0814214D00220013979
:101318000840013800E00220C0BCB946B046F0BD24
:101328000028F9D101204042F6E7002BECD14C46C9
:101338002643E9D1EAE79A4204DD43425841400096
:101348000138E9E79A42EBDB4F45DFD806D00020A9
:101358004F45E1D20029E5D00800DDE7C445D5D8DE
:101368000020C445D8D2F5E7FF070000F0B557467E
:101378004E464546DE46E0B598460C034B0006004F
:10138800924687B0240B5B0DCF0F002B00D15CE198
:10139800D94A934200D175E1420FE40014438022F8
:1013A80012041443D54AC5009446634400930023AD
:1013B80099469B46434642461E03D20F5B00504661
:1013C8009046360B5B0D00D120E1CB4A934200D109
:1013D80062E1CA49420F8C4600996344F6008C4684
:1013E800164380229C44120463461643C200002020
:1013F80000930099434601318C4649467B4001934E
:101408000F2926D8BE4B890059588F464346019369
:101418003400150083465B46022B16D0032B00D1FF
:1014280003E2012B00D0CDE0002200240025019B1F
:1014380012052243DB071A432800110007B0F0BC4D
:10144800BB46B246A946A046F0BD00240025AA4ADC
:10145800EDE7280C2D042D0C2B00110C1204120C96
:101468005343984613002F00434399464F434F4434
:10147800BB4647460B003F0CBA464343DA44029347
:10148800D14504D980277F02B9464B44029353467D
:101498001B0C9B4653461F0443461B041B0C9846D3
:1014A8003B0043440493330C3604360C984633000F
:1014B80043439946434643432F009A46434677435E
:1014C8005D43380C4D444519A94503D980235B0277
:1014D8009946CA443F04280C3F0C2D04ED19270CEB
:1014E8002404240C0300200050437A4391463A0018
:1014F80053440593030C9A464A4361434944514473
:10150800AB44894503D980235B0299464A440004C9
:101518000B0C000C09040918200099464346704337
:101528005C437E435F43030C9846A41944444A44F1
:101538000397A64204D980235B0298464744039741
:101548002304029E9A46059B5E449846AE42AD41EE
:1015580076188E4289410004000C504440446D4284
:101568004719B846934649428946C344D9449842E4
:101578008041A845AD4193459241894589416D42D5
:1015880040422843240C524249420A43039B001913
:101598008018C7184B46DC0D049B75021D436A1E54
:1015A80095414B46F60D7F0235435A023C4315439D
:1015B800FB0100D41CE101216A080D401543E20734
:1015C800154364084F496144002900DCB0E06B070B
:1015D80009D00F222A40042A05D02A1DAA42AD416B
:1015E8006D4264191500E30104D58021464AC900FB
:1015F80014406144454A914200DD26E76207ED0840
:10160800640249051543240B4A0D10E7524632433C
:1016180000D17FE0002E00D1DCE0300000F000FDBA
:1016280002000B3A1D2301009B1A52460839DA4082
:101638008E40164352468A40009B3549181A0300CB
:101648008C46634400200093D3E6250005434AD026
:10165800002C00D1B0E0200000F0E2FC0100020004
:101668000B391D2310005B1A3100350008388440FF
:10167800D94085400C432648831A00930023994695
:101688009B4697E60500254326D1082200930223AE
:10169800002491469B468DE65246009B324310D16A
:1016A800154900268C466344494600930223194392
:1016B800894602209DE65B460197022B00D0ADE6E5
:1016C800C3E60D4A0320944663444A460093032325
:1016D8001A43914652468CE60C22009303230500D8
:1016E80091469B4666E604239946002300930133FE
:1016F80000249B465EE6C046FF07000001FCFFFF92
:1017080058690008FF030000FFFFFFFEFE07000006
:101718000DFCFFFF49460123194389460026012095
:1017280067E6002380240025434A019324037EE6CC
:101738000120401A382800DD76E61F285BDD1F22CD
:1017480023005242511ACB401900202803D03B4AAB
:101758006244944025436A1E95412A000A430721A2
:101768000D000024154011425BD00F2100241140C8
:10177800042953D0111D914292415242A4180A00E3
:1017880023024BD501220024002550E680231B03A9
:101798001C4209D01E4207D133431C03434615009F
:1017A800240B254A019342E68022120314432403A2
:1017B800214A240B01973AE600F032FC01000200AE
:1017C800153120321C2900DC4BE73400083800258D
:1017D800844050E700F024FC03001A001532203042
:1017E8001C2A00DC1EE75646083B00229E4023E7E1
:1017F800009B9C46E6E61249220061442E008D407B
:101808008A40C640691E8D4132432A43C44053076B
:10181800B6D00F2111400429ACD1B1E765076402A5
:10182800240BD2081543002201E680221203144338
:101838002403014A240BFAE5FF0700003E040000D8
:101848001E040000F8B557464E464546DE46E0B54C
:101858001E0017004A000B03520D5B0A9046420F08
:101868001A43CD0FCD4C3103C300944670007A0F54
:10187800490AFF009A46B946400DF60F1143A042A7
:1018880000D1B1E001225640B346B54200D188E00C
:101898004246121A002A00DCAEE0002800D1C1E05E
:1018A800BE48804500D151E1802000040143382A18
:1018B80000DD7BE11F2A00DDEEE120203E00801ADA
:1018C8000C00D640D140874062468440521A781EA8
:1018D8008741944634432743DC1BA3429B4162461D
:1018E8005B42D31A99464B461B0200D418E14B467B
:1018F8005802430A99464B46002B00D137E1484627
:1019080000F08EFB010008392023220048465B1AAC
:10191800DA4088408C4043461043884500DD36E174
:10192800C91A4B1C1F2B00DDEAE020222600D21A20
:1019380001009440DE40D84000239140621E94414B
:101948008146984631430C43630709D00F2323404F
:10195800042B05D0231DA342A4416442A1441C00CA
:101968004B461B0200D4DEE041468C4B01319942C4
:1019780000D1E7E04B468A48E408034018004905CF
:101988005B07400223434A0D040B1205ED0722436F
:101998002A4318001100F0BCBB46B246A946A0462F
:1019A800F8BD4246121A002A52DD002800D19CE0F8
:1019B800A04500D1CAE0802000040143382A00DD98
:1019C80049E11F2A00DC97E110000E002038C640CC
:1019D800202A04D04020821A91400F43B9464C4631
:1019E800621E944134433AE10A003A4328D0B34690
:1019F800B5422BD06B4A4244002A5DD04246444649
:101A0800821A002C00D0F5E065461D4300D19CE108
:101A1800551E012A00D1FBE1604CA24200D1BDE174
:101A28002A00F0E00800384300D1C3E0501E012A24
:101A380000D1A8E1594CA24200D187E0020036E764
:101A480001225640B346B54200D021E7554A4244E8
:101A5800002A00D1B5E042464446821A002C00D143
:101A680038E14E4EB04200D1DEE1802664463604AD
:101A78003443A446382A00DD96E11F2A00DD24E21B
:101A88002026B41AA24664465646B440A1461C0015
:101A98004E46D440264334005646B3405E1EB341FA
:101AA8001C436346D340C918E419BC42BF417F4276
:101AB800B94680468944D8E040463B4C0130204234
:101AC80000D0B4E04046002800D044E16046184306
:101AD80000D190E10800384300D0AAE16146DB0854
:101AE80049070B436146CC0827E00800384361D01A
:101AF800501E012A00D139E1A24227D002005DE739
:101B080002001F39CA401100202B03D04022D31AEB
:101B180098400443631E9C410023994698460C4311
:101B2800630700D012E74B464A46E4085B072343A5
:101B3800D408424619498A420ED024035205240B80
:101B4800520D22E70A00002400231EE7DB08624644
:101B5800520713436246D4081A00224300D1FCE11D
:101B680080221203144324030C4A240B0DE720009F
:101B780000F056FA010018311F2900DCC4E60838C5
:101B88008440434620000024884500DCC8E6044A17
:101B98005B1A104098468146D6E6C046FF0700000B
:101BA800FFFF7FFF01F8FFFFFE0700000F437A1ECB
:101BB800974191E66146DB0849070B436146CC082B
:101BC800B8E74046D34C0130204200D0A2E040465E
:101BD800002800D001E16046184300D15EE108000A
:101BE800384300D05FE16146DB0849070B43614693
:101BF800CC08A2E7C84DA84200D1CFE080256446B2
:101C08002D042C43A446382A56DC1F2A00DDD1E0D7
:101C180020251E00AD1A6446AB40AC40D6405D1E80
:101C2800AB41344323436446D440091B49E0604632
:101C3800DC1B461AA34280414042814630004E4692
:101C4800801B8146000276D44B46234300D052E6DF
:101C58000024002571E739430C00621E9441E41802
:101C68009C429B415B42634499464B461B0200D40D
:101C780056E701239C46A84BE044984538D04B468C
:101C8800A648012203401800630814401C43C307F8
:101C98001C434308994657E610000E002038C640FA
:101CA800202A04D04020821A91400F43B9464F465B
:101CB8007A1E974137430FE662461A4313005A1EAD
:101CC8009341FC1AA742BF417F42CB1B99465D4610
:101CD800804608E666461E4300D1BEE0561E012A2D
:101CE80000D109E18C4CA24200D119E13200C1E6D1
:101CF80042460024002348E620200C00801A3E00BB
:101D080087408440D640781E8741D14034433C43C5
:101D18008C44A4E7804A904200D1E9E0DF199F4251
:101D28009B4161445B42C918CC077F084B08994620
:101D380080463C43F4E6FC1AA742BF4163467F4213
:101D4800C91ACB1B99465D46D5E5FF084B075D468A
:101D58003B43CC08EEE662461A4300D082E00B0013
:101D68003B431BD1802400252403F9E6DC199C425F
:101D78009B41614489465B4299444B461B0244D4CB
:101D880001239846CCE6DC1B6246A3429B41511ACC
:101D98005B42CB1A994601239846A4E5FF084B07F6
:101DA8005D463B43CC08D7E662461A431400631EDF
:101DB8009C4179E615006446203DEC40A046202A67
:101DC80005D040256446AA1A944023439A465446AF
:101DD800631E9C414346234373E762461A4323D05C
:101DE8000A003A4300D0A0E06246DB0852071343DA
:101DF8006246D408B0E60B003B4300D128E7FF0851
:101E08004B075D463B43CC0897E60223984636E7E6
:101E1800FC1AA742BF4163467F42C91ACB1B9946A9
:101E280001235D4698465EE54B07FF083B43CC0817
:101E380092E6DC1B6046A342B641401A7642801BFC
:101E48008146000260D5FC1AA742BF4163467F4223
:101E5800C91ACB1B99465D4676E5FF084B073B43FD
:101E6800CC0867E60A00DB083A4300D16FE6624611
:101E7800520713436246D40880221203144207D043
:101E8800C808104204D15D460400FB0849070B430B
:101E98005A0FDB00DB08520713435DE64B07FF08C8
:101EA8003B43CC0849E6DC199C429B416144894686
:101EB8005B4299444B461B0200D431E64A46174B15
:101EC8001A400123914698462AE616006446203EA9
:101ED800F440A046202A05D040266446B21A944011
:101EE80023439A465446631E9C4143461C43DBE504
:101EF80002000024002348E5DC19BC42BF416144CC
:101F080089467F42B94438E74B46234300D19FE6D0
:101F180006E6C046FE070000FF070000FFFF7FFF40
:101F2800FF084B073B43CC0816E66246DB0852071E
:101F380013436246D40880221203144207D0C8080B
:101F4800104204D15D460400FB0849070B435A0FB1
:101F5800DB005207DB081343FEE50023014A1C009F
:101F680013E5C046FF0700000A0030B5134C5300C4
:101F780009030500090B00205B0DD20FA34204DD05
:101F88000F48834202DD0F4BD01830BD802040033C
:101F980001430D48C01A1F2808DD0C48C31AD94050
:101FA8000B005842002AF0D11800EEE7084CC54053
:101FB800A446634499400B002B43F2E7FE0300005C
:101FC8001D040000FFFFFF7F33040000130400001E
:101FD800EDFBFFFF10B5041E10D000F021F80F4BE9
:101FE8001B1A0A2811DC0B222100121AD1401530C5
:101FF8000A035B058440120B5B0D01E000230022FD
:102008001B0513432000190010BD22000B38824025
:102018005B0512030024120B5B0DF1E71E040000A0
:102028001C2101231B04984201D3000C10391B0A00
:10203800984201D3000A08391B09984201D30009C4
:10204800043902A2105C40187047C046040302021B
:1020580001010101000000000000000010B5002986
:1020680003D1FFF7DDFF203002E00800FFF7D8FFBB
:1020780010BDC04680B500AF00F03CF8184BDA6BD5
:10208800174B802189030A43DA63164B1A68154BEC
:1020980001218A431A60134B134A1A61134B9A6839
:1020A800124B13490A409A60104BDA680F4B1049DB
:1020B8000A40DA600D4B1A680C4B04210A431A6077
:1020C8000A4B1A68094B02210A431A60074B1A681F
:1020D800064B01210A431A60C046BD4680BDC04672
:1020E80000100240005400405B3D300000580040A2
:1020F800FF7FFFFF80B500AF2B4B5A6B2A4B0221A5
:102108000A435A63294B1A68284B29490A401A601E
:10211800264B1A68254B802189010A431A60234BF4
:102128001A68224B23490A401A60204B1A681F4B31
:10213800802109020A431A601C4B1A6A1B4B1E496C
:102148000A401A62194B1A6A184BF02149050A43CA
:102158001A62164B1A6A154BF02189050A431A624E
:10216800124B1A6A114B15490A401A620F4B1A6A28
:102178000E4B120112091A620C4B1A6A0B4BE02122
:1021880009060A431A62094B1A6A084BC021090654
:102198000A431A62054B1A6A044B520052081A6223
:1021A800C046BD4680BDC046001002400004005035
:1021B800FFEFFFFFFFBFFFFFFFFFFFF0FFFFFF87FE
:1021C80080B586B000AF39601100FB1D021C1A7083
:1021D800BB1D0A1C1A7002F069FA03003B610F2349
:1021E800FB1800221A70BB1D1A78FB1D1B780121F1
:1021F800180000F041F800237B6127E002F056FA4E
:1022080002003B69D31A142B06D91A4B1A68194BCA
:1022180001218A431A602AE0164B9B690422134065
:102228005A425341DBB219000F23FB181B780122D5
:102238005340DBB20B40E1D10E4B596A7B693A68D7
:10224800D318CAB21A707B6901337B61BB1D1B7836
:102258007A699A42E0DBC046064B9B69202213400C
:10226800FAD0044BDA69034B20210A43DA61BD46F0
:1022780006B080BD0054004090B583B000AF0400A4
:1022880008001100FB1D221C1A70BB1D021C1A70CD
:102298007B1D0A1C1A70214B1A68204B01210A4326
:1022A8001A601E4B5B689B0A9902FB1D1A781B4B30
:1022B8000A435A60194B5B68194A1A407B1D1B7800
:1022C8001B041900154B0A435A60144B5A68134BE8
:1022D800802189040A435A60BB1D1B78012B07D152
:1022E8000E4B5A680D4B8021C9000A435A6009E019
:1022F800BB1D1B78002B05D1084B5A68074B0949B1
:102308000A405A60054B5A68044B802189010A43E8
:102318005A60C046BD4603B090BDC0460054004058
:10232800FFFF00FFFFFBFFFF80B584B000AF3960FF
:102338001100FB1D021C1A70BB1D0A1C1A70BB1D64
:102348001A78FB1D1B7800211800FFF795FF02F093
:10235800ADF90300BB600023FB6022E002F0A6F9A0
:102368000200BB68D31A142B06D9184B1A68174BEE
:1023780001218A431A6025E0144B9B69022213400D
:10238800ECD0124B9B6AFF2293431A00FB68396812
:10239800CB181B7819000D4B0A439A62FB6801336E
:1023A800FB60BB1D1B78FA689A42E5DBC046074B09
:1023B8009B6920221340FAD0044B9A69034B2021D1
:1023C8000A439A61BD4604B080BDC046005400402F
:1023D80080B582B000AF7860A023DB051A68A0231F
:1023E800DB058021C9010A431A60A023DB051A68AE
:1023F800A023DB0511490A401A60114B1A68104BDB
:1024080001210A431A600E4B1A680D4B02218A43B8
:102418001A600B4B1A680A4B04210A431A60084BCE
:102428001A68074B08218A431A607B68180000F075
:1024380039F8C046BD4602B080BDC046FF7FFFFFE9
:102448000004005080B582B000AF786002F02EF929
:1024580002007B681B68D21AFA239B009A4205D9AE
:1024680002F024F902007B681A6014E002F01EF9F9
:1024780002007B681B68D31A322B06D9084B5A69AD
:10248800074B02218A435A6105E0054B5A69044B00
:1024980002210A435A61C046BD4602B080BDC0460B
:1024A8000004005080B582B000AF78607B680022DD
:1024B800DA607B6800225A607B6800229A6002F02A
:1024C800F5F802007B681A607B6800221A617B6855
:1024D80000229A617B6800225A61C046BD4602B05C
:1024E80080BD000090B585B000AF040039601000D1
:1024F8001900FB1D221C1A70BB1D021C1A707B1DC3
:102508000A1C1A700C217B18134A12781A70FB1DCA
:102518001B78DB001AB2BB1D1B781BB213431AB21F
:102528000E203B181A803B181B88DAB27B181A70E9
:102538007B1801221900A020FFF7F6FE052002F003
:10254800BFF87B1D1A783B681900A020FFF738FEFA
:10255800C046BD4605B090BD6C67000890B58BB00D
:1025680000AF0400396010001900FB1D221C1A700E
:10257800BB1D021C1A707B1D0A1C1A707B1D1C785F
:10258800BB1D1A780823F918FB1D18782300FFF7DC
:10259800A9FF2723FB1800221A7000233B6212E0D0
:1025A8003B6A3A68D3181A780823F9183B6ACB189B
:1025B8001B789A4204D02723FB1801221A7007E0DF
:1025C8003B6A01333B627B1D1B783A6A9A42E7DB20
:1025D8002723FB181B78002B2AD0FB1D1B78DB0058
:1025E8005AB2BB1D1B785BB213435BB2DAB210233D
:1025F800FB181A700023FB610BE0FB693A68D218DC
:10260800FB69013311781022BA18D154FB690133E0
:10261800FB617B1D1B78FA699A42EEDB7B1D1B78F8
:102628000133DAB21023FB181900A020FFF77CFE53
:10263800062002F045F8C046BD460BB090BD80B5F7
:1026480086B000AF0200FB1D1A700C217B18002217
:102658001A6000237B617918FB1D18780423002277
:10266800FFF740FF00233B6110E00C23FA183B6999
:10267800D3181B781A003B69DB009A4013001A0034
:102688007B6913437B613B6901333B613B69032BE6
:10269800EBDD7B691800BD4606B080BD80B584B00F
:1026A80000AF78600023FB604F4B0421180002F054
:1026B80017FB031E01D0002300E04C4B1A00FB68F7
:1026C8009B18FB6080235A00A023DB05110018002B
:1026D80002F006FB031E01D0002300E0444B1A0061
:1026E800FB689B18FB60434B4021180002F0F8FA86
:1026F800031E01D0002300E03F4B1A00FB689B1823
:10270800FB6080231A01A023DB051100180002F0EA
:10271800E7FA031E01D0002300E0384B1A00FB68DB
:102728009B18FB6080235A01A023DB0511001800C9
:1027380002F0D6FA031E01D0002300E0304B1A0045
:10274800FB689B18FB6080231A02A023DB0511009D
:10275800180002F0C5FA031E01D0002300E0294B3F
:102768001A00FB689B18FB601F4B0821180002F039
:10277800B7FA031E01D0002300E0234B1A00FB68C0
:102788009B18FB60184B1021180002F0A9FA031ED1
:1027980001D0002300E01D4B1A00FB689B18FB606A
:1027A800114B2021180002F09BFA031E01D00023D0
:1027B80000E0174B1A00FB689B18FB6080235B0046
:1027C800094A1900100002F08BFA031E01D00023F9
:1027D80000E0104B1A00FB689B18FB60FB681800B0
:1027E800BD4604B080BDC04600040050D43000008F
:1027F800A86100000008005050C30000A086010036
:10280800400D0300801A060000350C00006A18000D
:1028180000D4300000A8610080B500AF034B1B68EE
:10282800180001F00BFEC046BD4680BD180100200F
:1028380080B584B000AF786039600021F9607968AC
:1028480009790906F9607968497909040800F9687D
:102858000143F9607968897909020800F968014338
:10286800F9607968C9790800F9680143F960F9687D
:10287800184881421CD9F9681748814218D8F96864
:102888000A0000210B0039680A604B607B68193325
:10289800FA681249180003F0F9FA7B6819336421C1
:1028A800180001F013FE3B683022012199540DE015
:1028B8007B6819330A4A1100180003F0E7FA7B68AD
:1028C80019336421180001F001FEC046C046BD4618
:1028D80004B080BDA0607E087FB79B0970670008C0
:1028E8008867000880B584B000AF7860396000213F
:1028F800F960796809790906F960796849790904FC
:102908000800F9680143F9607968897909020800C3
:10291800F9680143F9607968C9790800F9680143E1
:10292800F960F9681E48814227D9F9681D48814233
:1029380023D8F9680A0000210B0039680A624B6243
:102948003B68186959693B681A6A5B6A12184B41F7
:1029580039680A604B603B683022012199547B68D2
:102968001933FA681049180003F090FA7B68193394
:102978006421180001F0AAFD0DE07B6819330B4AA9
:102988001100180003F082FA7B68193364211800DB
:1029980001F09CFDC046C046BD4604B080BDC0469F
:1029A800A0607E085398D8089867000888670008D0
:1029B80080B586B000AF786039607B6819337B6179
:1029C8003B681A685B6813003B613B681A6A5B6A7C
:1029D8001300FB60FB683A692E49786903F056FAE0
:1029E8003B68F4229B58002B0ED17B691800FDF739
:1029F80083FB03001A007B699A18274B1000190003
:102A080015231A0003F030FA3B68F4229B58012B77
:102A18000ED17B691800FDF76FFB03001A007B6974
:102A28009A181E4B1000190015231A0003F01CFAFF
:102A38003B68F4229B58022B0ED17B691800FDF7E6
:102A48005BFB03001A007B699A18154B10001900EC
:102A580015231A0003F008FA3B68F4229B58032B4D
:102A68000ED17B691800FDF747FB03001A007B694C
:102A78009A180C4B1000190015231A0003F0F4F9EA
:102A88007B696421180001F021FDC046BD4606B0EF
:102A980080BDC046B0670008D4670008EC6700082E
:102AA800046800081C68000880B584B000AF78602E
:102AB80039600023FB607B681B791B06FB607B6821
:102AC8005B791B041A00FB681343FB607B689B79E6
:102AD8001B021A00FB681343FB607B68DB791A0052
:102AE800FB681343FB60FB68002B05D13A687B68E1
:102AF80011001800FFF75CFFC046BD4604B080BD5A
:102B080080B584B000AF786039600023FB607B68D3
:102B18001B791B06FB607B685B791B041A00FB684A
:102B28001343FB607B689B791B021A00FB68134305
:102B3800FB607B68DB791A00FB681343FB60FB686A
:102B4800002B14D13B68F422002199503B683022B5
:102B5800012199547B6819332B4A1100180003F09E
:102B680095F97B6819336421180001F0AFFCFB6804
:102B7800012B14D13B68F422012199503B68302283
:102B8800012199547B681933204A1100180003F079
:102B98007DF97B6819336421180001F097FCFB6804
:102BA800022B14D13B68F422022199503B68302251
:102BB800012199547B681933154A1100180003F054
:102BC80065F97B6819336421180001F07FFCFB6804
:102BD800032B14D13B68F422032199503B6830221F
:102BE800012199547B6819330A4A1100180003F02F
:102BF8004DF97B6819336421180001F067FCC04661
:102C0800BD4604B080BDC046346800084C68000862
:102C1800646800087C68000880B584B000AFF8607C
:102C2800B9607A60BB681B78342B26D02FDC332B35
:102C380019D02CDC312B02D0322B0AD027E07A684D
:102C4800FB6811001800FFF7F3FDBB6800221A703B
:102C580021E07A68FB6811001800FFF725FFBB68C0
:102C680000221A7017E07A68FB6811001800FFF755
:102C780039FEBB6800221A700DE07A68FB68110003
:102C88001800FFF73DFFBB6800221A7003E0BB681D
:102C980000221A70C046C046BD4604B080BD000080
:102CA800B0B586B000AF786139613B691A6A5B6A72
:102CB80013001800FFF7F2FC0300BB600023FB6061
:102CC8003B69B968FA6819615A613B6918695969B9
:102CD8003B699A69DB69904201D1994216D001F0AB
:102CE800E5FC03003B6000237B603B6939687A6838
:102CF8009962DA622C4B5A692B4B01210A435A61BB
:102D08003B691A695B6939698A61CB6101F0CEFC5C
:102D180003001C0000231D003B699A6ADB6AA41AA1
:102D28009D4122002B00002B05D139D1FA21490001
:102D38008A4200D834E03B699869D9693B699A6846
:102D4800DB68904202D1994200D129E03B69986939
:102D5800D9693B691A6A5B6A12184B4139690A607A
:102D68004B607B69193318003B691A685B680F4927
:102D780003F08CF87B6919336421180001F0A6FB75
:102D88003B69302201219954074B5A69064B0121AE
:102D98008A435A613B699A69DB6939698A60CB6001
:102DA800C046BD4606B0B0BD0004005070670008BC
:102DB800F0B5FDB000AFE34BB02610217218D21960
:102DC8001A60E14B10225218D2191A60DF4B080022
:102DD8007A181A60DE4BEA2149000918CA191A60E4
:102DE80001F0E8FB00F0C4F900F072FA00F030FAE4
:102DF80000F00AFA1022BB181A000021072000F080
:102E0800F3FEEA21490010228918CB19180000F0B6
:102E18006FFF942310229918CB191800FFF7D8FADE
:102E2800FFF728F910221023D218D219E1235B02E8
:102E3800C848190001F04EFA1023F218D3191800E7
:102E480000F0F2FC1023F318DA19C34B1100180034
:102E580000F054FD0420FFF7F2FB0300BB600023E1
:102E6800FB60BE4BF02040001B1810229446BC4467
:102E78006344B968FA6819625A62B84B1B18102281
:102E88009446BC4463441A6A5B6A002B03D112D18E
:102E9800B3498A420FD9B14BF02252009B18102235
:102EA8009446BC4463441A6A5B6A002B03D10DD173
:102EB800AC498A420AD9A94BF02252009B18102229
:102EC800BA189918A84A00230A624B620520FFF72E
:102ED800B6FB0200A14BF02040001B1810218C46C5
:102EE800BC446344F4215A509C4B01005B181022E7
:102EF8009446BC446344F4229B58032B08D9974B4F
:102F08005B1810229446BC446344F4220121995072
:102F1800924BF02676009B1910229446BC446344D9
:102F28001A6A5B6A13001800FFF7B8FB03003B60DE
:102F380000237B60894B9B1910229446BC44634450
:102F480039687A689961DA61844B9B191022944632
:102F5800BC4463449A69DB69804989191020844616
:102F6800BC4461440A614B617C4B9B191022944616
:102F7800BC4463449A69DB697849891910208446FE
:102F8800BC4461448A60CB600320FFF758FB030010
:102F98001C0000231D00714B9B1910229446BC4451
:102FA80063441C605D606D4B9B1910229446BC44C1
:102FB80063441A685B68002B03D112D168498A42BE
:102FC8000FD9664BF02252009B1810229446BC443D
:102FD80063441A685B68002B03D118D163498A429D
:102FE80015D95E4BF02464001B1910229446BC448A
:102FF80063449A68DB685C48002112184B415749C2
:10300800091910208446BC4461440A604B60B0240E
:1030180010256319DA19504B1100180000F066FDED
:10302800A023DB0501222021180001F076FE631998
:10303800DA1910235B19DB1911001800FFF7B8FC27
:10304800942310269B19DB191800FFF7FBF9B0240D
:10305800A319DA191025AB19DB1911001800FFF7AD
:103068001FFE3300EA18D219EA267600F118CB19A8
:103078001100180000F0CEFE1023E218D219F11842
:10308800C9191E00EB18DB191800FFF7C5FD334BF3
:10309800F0256D005B1910229446BC44634430222D
:1030A8009B5C002BCCD02D4B5B1910229446BC4462
:1030B8006344302200219954A319DA19264B1100D0
:1030C800180000F013FDA319D919042300220320C6
:1030D800FFF744FAA319DB1920331900042300224F
:1030E8000420FFF73BFAA319DB19F4331900042372
:1030F80000220520FFF732FA642001F0E1FA0320EC
:10310800FFF79DFA0200154B5B1910218C46BC4451
:1031180063445A630420FFF792FA02000F4B5B19CD
:1031280010218C46BC4463449A630520FFF787FA54
:1031380002000A4B5B1910218C46BC446344DA63D5
:103148007EE7C04614010020180100201C01002061
:10315800200100200024F400B0000020D0FEFFFF72
:103168009F607E085498D8084086A40880B79B09B9
:1031780090B593B000AF14243B19180034231A00FB
:10318800002102F07AFE3B1D180010231A000021CE
:1031980002F073FE80239B00180001F0DBFD3B1951
:1031A8000A221A603B1980225200DA6021007B183B
:1031B80000221A617B1840225A617B1801229A6109
:1031C8007B180022DA617B18180001F003FE031E49
:1031D80001D000F01FF93B1D07221A603B1D002299
:1031E8005A603B1D00229A603B1D0022DA603B1D9D
:1031F8000021180002F0FEF8031E01D000F00AF9C1
:10320800C046BD4613B090BD80B500AF0E4B0F4A07
:103218001A600D4B00221A710B4B00225A710A4B8F
:1032280000225A61084B00229A61074B01221A6258
:10323800054B180001F01CFB031E01D000F0EAF852
:10324800C046BD4680BDC0468C000020003002400C
:1032580080B500AF1C4B1D4A1A601B4B82225200DE
:103268005A60194B802212029A60174BE022D20052
:10327800DA60154B00221A61134B00225A61124B77
:10328800802292009A61104B0022DA610E4B0022D4
:103298001A620D4B00225A620B4B00229A620A4BAB
:1032A8000722DA62084B00221A63074B08225A6386
:1032B800054B180002F028FA031E01D000F0AAF806
:1032C800C046BD4680BDC046B00000200038004062
:1032D80090B589B000AF0C243B19180014231A00CC
:1032E800002102F0CAFD454B5A6B444B02210A43A8
:1032F8005A63424B5B6B02221340BB60BB683F4B77
:103308005A6B3E4B04210A435A633C4B5B6B0422C5
:1033180013407B607B68394B5A6B384B01210A4359
:103328005A63364B5B6B012213403B603B68344960
:10333800344B0022180001F0F0FCA023DB0500222A
:10334800AE21180001F0E9FC3B192D4A1A603B191F
:1033580001225A603B1900229A603B190022DA6068
:103368003B19284A1900100001F056FB3B19264A60
:103378001A603B1900225A603B1900229A603B19D7
:10338800224A1900100001F047FB3B19AE221A60CF
:103398003B1901225A603B1900229A603B1900220E
:1033A800DA603A19A023DB051100180001F034FB9C
:1033B8003B19174A1A603B1900225A603B19002230
:1033C8009A603A19A023DB051100180001F024FBCC
:1033D80021007B189E2252001A607B1800225A6036
:1033E8007B1800229A607B18064A1900100001F029
:1033F80013FBC046BD4609B090BDC0460010024050
:10340800030200000004005040C000000008005003
:103418004099000080B500AF72B6C046FEE780B59F
:1034280082B000AF78607B6800221A647B68002253
:103438005A647B6800229A647B680022DA647B689D
:103448001B6CDA077B685B6CDB031A437B689B6C3D
:10345800DB001A437B68DB6C13431800BD4602B0DF
:1034680080BD80B582B000AF78607B6803221A65A2
:103478007B6800225A657B6801229A657B68FA227C
:103488001201DA657B6801221A667B681B6D5A0790
:103498007B685B6DDB061A437B689B6DDB031A4315
:1034A8007B68DB6DDB001A437B681B6E13431800D7
:1034B800BD4602B080BD80B582B000AF78607B6841
:1034C80001225A667B6800229A667B680622DA66C1
:1034D8007B6800221A677B6800225A677B68002293
:1034E8009A677B680022DA677B68802200219950FE
:1034F8007B688422002199507B688822002199509A
:103508007B688C22012199507B6890220021995078
:103518007B689422002199507B6898220021995059
:103528007B689C22022199507B685B6EDA077B6876
:103538009B6E5B071A437B68DB6E9B061A437B68AE
:103548001B6F5B061A437B685B6F1B061A437B681D
:103558009B6F9B031A437B68DB6F5B031A437B6893
:1035680080215B585B021A437B6884215B581B02ED
:103578001A437B6888215B58DB011A437B688C21DE
:103588005B589B011A437B6890215B585B011A4387
:103598007B6894215B581B011A437B6898215B5810
:1035A800DB001A437B689C215B5813431800BD4617
:1035B80002B080BD80B582B000AF78607B68A02281
:1035C800002199507B68A422002199507B68A82289
:1035D800012199507B68AC22002199507B68B02268
:1035E800002199507B68B422012199507B68B82248
:1035F800002199507B68BC22032199507B68A02246
:103608009B589A067B68A4215B585B061A437B6823
:10361800A8215B581B061A437B68AC215B589B04A6
:103628001A437B68B0215B585B041A437B68B4215A
:103638005B58DB031A437B68B8215B58DB001A43ED
:103648007B68BC215B5813431800BD4602B080BD9F
:1036580080B582B000AF78607B68C02203219950A2
:103668007B68C422002199507B68C82200219950A8
:103678007B68CC22002199507B68D0220121995087
:103688007B68D822394999507B68DC2200219950FF
:103698007B68E022002199507B68E4220021995040
:1036A8007B68E822002199507B68EC22032199501D
:1036B8007B68F022012199507B68F42201219950FE
:1036C8007B68D422002199507B68F8220421995004
:1036D8007B68C0229B585A077B68C4215B581B072C
:1036E8001A437B68C8215B58DB061A437B68CC21E8
:1036F8005B589B061A437B68D0215B58DB051A434D
:103708007B68D4215B581B051A437B68D8215B581A
:103718001B031A437B68DC215B58DB021A437B6876
:10372800E0215B589B021A437B68E4215B585B02EB
:103738001A437B68E8215B581B021A437B68EC211B
:103748005B589B011A437B68F0215B585B011A4365
:103758007B68F4215B58DB001A437B68F8215B58CF
:1037680013431800BD4602B080BDC046FF300000BC
:1037780080B582B000AF78607B68FC220321995045
:103788007A6880235B000021D1507A6882235B002D
:103798000121D1507A6884235B000121D1507A68D5
:1037A80086235B000021D1507A6888235B000021C2
:1037B800D1507A688A235B000021D1507A688C2323
:1037C8005B000521D1507B68FC229B585A07796819
:1037D80080235B00CB585B061A43796882235B0021
:1037E800CB581B061A43796884235B00CB589B058A
:1037F8001A43796886235B00CB589B041A4379687F
:1038080088235B00CB589B011A4379688A235B00A5
:10381800CB58DB001A4379688C235B00CB581343E1
:103828001800BD4602B080BDB0B582B000AF786068
:103838007968002200230A614B617968002200231D
:103848000A624B627B6830220021995400F02EFFF7
:1038580003001C0000231D007B689C62DD62C046DB
:10386800BD4602B0B0BD90B585B000AF7860396094
:103878000C243B1900221A603B681B0EDAB23B1974
:103888001A703B681B0CDAB23B195A703B681B0A6A
:10389800DAB23B199A703B68DAB23B19DA70A023A6
:1038A800DB0500220421180001F037FAA023DB050C
:1038B80000220221180001F030FA012000F000FF78
:1038C800391978686423042201F0D6FF012000F03A
:1038D800F7FEA023DB0501220421180001F01DFAE0
:1038E800A023DB0501220221180001F016FA32207C
:1038F80000F0E6FEC046BD4605B090BD80B584B078
:1039080000AF786039600023FB6041E03B68180035
:10391800FFF72EFF02007B6811001800FFF7A3FFD6
:10392800142000F0CDFE3B681800FFF791FE02005E
:103938007B6811001800FFF796FF3B681800FFF737
:1039480039FE02007B6811001800FFF78CFF3B6806
:103958001800FFF7B0FD02007B6811001800FFF7A0
:1039680082FF3B681800FFF77CFD02007B681100AE
:103978001800FFF778FF3B681800FFF750FD0200BA
:103988007B6811001800FFF76EFFFB680133FB60CE
:10399800FB68012BBADDC046C046BD4604B080BDF9
:1039A80090B585B000AF0F23FB1801221A7000F004
:1039B8007DFE03007B600023BB600FE000F076FE15
:1039C80002007B68D31ABB600F23FC18A023DB0519
:1039D8004021180001F084F9030023700F23FB181D
:1039E8001B78012B04D1BA68FA23DB009A42E5D38D
:1039F800C046BD4605B090BD80B584B000AF7860C4
:103A080039607B681B6CDA077B685B6CDB031A43E5
:103A18007B689B6CDB001A437B68DB6C1343FB60A1
:103A2800FA683B6811001800FFF71DFFC046BD4645
:103A380004B080BD80B584B000AF786039600023E1
:103A4800FB607B68C0229B585A077B68C4215B587F
:103A58001B071A437B68C8215B58DB061A437B683F
:103A6800CC215B589B061A437B68D0215B58DB0549
:103A78001A437B68D4215B581B051A437B68D821FD
:103A88005B581B031A437B68DC215B58DB021A4333
:103A98007B68E0215B589B021A437B68E4215B58F2
:103AA8005B021A437B68E8215B581B021A437B6858
:103AB800EC215B589B011A437B68F0215B585B0142
:103AC8001A437B68F4215B58DB001A437B68F821B2
:103AD8005B581343FB60FA683B6811001800FFF756
:103AE800C2FEC046BD4604B080BD0000B0B586B079
:103AF80000AFF860B960A023DB0500222021180080
:103B080001F00BF9BB68F02200219950FA68BB68F4
:103B180011001800FFF78EFFBB681A685B68D10EAA
:103B28005801786078680843786053013B602B4AF5
:103B3800002338687968FCF7BBFB02000B00BB6800
:103B48005A64BB681A685B68D10E5D010D43540165
:103B5800224A002320002900FCF7AAFB10001900C4
:103B6800FCF7E4FB02000B003A617B6100221C4B6E
:103B780038697969FCF7F8FF02000B00100019009A
:103B88000022184BFDF7F2FB02000B001000190091
:103B9800FCF7AEFB0200BB689A64FA68BB681100C8
:103BA8001800FFF729FFFFF7FBFEBB68D4220521A9
:103BB8009950BB68F02201219950FA68BB6811003E
:103BC8001800FFF737FFA023DB050122202118008A
:103BD80001F0A3F8C046BD4606B0B0BD80F0FA02B9
:103BE80084D787410040AF4080B582B000AF3A60CB
:103BF800FB1D021C1A70BB1D0A1C1A703B680022B0
:103C08009A603B6800225A603B6800221A603B6851
:103C180000221A733B68FA1D12789A733B68BA1D22
:103C280012785A73C046BD4602B080BD80B584B0D4
:103C380000AF78600A00FB1C1A700A23FB182B4A95
:103C48001A800C23FB1800221A800F23FB1800226D
:103C58001A703DE00F23FB181B787A68D3181B787D
:103C68009BB21B0299B20C22BB18BA1812884A40A0
:103C78001A800E23FB1800221A701EE00C217B18F4
:103C880000229B5E002B0CDA7B181B885B001AB2A3
:103C98000A23FB1800201B5E53401AB27B181A80B7
:103CA80005E00C23FA18FB181B88DB1813800E217B
:103CB8007B181A787B1801321A700E23FB181B78B0
:103CC800072BDBD90F217B181A787B1801321A7061
:103CD8000F23FA18FB1C12781B789A42BAD30C23CC
:103CE800FB181B881800BD4604B080BD21100000D9
:103CF80080B582B000AF78607B6800225A707B681C
:103D080007221A727B6800221A70084B1A68074B40
:103D18008021C9020A431A60044B1A68034B0449FC
:103D28000A401A60C046BD4602B080BD000400507B
:103D3800FFFFF7FF80B582B000AF786039603B685D
:103D48007D229B5C062B13D93B681B787E2293420D
:103D58000CD13B687D229B5C013B3A68D35C7F2297
:103D6800934201D1022304E0012302E0032300E08F
:103D780008231800BD4602B080BD80B584B000AFEE
:103D880078607B681B7A1B02FB607B685B7A1A0091
:103D9800FB681343FB607B68013307211800FFF7BA
:103DA80045FF0300BB60BA68FB689A4201D1002353
:103DB80000E006231800BD4604B080BD80B584B07D
:103DC80000AF78607B685B78072B1CD17B689B7899
:103DD800002B16D10323FB600BE07A68FB68D3182D
:103DE8001B787F22934201D109230FE0FB6801333E
:103DF800FB607B687D229B5C1A00FB689342ECDBCE
:103E080003E0052302E0042300E004231800BD4674
:103E180004B080BD80B582B000AF786039607B683F
:103E28001B7A092B00D981E09A00474BD3181B68ED
:103E38009F463B681800FFF7A0FF03001A007B6845
:103E48001A727CE03B68DA787B681A703F4B18007E
:103E580000F018FB7B6807221A7270E07B68082262
:103E68001A723B4A3B681100180000F091F9031ED2
:103E780064D07B6807221A7260E03B681800FFF77D
:103E88009DFF03001A007B681A7258E0322000F088
:103E980017FC304B180000F0F5FA3B68180000F0EA
:103EA8003BFB7B6807221A7249E02B4B180000F095
:103EB800E9FA3B68180000F02FFB7B6807221A72AA
:103EC8003DE0264B180000F0DDFA3B68180000F0D2
:103ED80023FB7B6807221A7231E0214B180000F09F
:103EE800D1FA3B68180000F017FB7B6807221A72AA
:103EF80025E03A687B6811001800FFF71BFF0300F4
:103F08001A007B681A72174A3B681100180000F003
:103F18003FF914E0144B180000F0B4FA3B6818009D
:103F280000F0FAFA7B6808221A7208E07B68072218
:103F38001A723B68180000F0EFFA00E0C046C0466D
:103F4800BD4602B080BDC046986900089468000864
:103F5800A0680008B0680008C4680008D8680008AD
:103F6800F0680008FC6800080469000880B582B0A1
:103F780000AF0F4B1A6C0E4B01210A431A640C4B0D
:103F88001B6C012213407B607B68094BDA6B084B82
:103F9800802149050A43DA63054BDA6B80235B0508
:103FA80013403B603B68C046BD4602B080BDC0467A
:103FB8000010024080B584B000AF78607B681B6851
:103FC8000A4A93420DD10A4B9A6B094B8021490149
:103FD8000A439A63064B9A6B80235B011340FB608C
:103FE800FB68C046BD4604B080BDC04600300240F4
:103FF8000010024090B58BB000AF786014243B19D4
:10400800180014231A00002101F037FF7B681B6891
:10401800264A934246D1264BDA6B254B8021C901AB
:104028000A43DA63224BDA6B8023DB0113403B61DE
:104038003B691F4B5A6B1E4B01210A435A631C4BA9
:104048005B6B01221340FB60FB683B1901221A607D
:104058003B1902225A603B1900229A603B19002240
:10406800DA603B1900221A613A19A023DB05110016
:10407800180000F0D1FC21007B1810221A607B1870
:1040880002225A607B1800229A607B180022DA60AC
:104098007B1801221A617A18A023DB051100180089
:1040A80000F0BAFCC046BD460BB090BD00380040D9
:1040B8000010024080B500AFFEE780B500AFFEE714
:1040C80080B500AFC046BD4680BD80B500AFC046D4
:1040D800BD4680BD80B500AF00F0D6FAC046BD46EB
:1040E80080BD000080B586B000AF7860144A154BDB
:1040F800D31A7B617B693B61134B1B68002B02D190
:10410800114B124A1A60104B1A687B68D3183A6927
:104118009A4207D201F07EFE03000C221A600123A6
:104128005B4209E0084B1B68FB60074B1A687B6819
:10413800D218054B1A60FB681800BD4606B080BD52
:10414800002000200004000024010020400100207D
:1041580080B500AFC046BD4680BD000080B582B0C6
:1041680000AF0200FB1D1A70FB1D1B787F2B09D8BE
:10417800FB1D1B781A001F231A40044B0121914094
:104188000A001A60C046BD4602B080BD00E100E0EA
:1041980080B582B000AF7860396000F087FA02001D
:1041A8007B6880215B58D31A0F4A934217D93B6822
:1041B800180000F067F90D4B180000F063F93B6830
:1041C8001B78002B03D07B68180000F0A5F900F0DD
:1041D8006DFA02007B6880215A50012300E0002319
:1041E8001800BD4602B080BD881300000C690008A5
:1041F80080B500AFA023DB051A68A023DB05304992
:104208000A401A60A023DB051A68A023DB05802179
:1042180089030A431A60A023DB051A68A023DB057B
:1042280028490A401A60A023DB051A68A023DB0589
:10423800802109030A431A60A023DB055A6AA023D8
:10424800DB05802149000A435A62A023DB055A6A2C
:10425800A023DB051C490A405A62A023DB055A6AE1
:10426800A023DB0519490A405A62A023DB055A6AD4
:10427800A023DB0516490A405A62A023DB055A6AC7
:10428800A023DB0510210A435A62A023DB055A6AE2
:10429800A023DB0520218A435A62A023DB055A6A42
:1042A800A023DB0540218A435A62A023DB055A6A12
:1042B800A023DB0580218A435A62C046BD4680BDE3
:1042C800FFFFEFFFFFFFFBFFFFFDFFFFFFFBFFFF10
:1042D800FFF7FFFF80B586B000AFF860B9607A607D
:1042E80000237B61FFF784FF1F4B1A6C1E4B802154
:1042F800C9010A431A64FB681C4A93420BD11A4B42
:104308005A6D194B01218A435A65174B5A6D164B42
:1043180002210A435A65B968F868FBF7FFFE0300F3
:104328007B617B699AB2124BDA60114B0C221A60DE
:104338007B687D22002199547B68180000F0ECF816
:104348000B4B1A680A4B20210A431A601B20FFF7FF
:1043580005FF074B1A68064B01210A431A60C0463D
:10436800BD4606B080BDC046001002400024F400DF
:104378000038014080B582B000AF0200FB1D1A7002
:10438800104B5A690F4B802189000A435A61C04675
:104398000D4BDB6980221340FAD00B4BFA1D1278C3
:1043A8009A62C046084BDB6940221340FAD0054B9D
:1043B8005A69044B05490A405A61C046BD4602B0D5
:1043C80080BDC0460004005000380140FFFDFFFFDB
:1043D80080B582B000AF184BDB6908221A40FB1D7C
:1043E800511E8A411A70144BDB6920221A40BB1DEA
:1043F800511E8A411A70BB1D1B78002B03D1FB1D6F
:104408001B78002B12D0FB1D1B78002B05D00A4B04
:104418001A6A094B08210A431A62074B5B6ADAB227
:104428007B1D1A707B1D1B78DBB200E0002318008F
:10443800BD4602B080BDC0460038014090B583B08B
:1044480000AF78607B687D229B5C182B07D97B685E
:10445800180000F061F87B687D22002199547B6880
:104468007D229B5C5A1CD0B27A687D2150541C0076
:10447800FFF7AEFF03001A007B681A55C046BD4619
:1044880003B090BD90B585B000AF78600F23FB18DE
:1044980000221A700DE00F243B191B787A68D31894
:1044A8001B781800FFF766FF3B191A783B19013291
:1044B8001A700F23FB181B787A68D3181B78002B07
:1044C800E9D1C046C046BD4605B090BD80B584B0B0
:1044D80000AF78600A00FB1C1A70FB1C1B78002BCD
:1044E80016D00023FB600EE0FB687A68D3181B78AF
:1044F8001800FFF73FFFFB687A68D31800221A708C
:10450800FB680133FB60FB1C1B78FA689A42EBDB03
:10451800C046BD4604B080BD80B584B000AF7860A9
:104528007B687D22002199540023FB6010E0FB6822
:10453800182B04DC7A68FB68D31800221A707A6892
:10454800FB68D318193300221A70FB680133FB602B
:10455800FB68632BEBDDC046C046BD4604B080BD9A
:104568000D488546FFF7F4FD0C480D490D4A002318
:1045780002E0D458C4500433C4188C42F9D30A4A10
:104588000A4C002301E013600432A242FBD301F07D
:1045980047FCFEF70DFCFEE700200020000000208D
:1045A80070000020446A0008700000203C010020D0
:1045B800FEE7000080B582B000AFFB1D00221A7034
:1045C8000B4B1A680A4B802149000A431A600320E2
:1045D80000F010F8031E03D0FB1D01221A7001E041
:1045E800FFF7C4FCFB1D1B781800BD4602B080BD58
:1045F8000020024090B585B000AF78600F23FB180B
:1046080000221A701D4B1B78002B2BD01C4B1C68EA
:104618001A4B1B781900FA239800FBF77FFD03005B
:1046280019002000FBF77AFD0300180000F013F9C9
:10463800031E12D17B68032B0AD8796801235B42D9
:104648000022180000F0F2F80E4B7A681A600DE0AC
:104658000F23FB1801221A7008E00F23FB18012210
:104668001A7003E00F23FB1801221A700F23FB189E
:104678001B781800BD4605B090BDC0460800002054
:10468800000000200400002080B500AF054B1B7817
:104698001A00054B1B68D218034B1A60C046BD466A
:1046A80080BDC046080000202801002080B500AF6A
:1046B800024B1B681800BD4680BDC046280100207B
:1046C80080B584B000AF7860FFF7F0FF0300BB60EF
:1046D8007B68FB60FB68013305D00A4B1B781A0026
:1046E800FB689B18FB60C046FFF7E0FF0200BB6851
:1046F800D31AFA689A42F7D8C046C046BD4604B0F5
:1047080080BDC0460800002090B583B000AF02000D
:104718003960FB1D1A70FB1D1B787F2B28D82F4A88
:10472800FB1D1B785BB29B08C0339B009B58FA1D8E
:104738001278110003220A40D200FF2191400A009A
:10474800D2431A4011003B689B01FF221A40FB1D0F
:104758001B78180003230340DB009A401F48FB1D09
:104768001B785BB29B080A43C0339B001A5031E0A8
:104778001B4AFB1D1B7819000F230B40083B9B08A5
:1047880006339B00D31804331B68FA1D12781100F6
:1047980003220A40D200FF2191400A00D2431A4066
:1047A80011003B689B01FF221A40FB1D1B78180073
:1047B80003230340DB009A400948FB1D1B781C00BB
:1047C8000F232340083B9B080A4306339B00C3186A
:1047D80004331A60C046BD4603B090BD00E100E056
:1047E80000ED00E080B582B000AF78607B685A1EAB
:1047F80080235B049A4201D3012310E00A4B7A68B4
:10480800013A5A6001235B4203211800FFF77CFF3D
:10481800054B00229A60044B07221A6000231800F7
:10482800BD4602B080BDC04610E000E080B584B04F
:1048380000AFB9607A600F217B18021C1A70BA6841
:104848007B181B785BB211001800FFF75DFFC046AC
:10485800BD4604B080BD80B582B000AF78607B688B
:104868001800FFF7BFFF03001800BD4602B080BD67
:1048780080B582B000AF78607B68002B01D101233E
:1048880056E07B685B7FDBB2002B06D17B68002299
:104898001A777B681800FFF78DFB7B6802225A772E
:1048A8007B681B79002B0CD17B681B68224A5A61F4
:1048B8007B681B689A687B681B6818218A439A6022
:1048C8000BE07B6899687B68DA687B68180000F001
:1048D80035F8031E01D001232AE07B685B79002BA1
:1048E80005D17B681B68012252421A6104E07B688B
:1048F8001B687A6812691A617B681B689B6860226A
:10490800934319007B685A697B681B680A439A605D
:104918007B681B689B688022934319007B689A69AF
:104928007B681B680A439A607B6801225A770023D8
:104938001800BD4602B080BDB71DC10480B586B061
:1049480000AFF860B9607A601723FB1800221A706C
:104958001F233B61C0463B695A1E3A61002B08D0B1
:104968003B691F221340BA68DA4013000122134042
:10497800F1D07B68182B0FD07B68182B24D87B6864
:10498800102B11D07B68102B1ED87B68002B20D0F1
:104998007B68082B10D017E03B69062B1BD917231F
:1049A800FB1801221A7016E03B69072B15D917234B
:1049B800FB1801221A7010E03B690F2B0FD917233F
:1049C800FB1801221A700AE01723FB1801221A703B
:1049D80006E0C04604E0C04602E0C04600E0C0462B
:1049E8001723FB181B78002B0ED1FB681B68BA68CD
:1049F8005A61FB681B689B68182293431900FB687F
:104A08001B687A680A439A601723FB181B781800FA
:104A1800BD4606B080BD000080B586B000AF7860A6
:104A2800396000237B6147E13B681B6801217A6993
:104A380091400A001340FB60FB68002B00D138E16D
:104A48003B685B6803221340012B05D03B685B6819
:104A580003221340022B30D17B689B683B617B6942
:104A68005B0003229A401300DA433B6913403B6121
:104A78003B68DA687B695B009A4013003A69134324
:104A88003B617B683A699A607B685B683B6101229D
:104A98007B699A401300DA433B6913403B613B68EA
:104AA8005B681B0901221A407B699A4013003A6926
:104AB80013433B617B683A695A603B685B68032231
:104AC8001340032B17D07B68DB683B617B695B0075
:104AD80003229A401300DA433B6913403B613B6869
:104AE8009A687B695B009A4013003A6913433B61FB
:104AF8007B683A69DA603B685B6803221340022BE3
:104B080023D17B69DA087B6808329200D3583B616D
:104B18007B69072213409B000F229A401300DA4357
:104B28003B6913403B613B681A697B6907210B406D
:104B38009B009A4013003A6913433B617B69DA088A
:104B48007B68083292003969D1507B681B683B61E9
:104B58007B695B0003229A401300DA433B691340E8
:104B68003B613B685B6803221A407B695B009A40A3
:104B780013003A6913433B617B683A691A603B68E2
:104B88005A68C0239B02134000D192E0504A7B69C7
:104B98009B0818339B009B583B617B690322134099
:104BA800DB000F229A401300DA433B6913403B6154
:104BB8007A68A023DB059A4213D07B68454A934262
:104BC8000DD07B68444A934207D07B68434A93429E
:104BD80001D1032306E0052304E0022302E00123B8
:104BE80000E000237A6903210A40D20093403A6921
:104BF80013433B6136497B699B0818339B003A692C
:104C08005A50334B1B683B61FB68DA433B691340DE
:104C18003B613B685A6880235B03134003D03A69C1
:104C2800FB6813433B612A4B3A691A60284B5B685F
:104C38003B61FB68DA433B6913403B613B685A6858
:104C480080239B03134003D03A69FB6813433B61FD
:104C58001F4B3A695A601E4A8423D3583B61FB684C
:104C6800DA433B6913403B613B685A6880239B02E7
:104C7800134003D03A69FB6813433B61144984220B
:104C88003B698B50124A8023D3583B61FB68DA4357
:104C98003B6913403B613B685A6880235B021340C1
:104CA80003D03A69FB6813433B61094980223B6999
:104CB8008B507B6901337B613B681A687B69DA40FA
:104CC800131E00D0B0E6C046C046BD4606B080BD43
:104CD800001802400004005000080050000C00506A
:104CE80080B584B000AF78600A00BB1C1A807B686E
:104CF8001B69BA1C1288134004D00F23FB18012229
:104D08001A7003E00F23FB1800221A700F23FB18F8
:104D18001B781800BD4604B080BD80B582B000AFD6
:104D2800786008001100BB1C021C1A807B1C0A1C3E
:104D38001A707B1C1B78002B04D0BB1C1A887B685C
:104D48009A6103E0BB1C1A887B689A62C046BD461C
:104D580002B080BD80B584B000AF7860194B1B6885
:104D6800194A13401900174B7A680A431A607A687F
:104D780080239B009A421FD1144B1A6813005B00D2
:104D88009B185B0012491800FBF7C8F903000133B0
:104D9800FB6008E0FB68002B03D0FB68013BFB606D
:104DA80001E0032309E0074B5A698023DB001A401E
:104DB8008023DB009A42EDD000231800BD4604B0E2
:104DC80080BDC04600700040FFF9FFFF00000020D2
:104DD80040420F0080B588B000AF78607B68002B38
:104DE80001D10123F3E27B681B680122134000D143
:104DF8007CE0C34B9B6838221340BB61C04BDB6827
:104E0800032213407B61BB69102B02D17B69032B02
:104E180002D0BB69082B0BD1B94B1A6880239B02BF
:104E2800134062D07B685B68002B5ED10123CEE221
:104E38007B685A6880235B029A4207D1B04B1A6894
:104E4800AF4B802149020A431A6020E07B685A6808
:104E5800A023DB029A420ED1A94B1A68A84B8021E5
:104E6800C9020A431A60A64B1A68A54B8021490259
:104E78000A431A600BE0A24B1A68A14BA1490A40E9
:104E88001A609F4B1A689E4B9F490A401A607B68BC
:104E98005B68002B14D0FFF709FC03003B6108E0B6
:104EA800FFF704FC02003B69D31A642B01D90323E2
:104EB8008DE2934B1A6880239B021340F0D015E0D3
:104EC800FFF7F4FB03003B6108E0FFF7EFFB02008C
:104ED8003B69D31A642B01D9032378E2884B1A68FB
:104EE80080239B021340F0D100E0C0467B681B681A
:104EF8000222134000D199E0814B9B68382213406D
:104F0800BB617F4BDB68032213407B61BB69102BBD
:104F180002D17B69022B02D0BB69002B35D1784BBB
:104F28001A688023DB00134005D07B68DB68002B00
:104F380001D101234BE2724B5B68744A134019009C
:104F48007B685B691A026E4B0A435A60BB69002B87
:104F580012D16B4B1B686E4A134019007B681A69A3
:104F6800674B0A431A60664B1B68DB0A072213402B
:104F7800684ADA40684B1A60684B1B681800FFF7EC
:104F880039FB031E51D0012321E27B68DB68002B2B
:104F980030D05B4B1B685E4A134019007B681A6966
:104FA800574B0A431A60564B1A68554B80214900E3
:104FB8000A431A60FFF77AFB03003B6108E0FFF73A
:104FC80075FB02003B69D31A022B01D90323FEE1CA
:104FD8004B4B1A688023DB001340F0D0484B5B68CA
:104FE8004A4A134019007B685B691A02444B0A431A
:104FF8005A601BE0424B1A68414B49490A401A6003
:10500800FFF754FB03003B6108E0FFF74FFB02008A
:105018003B69D31A022B01D90323D8E1384B1A680C
:105028008023DB001340F0D100E0C0467B681B689A
:105038000822134047D0324B9B6838221340182B64
:105048000AD12F4B1B6E022213403CD07B689B6910
:10505800002B38D10123BAE17B689B69002B19D05A
:10506800274B1A6E264B01210A431A66FFF71EFBCF
:1050780003003B6108E0FFF719FB02003B69D31A04
:10508800022B01D90323A2E11D4B1B6E0222134000
:10509800F1D018E01A4B1A6E194B01218A431A668F
:1050A800FFF704FB03003B6108E0FFF7FFFA02008B
:1050B8003B69D31A022B01D9032388E1104B1B6EDD
:1050C80002221340F1D17B681B680422134000D1EF
:1050D800C6E01F23FB1800221A70094B9B68382270
:1050E8001340202B1ED1064BDB6D0222134000D14A
:1050F800B6E07B689B68002B00D0B1E0012366E135
:1051080000100240FFFFFEFFFFFFFBFFFF80FFFFD5
:10511800FFC7FFFF0024F400000000200400002067
:10512800FFFEFFFFAC4BDA6B80235B05134001D118
:10513800012300E00023002B11D0A74BDA6BA64B0C
:10514800802149050A43DA63A34BDA6B80235B05A8
:105158001340FB60FB681F23FB1801221A709F4B4A
:105168001A6880235B0013401AD19C4B1A689B4B2A
:10517800802149000A431A60FFF798FA03003B614F
:1051880008E0FFF793FA02003B69D31A022B01D912
:1051980003231CE1914B1A6880235B001340F0D075
:1051A8007B689B68012B06D18B4BDA6D8A4B0121FA
:1051B8000A43DA651CE07B689B68052B0CD1864B9B
:1051C800DA6D854B04210A43DA65834BDA6D824B2D
:1051D80001210A43DA650BE07F4BDA6D7E4B012132
:1051E8008A43DA657C4BDA6D7B4B04218A43DA65A6
:1051F8007B689B68002B14D0FFF758FA03003B61CB
:1052080009E0FFF753FA02003B69D31A744A934244
:1052180001D90323DBE0704BDB6D02221340F0D091
:1052280013E0FFF743FA03003B6109E0FFF73EFA9A
:1052380002003B69D31A6A4A934201D90323C6E0A4
:10524800654BDB6D02221340F0D11F23FB181B783E
:10525800012B05D1604BDA6B5F4B62490A40DA6378
:105268007B68DB69002B00D1B0E05B4B9B68382280
:105278001340102B00D178E07B68DB69022B53D1F7
:10528800554B1A68544B58490A401A60FFF70EFAF2
:1052980003003B6108E0FFF709FA02003B69D31AF3
:1052A800022B01D9032392E04B4B1A6880239B04FD
:1052B8001340F0D1484BDB684C4A134019007B6817
:1052C8001A6A7B685B6A1A437B689B6A1B021A43EB
:1052D8007B68DB6A1A437B681B6B1A433E4B0A43A5
:1052E800DA603D4B1A683C4B802149040A431A6036
:1052F800394BDA68384B802149050A43DA60FFF7F1
:10530800D5F903003B6108E0FFF7D0F902003B69DB
:10531800D31A022B01D9032359E02F4B1A68802393
:105328009B041340F0D051E02B4B1A682A4B2E49AE
:105338000A401A60FFF7BAF903003B6108E0FFF77B
:10534800B5F902003B69D31A022B01D903233EE0C9
:10535800214B1A6880239B041340F0D11E4BDA6856
:105368001D4B23490A40DA6030E07B68DB69012B7A
:1053780001D101232BE0184BDB687B617B69032299
:105388001A407B681B6A9A421ED17B6970221A40B8
:105398007B685B6A9A4217D17A69FE23DB011A405F
:1053A8007B689B6A1B029A420ED17A69F8239B0399
:1053B8001A407B68DB6A9A4206D17B695B0F5A0701
:1053C8007B681B6B9A4201D0012300E00023180080
:1053D800BD4608B080BDC0460010024000700040C5
:1053E80088130000FFFFFFEFFFFFFFFE8C80C11F47
:1053F800FCFFFEEF80B584B000AF786039607B6851
:10540800002B01D10123E9E0764B1B6807221340EA
:105418003A689A421ED9734B1B68072293431900B6
:10542800704B3A680A431A60FFF740F90300FB60C3
:1054380009E0FFF73BF90200FB68D31A6A4A934276
:1054480001D90323CAE0674B1B68072213403A6857
:105458009A42EED17B681B680222134015D07B6804
:105468001B680422134006D0604B9A685F4BE0210A
:10547800C9010A439A605D4B9B685D4A1340190055
:105488007B689A68594B0A439A607B681B680122BB
:10549800134057D07B685B68012B07D1534B1A68C0
:1054A80080239B0213402BD1012397E07B685B6824
:1054B800022B07D14D4B1A6880239B0413401FD140
:1054C80001238BE07B685B68002B07D1474B1A6888
:1054D8008023DB00134013D101237FE07B685B68E6
:1054E800032B06D1414B1B6E0222134008D1012326
:1054F80074E03E4BDB6D0222134001D101236DE0C5
:105508003A4B9B680722934319007B685A68374BCC
:105518000A439A60FFF7CAF80300FB6009E0FFF747
:10552800C5F80200FB68D31A2F4A934201D9032316
:1055380054E02E4B9B6838221A407B685B68DB007E
:105548009A42ECD1274B1B68072213403A689A42CB
:105558001ED2244B1B68072293431900214B3A683B
:105568000A431A60FFF7A2F80300FB6009E0FFF79F
:105578009DF80200FB68D31A1B4A934201D9032302
:105588002CE0184B1B68072213403A689A42EED168
:105598007B681B680422134009D0144B9B68154A8A
:1055A800134019007B68DA68104B0A439A6000F0D0
:1055B80029F801000D4B9B681B0A0F221A400E4B5D
:1055C8009200D3581F2213400A00DA400B4B1A608E
:1055D8000B4B1B681800FFF70DF803001800BD46B9
:1055E80004B080BD00200240881300000010024073
:1055F800FFF0FFFFFF8FFFFFC069000800000020D9
:105608000400002080B586B000AF3C4B9B68382270
:1056180013400FD1394B1B68DB0A072213400122C4
:105628009A4013003B6039683548FAF777FD030064
:105638003B615DE0314B9B6838221340082B02D157
:10564800304B3B6154E02D4B9B6838221340102BA4
:1056580038D12A4BDB6803221340FB60274BDB68F9
:105668001B09072213400133BB60FB68032B0DD1D4
:10567800B9682448FAF752FD030019001F4BDB688C
:105688001B0A7F2213404B437B610DE0B9681C481D
:10569800FAF744FD03001900184BDB681B0A7F2248
:1056A80013404B437B61C046144BDB685B0F0722FA
:1056B800134001337B6079687869FAF72FFD03009E
:1056C8003B6115E00D4B9B6838221340202B03D11A
:1056D80080231B023B610BE0084B9B683822134078
:1056E800182B03D1FA23DB013B6101E000233B6166
:1056F8003B691800BD4606B080BDC0460010024098
:105708000024F40000127A0080B584B000AF7860FD
:105718007B68002B01D10123A8E07B685B6A002B22
:1057280009D17B685A6882235B009A4209D07B685A
:105738000022DA6105E07B6800221A617B6800229A
:105748005A617B6800229A627B685D229B5CDBB2AF
:10575800002B07D17B685C22002199547B681800D4
:10576800FEF748FC7B685D22022199547B681B6820
:105778001A687B681B6840218A431A607B68DA686C
:10578800E023DB009A4202D90023FB6002E0802379
:105798005B01FB607B68DA68F0231B019A4208D042
:1057A8007B68DA68E023DB009A4202D07B6800223B
:1057B8009A627B685A6882235B001A407B68996802
:1057C80084231B020B401A437B681B6902210B4090
:1057D8001A437B685B6901210B401A437B6899690E
:1057E80080239B000B401A437B68DB6938210B4000
:1057F8001A437B681B6A80210B401A4311007B689F
:105808009A6A80239B011A407B681B680A431A60C6
:105818007B689B691B0C04221A407B685B6A102119
:105828000B401A437B685B6B08210B401A437B686B
:10583800D968F0231B010B401A431100FA68802332
:105848005B011A407B681B680A435A607B681B68C7
:10585800DA697B681B6807490A40DA617B680022BD
:105868001A667B685D220121995400231800BD4601
:1058780004B080BDFFF7FFFF80B588B000AFF860C7
:10588800B9603B60BB1D1A801F23FB1800221A70E9
:10589800FB685C229B5C012B01D1022340E1FB6881
:1058A8005C2201219954FEF701FF0300BB61162316
:1058B800FB18BA1D12881A80FB685D229B5CDBB25C
:1058C800012B04D01F23FB1802221A701DE1BB68AC
:1058D800002B03D0BB1D1B88002B04D11F23FB18F2
:1058E80001221A7011E1FB685D2203219954FB68BB
:1058F80000221A66FB68BA689A63FB68BA1D1288A8
:105908009A87FB68BA1D1288DA87FB6800221A6436
:10591800FB68442200219952FB68462200219952D3
:10592800FB6800221A65FB680022DA64FB689A6843
:1059380080231B029A4210D1FB681B681A68FB6817
:105948001B6840218A431A60FB681B681A68FB6859
:105958001B688021C9010A431A60FB681B681B6821
:1059680040221340402B07D0FB681B681A68FB686D
:105978001B6840210A431A60FB68DA68E023DB00F1
:105988009A424ED9FB685B68002B04D01623FB189B
:105998001B88012B3FD1FB689B6B1A88FB681B682F
:1059A800DA60FB689B6B9A1CFB689A63FB68DB8F69
:1059B8009BB2013B9AB2FB68DA872CE0FB681B6854
:1059C8009B6802221340022B12D1FB689B6B1A883A
:1059D800FB681B68DA60FB689B6B9A1CFB689A6320
:1059E800FB68DB8F9BB2013B9AB2FB68DA8712E057
:1059F800FEF75CFE0200BB69D31A3A689A4202D8E5
:105A08003B68013302D13B68002B04D11F23FB18EC
:105A180003221A7079E0FB68DB8F9BB2002BCDD193
:105A28004FE0FB685B68002B04D01623FB181B882B
:105A3800012B41D1FB689A6BFB681B680C33127809
:105A48001A70FB689B6B5A1CFB689A63FB68DB8FB8
:105A58009BB2013B9AB2FB68DA872DE0FB681B68B2
:105A68009B6802221340022B13D1FB689A6BFB68D8
:105A78001B680C3312781A70FB689B6B5A1CFB6806
:105A88009A63FB68DB8F9BB2013B9AB2FB68DA87AB
:105A980012E0FEF70BFE0200BB69D31A3A689A427D
:105AA80002D83B68013302D13B68002B04D11F2385
:105AB800FB1803221A7028E0FB68DB8F9BB2002BCF
:105AC800CCD1BA693968FB68180000F05DF9031E8B
